:020000041000EA
:10E000000000022035350110DD3301107335011099
:10E0100075350110773501107935011000000000C9
:10E020000000000000000000000000007B3501102F
:10E030007D350110000000007F3501108135011091
:10E040008535011087350110893501108B35011098
:10E050008D3501108F350110913501109335011068
:10E060009535011097350110993501109B35011038
:10E070009D3501109F350110A1350110A335011008
:10E08000A5350110A7350110A9350110AB350110D8
:10E09000AD350110AF350110B1350110B3350110A8
:10E0A000793301107F330110B9350110BB350110F0
:10E0B0008D010110BF350110C1350110C3350110AC
:10E0C000C5350110C7350110C9350110CB35011018
:10E0D000CD350110CF350110D1350110D3350110E8
:10E0E000D5350110D7350110D9350110DB350110B8
:10E0F000DD350110DF350110E1350110E335011088
:10E10000E5350110E7350110E9350110EB35011057
:10E11000ED350110EF350110F1350110F335011027
:10E12000F5350110F7350110F9350110FB350110F7
:10E13000FD350110FF3501100136011003360110C5
:10E140000536011007360110093601100B36011093
:10E150000D3601100F360110113601101336011063
:10E160001536011017360110193601101B36011033
:10E170001D3601101F360110213601102336011003
:10E180002536011027360110293601102B360110D3
:10E190002D3601102F3601103136011033360110A3
:10E1A0003536011037360110393601103B36011073
:10E1B0003D3601103F360110413601104336011043
:10E1C0004536011047360110493601104B36011013
:10E1D0004D3601104F3601105136011053360110E3
:10E1E000000000000000000000000000000000002F
:10E1F000000000000000000000000000000000001F
:10E2000000488047353501100348044B834202D053
:10E21000034B03B118477047DC0A0020DC0A0020DA
:10E22000000000000548064B1B1AD90F01EBA301A3
:10E23000491002D0034B03B118477047DC0A002095
:10E24000DC0A00200000000010B5064C237843B91A
:10E25000FFF7DAFF044B13B10448AFF3008001234A
:10E26000237010BD000C002000000000503203108D
:10E2700008B5054B1BB105490548AFF30080BDE863
:10E280000840FFF7CFBF00BF00000000040C0020D3
:10E290005032031070B5174D0A440B4613F8014B6A
:10E2A000A6089A42AE5D06704FEA041404F03004EA
:10E2B00002D82B5D437070BD4B7844EA13149B0069
:10E2C0002C5D44708C1CA24203F03C0302D8EB5C32
:10E2D0008370F0E78C7843EA941304F03F04EB5C1E
:10E2E0008370033104302B5D00F8013C8A42D4D89E
:10E2F000E1E700BF222E02102DE9F04F85B003F0B8
:10E300000109DB038846019304A90023DFF88CA0F0
:10E3100005469E469C4601EB890900242646274671
:10E3200029784FFA81FB41EA06264BEA04241FB9FB
:10E3300089B301350127F3E704F0800B4EEA0B0E99
:10E3400039B301350137042FEAD1CDE902646640C3
:10E3500059F8084C48F82C405AF8041F614042F81C
:10E360002C100CF1010CBCF1120F43EA0603D4D1BE
:10E3700043EA13439BB20199C3F17F4303F57F0343
:10E380000B40116803EA4E235940116005B0BDE807
:10E39000F08F0546D6E70546CCE700BF603E021089
:10E3A00000EB810103681BBA40F8043B8142F9D1BC
:10E3B000704700002DE9F04FADF5885D81B03C2B32
:10E3C0000446019103920BDC0BF070FC22230360E6
:10E3D0000023039303980DF5885D01B0BDE8F08F2D
:10E3E000019B1B78242B28D1019B5B78322B24D1F5
:10E3F000019B9B78A3F16102192A1ED8114D2B4471
:10E4000013F8613CCBB1019BDB78242B15D1019B28
:10E410001879A0F13002D3B2032B0ED8019B5979A1
:10E42000A1F13003DEB2092E07D8332801D13129FA
:10E4300003D801998979242906D00BF037FC1623DB
:10E44000C5E700BFA82D02100A2101FB02330122FB
:10E4500002FA03F305930DF589530833059A1B68F7
:10E460009A42EAD3019B24480DF587520B330B32B5
:10E47000062613F8041C20395F29DED8475C3F2F9D
:10E48000DBD813F8031C20395F29D6D810F801C057
:10E49000BCF13F0FD1D84FEA1C1141EA8701012E90
:10E4A00002F8031C41F00C830DF58650183004214E
:10E4B0001030FFF775FF019B9B782B4418AA13F8C7
:10E4C000613C02F6F87220460DF5855140AC04928D
:10E4D000FFF712FF09494FF48052A4F1A8000BF096
:10E4E000EFFD0026049FB646B0460DF658430DF6E4
:10E4F00058020DF58B6103E0C22D0210642E02104C
:10E5000006F0020C04EB8C00D4F8585FD0F8E80F4A
:10E51000684080EA08004FEA903B850D0DF15809EC
:10E520004FEA901A0BF47F7B05F47F750AF47F7A2B
:10E5300051F80BB059F8055052F80AA004EB8C0CB6
:10E540004FEA80085D4408F47F7885EA0A0ADCF81F
:10E55000EC5FD4F85CCF85EA0C0C53F80850AA4461
:10E560008CEA0A0C8CEA0E0C4FEA9C3A4FEA9C5556
:10E570004FEA9C180AF47F7A05F47F7508F47F78D7
:10E5800051F80AA059F8055052F8088055444FEA4E
:10E590008C0E85EA08080EF47F7ED4F8605F454053
:10E5A00053F80E00404468404FEA903A850D4FEA18
:10E5B000901E0AF47F7A05F47F750EF47F7E51F881
:10E5C0000AA059F8055052F80EE055444FEA800869
:10E5D00008F47F7885EA0E0ED4F8645F8CEA050CA7
:10E5E00053F80850AE448EEA0C0E4FEA9E3A4FEABA
:10E5F0009E554FEA9E1C0AF47F7A05F47F750CF451
:10E600007F7C51F80AA059F8055052F80CC05544C7
:10E610004FEA8E0808F47F7885EA0C0CD4F8685F1E
:10E62000684053F80850AC448CEA000C4FEA9C3A1E
:10E630004FEA9C504FEA9C150AF47F7A00F47F70F1
:10E6400005F47F7551F80AA059F800005559504457
:10E650004FEA8C0808F47F784540D4F86C0F8EEAB6
:10E66000000E53F80800054485EA0E054FEA953A76
:10E67000A80D4FEA951E0AF47F7A00F47F700EF41D
:10E680007F7E51F80AA059F8000052F80EE050447D
:10E690004FEA850808F47F7880EA0E0ED4F8700FF0
:10E6A0008CEA000C53F8080086448EEA0C0E4FEA00
:10E6B0009E3A4FEA9E504FEA9E1C0AF47F7A00F47D
:10E6C0007F700CF47F7C51F80AA059F8000052F8D2
:10E6D0000CC050444FEA8E0808F47F7880EA0C0C96
:10E6E000D4F8740F454053F8080084448CEA050CB4
:10E6F0004FEA9C3A4FEA9C504FEA9C150AF47F7A05
:10E7000000F47F7005F47F7551F80AA059F80000F5
:10E71000555950444FEA8C0808F47F784540D4F8A6
:10E72000780F8EEA000E53F80800054485EA0E05BE
:10E730004FEA953AA80D4FEA951E0AF47F7A00F445
:10E740007F700EF47F7E51F80AA059F8000052F84D
:10E750000EE050444FEA850808F47F7880EA0E0EF8
:10E76000D4F87C0F8CEA000C53F8080086448EEA3B
:10E770000C0E4FEA9E3A4FEA9E504FEA9E1C0AF456
:10E780007F7A00F47F700CF47F7C51F80AA059F86E
:10E79000000052F80CC050444FEA8E0808F47F780D
:10E7A00080EA0C0CD4F8800F454053F808008444EC
:10E7B0008CEA050C4FEA9C3A4FEA9C504FEA9C15B4
:10E7C0000AF47F7A00F47F7005F47F7551F80AA08F
:10E7D00059F80000555950444FEA8C0808F47F78E6
:10E7E0004540D4F8840F8EEA000E53F80800054423
:10E7F00085EA0E054FEA953AA80D4FEA951E0AF4F0
:10E800007F7A00F47F700EF47F7E51F80AA059F8E9
:10E81000000052F80EE050444FEA850808F47F7873
:10E8200080EA0E0ED4F8880F8CEA000C53F808002A
:10E8300086448EEA0C0E4FEA9E3A4FEA9E504FEA0B
:10E840009E1C0AF47F7A00F47F700CF47F7C51F8F0
:10E850000AA059F8000052F80CC050444FEA8E0844
:10E8600008F47F7880EA0C0CD4F88C0F454053F8FC
:10E87000080084448CEA050C4FEA9C3A4FEA9C500D
:10E880004FEA9C150AF47F7A00F47F7005F47F75D7
:10E8900051F80AA059F80000555950444FEA8C0825
:10E8A00008F47F784540D4F8900F8EEA000E53F8B4
:10E8B0000800054485EA0E054FEA9538A80D08F4CE
:10E8C0007F7800F47F704FEA951A51F8088059F864
:10E8D00000000AF47F7A404452F80A804FEA850E1D
:10E8E0000EF47F7E80EA0808D4F8940F8CEA000CBE
:10E8F00053F80E00804488EA0C084FEA983A4FEA31
:10E9000098504FEA981E0AF47F7A00F47F700EF454
:10E910007F7E51F80AA059F8000052F80EE04FEA45
:10E92000880C504480EA0E0E0CF47F7CD4F8980FCB
:10E93000454053F80C008644D4F89C0F02368EEA0A
:10E94000050E88EA0008122EC7E9008E07F10807B5
:10E950007FF4D6AD4FF4807CCDF808900DEB0C031E
:10E9600048460DF658420DF658010DF58B64D3F864
:10E97000587FD3F8F06F7E4086EA080A4FEA9A3B48
:10E980004FEA9A560BF47F7B06F47F764FEA9A178C
:10E99000865954F80BB007F47F77B344CE59D3F8B7
:10E9A000F47F4FEA8A0808F47F788BEA060BD3F8E5
:10E9B0005C6F7E4052F80870BB4486EA0B0686EA1C
:10E9C0000E084FEA983E4FEA98564FEA98170EF411
:10E9D0007F7E06F47F7607F47F7754F80EE0865941
:10E9E000CF594FEA880B0BF47F7B764486EA070EFB
:10E9F00052F80B60D3F8607FB6448AEA070A8EEAC1
:10EA00000A0E4FEA9E3B4FEA9E564FEA9E170BF4C2
:10EA10007F7B06F47F7607F47F7754F80BB0865936
:10EA2000CF594FEA8E0A5E4486EA070B0AF47F7AD2
:10EA3000D3F8647F88EA070852F80A705F4487EACF
:10EA400008074FEA973BBE0D4FEA97180BF47F7B00
:10EA500006F47F7608F47F7854F80BB0865951F8A5
:10EA600008805E444FEA870A0AF47F7A86EA08083B
:10EA7000D3F8686F8EEA060E52F80A60B04488EA4E
:10EA80000E084FEA983B4FEA98564FEA981E0BF44F
:10EA90007F7B06F47F760EF47F7E54F80BB08659A8
:10EAA00051F80EE05E444FEA880A0AF47F7A86EA5B
:10EAB0000E0ED3F86C6F774052F80A60B6448EEAB7
:10EAC000070E4FEA9E3B4FEA9E564FEA9E170BF405
:10EAD0007F7B06F47F7607F47F7754F80BB0865976
:10EAE000CF595E444FEA8E0A0AF47F7A7740D3F812
:10EAF000706F88EA060852F80A60374487EA080708
:10EB00004FEA973BBE0D4FEA97180BF47F7B06F454
:10EB10007F7608F47F7854F80BB0865951F8088056
:10EB20005E444FEA870A0AF47F7A86EA0808D3F837
:10EB3000746F8EEA060E52F80A60B04488EA0E0836
:10EB40004FEA983B4FEA98564FEA981E0BF47F7BAA
:10EB500006F47F760EF47F7E54F80BB0865951F898
:10EB60000EE05E444FEA880A0AF47F7A86EA0E0EC7
:10EB7000D3F8786F774052F80A60B6448EEA070EF1
:10EB80004FEA9E3B4FEA9E564FEA9E170BF47F7B5F
:10EB900006F47F7607F47F7754F80BB08659CF5987
:10EBA0005E444FEA8E0A0AF47F7A7740D3F87C6F8E
:10EBB00088EA060852F80A60374487EA08074FEAED
:10EBC000973BBE0D4FEA97180BF47F7B06F47F76D8
:10EBD00008F47F7854F80BB0865951F808805E44E9
:10EBE0004FEA870A0AF47F7A86EA0808D3F8806F2A
:10EBF0008EEA060E52F80A60B04488EA0E084FEA20
:10EC0000983B4FEA98564FEA981E0BF47F7B06F428
:10EC10007F760EF47F7E54F80BB0865951F80EE0E3
:10EC20005E444FEA880A0AF47F7A86EA0E0ED3F829
:10EC3000846F774052F80A60B6448EEA070E4FEAB6
:10EC40009E3B4FEA9E564FEA9E170BF47F7B06F4DD
:10EC50007F7607F47F7754F80BB08659CF595E441E
:10EC60004FEA8E0A0AF47F7A7740D3F8886F88EAF1
:10EC7000060852F80A60374487EA08074FEA973BCC
:10EC8000BE0D4FEA97180BF47F7B06F47F7608F4ED
:10EC90007F7854F80BB0865951F808805E444FEAEB
:10ECA000870A0AF47F7A86EA0808D3F88C6F8EEA1E
:10ECB000060E52F80A60B04488EA0E084FEA983B04
:10ECC0004FEA98564FEA981E0BF47F7B06F47F7646
:10ECD0000EF47F7E54F80BB0865951F80EE05E4476
:10ECE0004FEA880A0AF47F7A86EA0E0ED3F8906F0C
:10ECF000774052F80A60B6448EEA070E4FEA9E3B10
:10ED00004FEA9E564FEA9E170BF47F7B06F47F7600
:10ED100007F47F7754F80BB08659CF595E444FEA19
:10ED20008E0A0AF47F7A7740D3F8946F88EA06084F
:10ED300052F80A60374487EA08074FEA973BBE0D4E
:10ED40004FEA97180BF47F7B06F47F7608F47F7800
:10ED500054F80BB0865951F808805E444FEA870A90
:10ED60000AF47F7A86EA0808D3F8986F8EEA060ECE
:10ED700052F80A60B044D3F89C6F87EA0605029EF9
:10ED800046F8105B88EA0E0846F80C8CD3F8587FDA
:10ED90000296D3F8E86F7E406E404FEA963EB70D7C
:10EDA0000EF47F7E07F47F774FEA961BC75954F81D
:10EDB0000EE0D3F85C5F0BF47F7BBE4451F80B7020
:10EDC0004FEA860A8EEA070ED3F8EC7F0AF47F7AC0
:10EDD0006F4087EA080752F80A80C6448EEA070E99
:10EDE0004FEA9E3B4FEA9E574FEA9E1A0BF47F7BF9
:10EDF00007F47F770AF47F7A54F80BB0C75951F8BB
:10EE00000AA05F444FEA8E0887EA0A0A08F47F786E
:10EE1000D3F8607F7E4052F80870574477404FEA3D
:10EE2000973BBE0D4FEA971A0BF47F7B06F47F7673
:10EE30000AF47F7A54F80BB0865951F80AA05E4460
:10EE40004FEA870886EA0A0A08F47F78D3F8646FE5
:10EE50008EEA060652F808E0D6448EEA060E4FEA1D
:10EE60009E3B4FEA9E564FEA9E1A0BF47F7B06F4B8
:10EE70007F760AF47F7A54F80BB0865951F80AA0CD
:10EE80005E444FEA8E0808F47F7886EA0A0AD3F8CF
:10EE9000686F774052F80860B2448AEA070A4FEA7E
:10EEA0009A3B4FEA9A564FEA9A170BF47F7B06F487
:10EEB0007F7607F47F7754F80BB08659CF595E44BC
:10EEC0004FEA8A0808F47F787740D3F86C6F8EEAAF
:10EED000060E52F80860374487EA0E074FEA973B60
:10EEE000BE0D4FEA97180BF47F7B06F47F7608F48B
:10EEF0007F7854F80BB0865951F808805E444FEA89
:10EF0000870E0EF47F7E86EA0808D3F8706F8AEACF
:10EF1000060A52F80E60B04488EA0A084FEA983BA5
:10EF20004FEA98564FEA981E0BF47F7B06F47F76E3
:10EF30000EF47F7E54F80BB0865951F80EE05E4413
:10EF40004FEA880A0AF47F7A86EA0E0ED3F8746FC5
:10EF5000774052F80A60B6448EEA070E4FEA9E3BAD
:10EF60004FEA9E564FEA9E170BF47F7B06F47F769E
:10EF700007F47F7754F80BB08659CF595E444FEAB7
:10EF80008E0A0AF47F7A7740D3F8786F88EA060809
:10EF900052F80A60374487EA08074FEA973BBE0DEC
:10EFA0004FEA97180BF47F7B06F47F7608F47F789E
:10EFB00054F80BB0865951F808805E444FEA870A2E
:10EFC0000AF47F7A86EA0808D3F87C6F8EEA060E88
:10EFD00052F80A60B04488EA0E084FEA983B4FEABC
:10EFE00098564FEA981E0BF47F7B06F47F760EF45A
:10EFF0007F7E54F80BB0865951F80EE05E444FEA1C
:10F00000880A0AF47F7A86EA0E0ED3F8806F77407A
:10F0100052F80A60B6448EEA070E4FEA9E3B4FEA6A
:10F020009E564FEA9E170BF47F7B06F47F7607F41B
:10F030007F7754F80BB08659CF595E444FEA8E0A59
:10F040000AF47F7A7740D3F8846F88EA060852F88A
:10F050000A60374487EA08074FEA973BBE0D4FEA3C
:10F0600097180BF47F7B06F47F7608F47F7854F8CA
:10F070000BB0865951F808805E444FEA870A0AF4BB
:10F080007F7A86EA0808D3F8886F8EEA060E52F86F
:10F090000A60B04488EA0E084FEA983B4FEA985657
:10F0A0004FEA981E0BF47F7B06F47F760EF47F7E8A
:10F0B00054F80BB0865951F80EE05E444FEA880AC6
:10F0C0000AF47F7A86EA0E0ED3F88C6F774052F8F6
:10F0D0000A60B6448EEA070E4FEA9E3B4FEA9E5600
:10F0E0004FEA9E170BF47F7B06F47F7607F47F7759
:10F0F00054F80BB08659CF595E444FEA8E0A0AF491
:10F100007F7A7740D3F8906F88EA060852F80A6051
:10F11000029D374487EA08074FEA9738BE0D08F486
:10F120007F7806F47F764FEA971B54F8088086595B
:10F130000BF47F7B464451F80B804FEA870A0AF4B0
:10F140007F7A86EA0808D3F8946F8EEA060E52F8A2
:10F150000A60B04488EA0E084FEA983B4FEA985696
:10F160004FEA981E0BF47F7B06F47F760EF47F7EC9
:10F1700054F80BB0865951F80EE04FEA880A5E4405
:10F1800086EA0E0E0AF47F7AD3F8986F774052F829
:10F190000A60B644D3F89C6F8EEA070E88EA060828
:10F1A000BCF1010C45E9028E7FF4E1AB40AB0DF6FA
:10F1B00058420DF65801049D00262868AC6C60404A
:10F1C0002860EC6C686802366040122E686005F1B9
:10F1D0000805F2D14FF0020C0DF58B6000240DF5FF
:10F1E0008257264609251837D3F858EF86EA0E0EBF
:10F1F0004FEA9E3B4FEA9E580DF158094FEA9E1A7E
:10F200000BF47F7B08F47F784FEA8E060AF47F7A4E
:10F2100050F80BB059F8088051F80AA006F47F7630
:10F22000D844965988EA0A0808EB060AD3F85C6FB6
:10F230008AEA060666404FEA963BB40D4FEA961AF4
:10F240000BF47F7B04F47F740AF47F7A50F80BB0E0
:10F2500059F8044051F80AA05C444FEA860808F4C3
:10F260007F7884EA0A0AD3F8604F8EEA040E52F8D7
:10F270000840A2448AEA0E0E4FEA9E3B4FEA9E5493
:10F280004FEA9E1A0BF47F7B04F47F740AF47F7AB2
:10F2900050F80BB059F8044051F80AA05C444FEA0A
:10F2A0008E0808F47F7884EA0A0AD3F8644F66402F
:10F2B00052F80840A2448AEA060A4FEA9A3B4FEA0B
:10F2C0009A544FEA9A160BF47F7B04F47F7406F489
:10F2D0007F7650F80BB059F804408E595C444FEAE1
:10F2E0008A0808F47F786640D3F8684F8EEA040EE7
:10F2F00052F80840264486EA0E064FEA963BB40DC3
:10F300004FEA96180BF47F7B04F47F7408F47F783F
:10F3100050F80BB059F8044051F808805C444FEAAB
:10F32000860E0EF47F7E84EA0808D3F86C4F8AEAD2
:10F33000040A52F80E40A04488EA0A084FEA983BB3
:10F340004FEA98544FEA981E0BF47F7B04F47F74C5
:10F350000EF47F7E50F80BB059F8044051F80EE0DF
:10F360005C444FEA880A0AF47F7A84EA0E0ED3F8E6
:10F37000704F664052F80A40A6448EEA060E4FEAE5
:10F380009E3B4FEA9E544FEA9E160BF47F7B04F49B
:10F390007F7406F47F7650F80BB059F804408E590C
:10F3A0005C444FEA8E0A0AF47F7A6640D3F8744FC1
:10F3B00088EA040852F80A40264486EA08064FEA1A
:10F3C000963BB40D4FEA96180BF47F7B04F47F74E0
:10F3D00008F47F7850F80BB059F8044051F80880D1
:10F3E0005C444FEA860A0AF47F7A84EA0808D3F874
:10F3F000784F8EEA040E52F80A40A04488EA0E08BC
:10F400004FEA983B4FEA98544FEA981E0BF47F7BE3
:10F4100004F47F740EF47F7E50F80BB059F804406A
:10F4200051F80EE05C444FEA880A0AF47F7A84EAD5
:10F430000E0ED3F87C4F664052F80A40A6448EEA7E
:10F44000060E4FEA9E3B4FEA9E544FEA9E160BF47F
:10F450007F7B04F47F7406F47F7650F80BB059F884
:10F4600004408E595C444FEA8E0A0AF47F7A664063
:10F47000D3F8804F88EA040852F80A40264486EA06
:10F4800008064FEA963BB40D4FEA96180BF47F7BC3
:10F4900004F47F7408F47F7850F80BB059F80440F6
:10F4A00051F808805C444FEA860A0AF47F7A84EABD
:10F4B0000808D3F8844F8EEA040E52F80A40A0449C
:10F4C00088EA0E084FEA983B4FEA98544FEA981E94
:10F4D0000BF47F7B04F47F740EF47F7E50F80BB046
:10F4E00059F8044051F80EE05C444FEA880A0AF4E7
:10F4F0007F7A84EA0E0ED3F8884F664052F80A40AD
:10F50000A6448EEA060E4FEA9E3B4FEA9E544FEA0F
:10F510009E160BF47F7B04F47F7406F47F7650F81C
:10F520000BB059F804408E595C444FEA8E0A0AF435
:10F530007F7A6640D3F88C4F88EA040852F80A4074
:10F54000264486EA08064FEA963BB40D4FEA961821
:10F550000BF47F7B04F47F7408F47F7850F80BB0D1
:10F5600059F8044051F808805C444FEA860A0AF4CE
:10F570007F7A84EA0808D3F8904F8EEA040E52F896
:10F580000A40A04488EA0E084FEA983E4FEA985491
:10F590000EF47F7E04F47F744FEA981B50F80EE05F
:10F5A00059F804400BF47F7B744451F80BE04FEAA8
:10F5B000880A0AF47F7A84EA0E0ED3F8944F6640E4
:10F5C00052F80A40A6448EEA060E4FEA9E3B4FEAE6
:10F5D0009E540BF47F7B04F47F744FEA9E1659F817
:10F5E000044050F80BB006F47F764FEA8E0AA3442D
:10F5F0000AF47F7A8C59D3F8986F88EA060852F893
:10F600000A608BEA04043444D3F89C6F8EEA060641
:10F6100047F8086B84EA0804013D47F8044C7FF47E
:10F62000E3AD4FF400754F46D3F858EF86EA0E0E5F
:10F630004FEA9E3B4FEA9E580DF158094FEA9E1A39
:10F640000BF47F7B08F47F784FEA8E060AF47F7A0A
:10F6500050F80BB059F8088051F80AA006F47F76EC
:10F66000D844965988EA0A0808EB060AD3F85C6F72
:10F670008AEA060666404FEA963BB40D4FEA961AB0
:10F680000BF47F7B04F47F740AF47F7A50F80BB09C
:10F6900059F8044051F80AA05C444FEA860808F47F
:10F6A0007F7884EA0A0AD3F8604F8EEA040E52F893
:10F6B0000840A2448AEA0E0E4FEA9E3B4FEA9E544F
:10F6C0004FEA9E1A0BF47F7B04F47F740AF47F7A6E
:10F6D00050F80BB059F8044051F80AA05C444FEAC6
:10F6E0008E0808F47F7884EA0A0AD3F8644F6640EB
:10F6F00052F80840A2448AEA060A4FEA9A3B4FEAC7
:10F700009A544FEA9A160BF47F7B04F47F7406F444
:10F710007F7650F80BB059F804408E595C444FEA9C
:10F720008A0808F47F786640D3F8684F8EEA040EA2
:10F7300052F80840264486EA0E064FEA963BB40D7E
:10F740004FEA96180BF47F7B04F47F7408F47F78FB
:10F7500050F80BB059F8044051F808805C444FEA67
:10F76000860E0EF47F7E84EA0808D3F86C4F8AEA8E
:10F77000040A52F80E40A04488EA0A084FEA983B6F
:10F780004FEA98544FEA981E0BF47F7B04F47F7481
:10F790000EF47F7E50F80BB059F8044051F80EE09B
:10F7A0005C444FEA880A0AF47F7A84EA0E0ED3F8A2
:10F7B000704F664052F80A40A6448EEA060E4FEAA1
:10F7C0009E3B4FEA9E544FEA9E160BF47F7B04F457
:10F7D0007F7406F47F7650F80BB059F804408E59C8
:10F7E0005C444FEA8E0A0AF47F7A6640D3F8744F7D
:10F7F00088EA040852F80A40264486EA08064FEAD6
:10F80000963BB40D4FEA96180BF47F7B04F47F749B
:10F8100008F47F7850F80BB059F8044051F808808C
:10F820005C444FEA860A0AF47F7A84EA0808D3F82F
:10F83000784F8EEA040E52F80A40A04488EA0E0877
:10F840004FEA983B4FEA98544FEA981E0BF47F7B9F
:10F8500004F47F740EF47F7E50F80BB059F8044026
:10F8600051F80EE05C444FEA880A0AF47F7A84EA91
:10F870000E0ED3F87C4F664052F80A40A6448EEA3A
:10F88000060E4FEA9E3B4FEA9E544FEA9E160BF43B
:10F890007F7B04F47F7406F47F7650F80BB059F840
:10F8A00004408E595C444FEA8E0A0AF47F7A66401F
:10F8B000D3F8804F88EA040852F80A40264486EAC2
:10F8C00008064FEA963BB40D4FEA96180BF47F7B7F
:10F8D00004F47F7408F47F7850F80BB059F80440B2
:10F8E00051F808805C444FEA860A0AF47F7A84EA79
:10F8F0000808D3F8844F8EEA040E52F80A40A04458
:10F9000088EA0E084FEA983B4FEA98544FEA981E4F
:10F910000BF47F7B04F47F740EF47F7E50F80BB001
:10F9200059F8044051F80EE05C444FEA880A0AF4A2
:10F930007F7A84EA0E0ED3F8884F664052F80A4068
:10F94000A6448EEA060E4FEA9E3B4FEA9E544FEACB
:10F950009E160BF47F7B04F47F7406F47F7650F8D8
:10F960000BB059F804408E595C444FEA8E0A0AF4F1
:10F970007F7A6640D3F88C4F88EA040852F80A4030
:10F98000264486EA08064FEA963BB40D4FEA9618DD
:10F990000BF47F7B04F47F7408F47F7850F80BB08D
:10F9A00059F8044051F808805C444FEA860A0AF48A
:10F9B0007F7A84EA0808D3F8904F8EEA040E52F852
:10F9C0000A40A04488EA0E084FEA983E4FEA98544D
:10F9D0000EF47F7E04F47F744FEA981B50F80EE01B
:10F9E00059F804400BF47F7B744451F80BE04FEA64
:10F9F000880A0AF47F7A84EA0E0ED3F8944F6640A0
:10FA000052F80A40A6448EEA060E4FEA9E3B4FEAA1
:10FA10009E540BF47F7B04F47F744FEA9E1659F8D2
:10FA2000044050F80BB006F47F764FEA8E0AA344E8
:10FA30000AF47F7A8C59D3F8986F88EA060852F84E
:10FA40000A608BEA04043444D3F89C6F8EEA0606FD
:10FA500047F8086B84EA0804013D47F8044C7FF43A
:10FA6000E3ADBCF1010F4DD0D3F8E8CFD3F8EC7F74
:10FA7000D3F8F08FD3F8F4EF049C266886EA0C06DE
:10FA8000266066687E406660A66886EA0806A6600C
:10FA9000E668043586EA0E06102DE66004F11004CF
:10FAA000EBD1D3F8984F84EA0C04C3F8984FD3F8FD
:10FAB0009C4F7C40C3F89C4F4FF0010CFFF78EBB6E
:10FAC00013F8021C20395F293EF6B7AC475C3F2F84
:10FAD0003EF6B3ACB90841EA0C1102F8021C13F867
:10FAE000011C20395F293EF6A8AC415C3F293EF657
:10FAF000A4AC41EA871102F8011C013E0433033231
:10FB0000FEF7B7BC0598013805907FF454ABD3F8E5
:10FB1000582F0292D3F85C2F0492D3F8602F0592ED
:10FB2000D3F8642F0692D3F8682F0792D3F86C2F7E
:10FB30000892D3F8702F0992D3F8742F0A92D3F851
:10FB4000782F0B92D3F87C2F0C92D3F8802F0D9244
:10FB5000D3F8842F0E92D3F8882F0F92D3F88C2FDE
:10FB60001092D3F8902F11920D4ED3F8942F129239
:10FB70000DF58657D3F8982FD3F89C3F139218377A
:10FB80001493103706F1180E0DF658420DF6580171
:10FB90000DF58B60D6E900354FF0400C02E000BF58
:10FBA000AC3E0210029C63404FEA933B9C0D0DF16A
:10FBB00058094FEA931A0BF47F7B04F47F740AF41C
:10FBC0007F7A50F80BB059F8044051F80AA04FEA78
:10FBD000830808F47F785C4484EA0A0A52F80840F3
:10FBE000A244049C8AEA04046C40A5004FEA943BBA
:10FBF0004FEA945805F47F7515954FEA941A059DC0
:10FC00000BF47F7B08F47F780AF47F7A50F80BB00E
:10FC100059F8088051F80AA06B40159DD8445559F1
:10FC200088EA0A0AAA448AEA03039D004FEA933B42
:10FC30004FEA935805F47F7515954FEA931A069D80
:10FC40000BF47F7B08F47F780AF47F7A50F80BB0CE
:10FC500059F8088051F80AA06C40159DD8445559B0
:10FC600088EA0A0AAA448AEA04084FEA983B4FEA5B
:10FC700098554FEA981A0BF47F7B05F47F750AF4C8
:10FC80007F7A50F80BB059F8055051F80AA05D443E
:10FC90004FEA880404F47F7485EA0A0A079D6B40E2
:10FCA0001559AA448AEA03054FEA953BAC0D4FEA81
:10FCB000951A0BF47F7B04F47F740AF47F7A50F872
:10FCC0000BB059F8044051F80AA05C44AB0003F4AF
:10FCD0007F7384EA0A0A089C84EA0808D458A2447C
:10FCE0008AEA08044FEA943BA30D4FEA941A0BF4F6
:10FCF0007F7B03F47F730AF47F7A50F80BB059F8D6
:10FD0000033051F80AA05B444FEA840808F47F7876
:10FD100083EA0A0A099B5D4052F808309A448AEA4D
:10FD200005034FEA933B9D0D4FEA931A0BF47F7B3B
:10FD300005F47F750AF47F7A50F80BB059F8055036
:10FD400051F80AA05D444FEA830808F47F7885EAF9
:10FD50000A0A0A9D6C4052F80850AA448AEA04052F
:10FD60004FEA953BAC0D4FEA951A0BF47F7B04F4F8
:10FD70007F740AF47F7A50F80BB059F8044051F8B8
:10FD80000AA05C444FEA850808F47F7884EA0A0AEE
:10FD90000B9C634052F80840A2448AEA03044FEAED
:10FDA000943BA30D4FEA941A0BF47F7B03F47F730B
:10FDB0000AF47F7A50F80BB059F8033051F80AA0D2
:10FDC0005B444FEA840808F47F7883EA0A0A0C9BB4
:10FDD0005D4052F808309A448AEA05034FEA933BA3
:10FDE0009D0D4FEA931A0BF47F7B05F47F750AF49F
:10FDF0007F7A50F80BB059F8055051F80AA05D44CD
:10FE00004FEA830808F47F7885EA0A0A0D9D6C4062
:10FE100052F80850AA448AEA04054FEA953BAC0D13
:10FE20004FEA951A0BF47F7B04F47F740AF47F7A0F
:10FE300050F80BB059F8044051F80AA05C444FEA5E
:10FE4000850808F47F7884EA0A0A0E9C634052F819
:10FE50000840A2448AEA03044FEA943BA30D4FEA08
:10FE6000941A0BF47F7B03F47F730AF47F7A50F8C3
:10FE70000BB059F8033051F80AA05B444FEA8408EC
:10FE800008F47F7883EA0A0A0F9B5D4052F8083035
:10FE90009A448AEA05034FEA933B9D0D4FEA931A71
:10FEA0000BF47F7B05F47F750AF47F7A50F80BB072
:10FEB00059F8055051F80AA05D444FEA830808F448
:10FEC0007F7885EA0A0A109D6C4052F80850AA44CF
:10FED0008AEA04054FEA953BAC0D4FEA951A0BF4FC
:10FEE0007F7B04F47F740AF47F7A50F80BB059F8E2
:10FEF000044051F80AA05C444FEA850808F47F7872
:10FF000084EA0A0A119C634052F80840A2448AEA33
:10FF100003044FEA943BA30D4FEA941A0BF47F7B42
:10FF200003F47F730AF47F7A50F80BB059F803306A
:10FF300051F80AA05B444FEA840808F47F7883EA0A
:10FF40000A0A129B5D4052F808309A448AEA050377
:10FF50004FEA933B9D0D4FEA931A0BF47F7B05F418
:10FF60007F750AF47F7A50F80BB059F8055051F8B4
:10FF70000AA04FEA83085D4485EA0A0A08F47F78FC
:10FF8000139D6C4052F80850AA448AEA0405149C58
:10FF9000BCF1010C83EA04037FF404AE0836B645D5
:10FFA000C7E9003507F108077FF4F4AD019B039A18
:10FFB00019461C3153F8040B42F8040B8B42F9D15B
:10FFC000019B1A7F0F4B13440F4A13F8203C03F098
:10FFD00030030DF58654D35C039A1834103413772C
:10FFE00006212046FEF7DCF9039B172203F11D00D2
:10FFF0002146FEF74FF9039A002382F83C30FEF7C2
:020000041001E9
:10000000E9B900BFC22D0210222E0210022A10DD13
:100010002A230B7030234B7000238B7003782A2B1C
:1000200002D14378302B01D00020704731234B7030
:10003000FAE74FF0FF3070472DE9F04F0D461746B5
:10004000E5B01A460446394628469846FFF7DEFFD3
:1000500010233A460093294643462046FEF7AAF964
:10006000064609F023FE036803933F4B4CAA03F1B5
:10007000180C934618685968144603C4083363453E
:100080002246F7D118689B882060A380002E58D0A4
:10009000AA78364B36498DF83221134413F8613C67
:1000A00003F0010351F823A00DF5A7793E22552155
:1000B000484609F0C3FC012300932E4800243D2349
:1000C0004A4659468DF88C41FEF774F981450DD1A9
:1000D0001D22594609F094FB40B9222251460DF2E7
:1000E0006B1009F08DFBB0FA80F4640922480223FA
:1000F00016AA04A9FEF700F904233AAA28A9FEF7D4
:10010000FBF8169B83F480321692ECB11B4A9342A3
:100110001AD11B4B399A9A4216D1482228A904A811
:1001200009F06EFB80B948223AA916A809F068FBCD
:1001300050B909F0BBFD039B0360304665B0BDE8D4
:10014000F08FDFF840A0AFE709F0B0FD039B03603C
:10015000424639462846FFF759FF09F0A7FD162306
:1001600003600026E9E700BF822D0210A82D0210CF
:10017000A02D02106C2D0210762D0210BC599DDBB3
:1001800000353433C43E0210FFF756BF08B503F004
:1001900067FD024A13680133136008BD1C0C002080
:1001A0002DE9F04186B005460E4690461F4600F008
:1001B00051F8044698B936238DF81100CDE901387D
:1001C00003978DF8106001A86DB100F07BF8094B22
:1001D0001A68002AFCD000221A6000F04FF820466E
:1001E00006B0BDE8F08100F061F80028F5D00446C3
:1001F000F5E700BF1C0C00202DE9F04186B0054654
:100200000F461646984600F025F80446A8B936234E
:10021000CDE901380C9B03938DF810708DF81160B7
:1002200001A875B100F054F878B9094B1A68002A92
:10023000FCD000221A6000F021F8204606B0BDE88C
:10024000F08100F039F80028F5D00446F5E700BF4A
:100250001C0C002008B52F2003F036FC222003F0F0
:1002600033FCBDE80840014800F054B80074004079
:10027000014800F047B800BF0074004010B50448C2
:1002800000F077F804462F2003F0FEFB204610BD57
:1002900000740040014800F07AB800BF00740040CC
:1002A0000146014800F07EB8007400400146014854
:1002B00000F0F9B8007400400146014800F0F5B8BC
:1002C000007400400146014800F0EEB9007400409F
:1002D0000146014800F0EBB9007400400A460146AF
:1002E000014800F0E7B900BF00780040131F184430
:1002F0000439121A51F8043F1BBA40F80439D042AD
:10030000F8D17047436813F0010F14BF6FF0050078
:100310000020704708B50023024603601046FFF72F
:10032000F1FF0028FAD1136843F00103136008BD00
:1003300038B505460C46FFF79BFF0028FBD12B681C
:100340001C432C6038BD10B50446FFF791FF002810
:10035000FBD1236843F01003236010BD10B50446A1
:10036000FFF786FF0028FBD1236843F020032360BA
:1003700010BD10B50446FFF7E6FF2046FFF7EEFF7D
:100380002046FFF7BFFF0028FAD1206010BD10B54E
:100390000446FFF76DFF0028FBD1236843F00803F4
:1003A000236010BDF8B504460D46002975D04B6892
:1003B000002B72D08B68002B6FD00E68002E6FD090
:1003C000FFF7C1FF2046FFF7C9FF297B2046FFF753
:1003D000AFFFFFF74DFF0028FBD16B7B22681B02AC
:1003E00003F4407322F4407213432360F31C062B82
:1003F00026D8B20723D04FEA860C6B6861460022EC
:10040000B24244DB63446B6000230136042E236157
:10041000FBD1A368DB07FCD5A36843F00103A3600D
:100420002269AB6812BADA60226912BA9A6022694C
:1004300012BA5A60226912BA43F8102BAB60F8BDA9
:100440006B68DA6812BA22619A6812BA22615A6835
:1004500012BA226153F8102B12BA22616B60A368A2
:10046000D907FCD5A36843F00103A3602269AB68F8
:1004700012BADA60226912BA9A60226912BA5A6014
:10048000226912BA43F8102B043EAB60AEE7043980
:1004900001325F583FBA2761B2E74FF0FF30CEE735
:1004A0006FF00200CBE7FFF77DBFFFF77BBF0000D7
:1004B00070B50D468CB00646002836D0002937D0DE
:1004C00003F098FB03F0AAFB1B4B1C4998701B78A8
:1004D00009960122C4B2CDE90512012B4FF00002AA
:1004E000CDE9072404941ED0042DA8BF04250B9544
:1004F0000CAB13E90F008DE80F0004AB0FCB03F03A
:1005000095FB0F49204603F09CFB204603F0A0FB1F
:10051000204603F0A3FB01220021204603F093FBB9
:1005200000200CB070BD0425E1E74FF0FF30F8E784
:100530006FF00200F5E700BF200C0020000302026C
:10054000D505011070B50D468CB00646002834D094
:10055000002935D003F04EFB03F060FB1A4B1B491A
:10056000587000221B780A96C4B2CDE90512012208
:10057000CDE907240494F3B1042DA8BF04250B95FD
:100580000CAB13E90F008DE80F0004AB0FCB03F0A9
:100590004DFB0F49204603F054FB204603F058FB67
:1005A000204603F05BFB01220021204603F04BFBB9
:1005B00000200CB070BD0425E1E74FF0FF30F8E7F4
:1005C0006FF00200F5E700BF200C002000010202DE
:1005D000D505011010B5034629BB134CA278824201
:1005E0000CD103F021FB6368032B01D8FFF752FE07
:1005F0006168E068BDE81040FFF7A4BF60788342FF
:1006000011D16368042B0AD9043B636003F00CFB2F
:10061000616841B1A068BDE81040FFF749BF002BF9
:10062000F4D06160F2E710BD200C002070B50546E3
:1006300016460C46002932D04B68002B2FD08B6811
:100640006BB30B6813B96FF0020070BDFFF77BFE50
:100650002846FFF783FE217B2846FFF769FEFFF758
:1006600007FE637B2A68216860681B0222F44072DF
:1006700003F4407313432B600A4BA2681E70596049
:100680009860DA602B6843F002032B602B6843F01C
:1006900004032B60FFF70CFF0028D6D0D3E74FF000
:1006A000FF30D2E7200C00200022FFF7BFBF01225D
:1006B000FFF7BCBF2AB1402A14BF20221822FFF73F
:1006C00015BE1022FBE7000010B411F0030402D1A4
:1006D000B3EB910F0BD0084B08481B6810BCD968CE
:1006E00008F030BE50F8241042F824100134A34220
:1006F000F8D110BC704700BFE0050020083F021091
:10070000B3EB810FF0B44FEA810512D2F0BC0A4876
:1007100008F0E8B9C758D418002127FA01F60831C3
:10072000202904F8016BF8D104339D42F2D1F0BCCA
:1007300070470023F9E700BF293F0210006800BAA4
:100740007047030E0B70030C4B70030A8B70C8705C
:10075000704710B5431E0139033013F8014F11F8EB
:10076000012F944203D18342F7D1012010BD002014
:10077000FCE710B502F0C8FC02F0C8FC044602F029
:10078000CFFC204610BD000030B585B004461022D5
:100790000021684609F052F96A460948042102F02E
:1007A00061FA04AD6A46631C144603CCAC4218607F
:1007B0005960224603F10803F6D105B030BD00BFF1
:1007C000300C002038B50C460546FFF7D2FF05F186
:1007D0001101FFF7B6FF024621460248BDE8384046
:1007E00001F049B83C0C00202DE9F04F8146C5B01E
:1007F0005048514F14468A4601F03CF84F4805F0E6
:1008000045FA4F4805F042FA4E4805F03FFA3B687A
:10081000986808F0DBFBEA2C11D94B4805F036FA52
:100820004A4805F033FA474805F030FA3B689868C3
:1008300008F0CCFB4FF0FF3045B0BDE8F08F3F48EB
:1008400005F024FA424805F021FA3E4805F01EFA68
:100850003B68986808F0BAFBFFF78BFF04AE804650
:10086000FF220021304609F0E9F822465146304681
:1008700009F026FC314805F009FA364805F006FA79
:10088000304805F003FA3B6804F1080B986808F05B
:100890009DFB584604F030FF5A460546002109F0FA
:1008A000CDF822465146284609F00AFC2A4B1B681F
:1008B0002B512B196A46C3F804805946284602F08A
:1008C000D1F9284604F020FF1C4805F0DFF9234841
:1008D00005F0DCF91B4805F0D9F93B68986808F089
:1008E00075FB0DF1FA056B461A4603CAB242286041
:1008F0006960134605F10805F6D1104886F8FA40FC
:10090000C6F8FB8005F0C2F9154805F0BFF90D489F
:1009100005F0BCF93B68986808F058FB4246494628
:10092000044800F0A8FF3246FF21484600F024FFAB
:1009300082E700BF3C0C0020E0050020533F02107E
:100940005D3F0210853F0210883F0210923F021067
:10095000A33F0210B83F0210300C0020D23F02101B
:10096000F43F02102DE9F04F0D4689B000AF4F4C17
:10097000824600F01AFFD5F8FB902068494600F047
:1009800069FFA0B14A4805F081F94A4805F07EF9AF
:10099000494805F07BF9494B1B68986808F016FB3D
:1009A0004FF0FF3420462437BD46BDE8F08F206865
:1009B000494600F035FF95F8FA4005F1EA033A465A
:1009C00005F1FA0CBB4618685968164603C6083389
:1009D00063453246F7D104F10808404604F08CFE26
:1009E00042460646002109F029F8224629463046AB
:1009F00009F066FB324B1B683351331907F11002C3
:100A0000C3F804904146304602F02CF9304604F019
:100A10007BFE07F110015846FFF79BFE274E50B9A9
:100A2000234805F033F9274808F05CF8224805F020
:100A30002DF93368B1E72448514600F03EFF4845A0
:100A4000EED108F4FC78ADEB080D22462946684645
:100A500009F036FB00230DF804301C4805F016F9A8
:100A60001B4805F013F9144805F010F9336898682D
:100A700008F0ACFA154805F009F96946154805F083
:100A800005F90D4805F002F93368986808F09EFAF8
:100A90000E4805F0FBF8104808F024F8064805F069
:100AA000F5F83368986808F091FA7BE7380C002075
:100AB000883F021022400210853F0210E00500200E
:100AC000300C0020444002103C0C0020533F021028
:100AD0007A4002108D4002109040021038B5154641
:100AE0001A460446FFF780FE431C05D029462046DF
:100AF000BDE83840FFF736BF38BD00002DE9F041B2
:100B00002748284F284EADF5007D05F0BFF827484F
:100B100005F0BCF8264805F0B9F83B68986808F07D
:100B200055FA0025A6F10408D8F80430AB4204D8E1
:100B3000204800F0D5FE00242AE056F8040F00F00B
:100B400019FE1D4B844640AA03F1180E1868596817
:100B5000144603C4083373452246F7D118681B793D
:100B6000206023716A461D2340A96046FFF7B6FF47
:100B7000431C044611D1114805F088F8104807F0CD
:100B8000B1FF0B4805F082F83B68986808F01EFA40
:100B900020460DF5007DBDE8F0810135C4E700BFBA
:100BA000533F0210E0050020480C0020B94002101D
:100BB000853F02103C0C0020D1400210883F0210FB
:100BC000EF40021038B515460A46D9B2044600F087
:100BD000D3FD431C05D029462046BDE8384000F02F
:100BE000E4BD38BD2DE9F04FADF52F7D00AFFFF727
:100BF000C0FDDFF824814949FFF7A3FD00237B6096
:100C0000A8F1040BDBF804307A68934201D8002085
:100C100041E058F8040F00F0ADFD07F13409064635
:100C2000494607F1140002F0A3FBEA4607F114035A
:100C300007F195041A4603CA4A45206061601346CD
:100C400004F10804F6D1062387F8943007F19404E0
:100C50000FCC07F5DC750FC50FCC0FC523682B70C3
:100C600007F1B802212307F5DC713046FFF7AAFF30
:100C7000013015D12A4805F009F82A4807F032FF5B
:100C8000294805F003F8294B1B68986808F09EF97D
:100C90004FF0FF30D54607F52F77BD46BDE8F08F02
:100CA00007F1B8050FCD07F154040FC495E80F0004
:100CB00084E80F00494607F1740007F1540202F07E
:100CC00059FB164C0023FB7307F1740107F1100068
:100CD00011F8015B14F8012B6A40FD7B00F8012B31
:100CE00001336A40042BFA73F2D13A69C7F8B8218C
:100CF00007F5DC7107F1B8023046FFF763FF0130FA
:100D000004D1074804F0C2FF0948B7E77B68013304
:100D1000D5467B6076E700BF480C0020300C0020F1
:100D2000883F021002410210853F0210E0050020BA
:100D30002C41021030B5292085B002F0A5FE3F20DD
:100D400002F0A2FE62B60021684602F0FDFD204CD2
:100D500030B1204804F09AFF0023237005B030BD65
:100D6000012323701C4C1D481D4D04F08FFF02F021
:100D7000F9F81C488822214602F00EF92368AB429C
:100D800019D0194804F082FF184807F0ABFE184844
:100D900004F07CFF174B1B68986808F017F9164B96
:100DA000104825600222C4E901232146013388222C
:100DB000E36002F0F3F800F0DBFC104800F05AFDAD
:100DC0000A2000F017FD0E4B1860FFF70BFFC5E778
:100DD000340C00205A410210440C00208A410210B9
:100DE000EFBEADDE00C00710533F0210B441021049
:100DF000853F0210E0050020241111113C0C002059
:100E0000380C00202DE9F043ADF5337D0DF1440899
:100E10000746414609A802F0ABFA0DF1A50409AB5B
:100E20001A4603CA424520606160134604F1080473
:100E3000F6D105238DF8A43029AC0FCC72AE35461F
:100E40000FC50FCC0FC523682B7032AA2123314662
:100E50003846FFF7B7FE013013D12C4804F016FFD7
:100E60002B4807F03FFE2B4804F010FF2A4B1B686D
:100E7000986808F0ABF84FF0FF300DF5337DBDE812
:100E8000F08332AD0FCD19AC0FC495E80F0001AD62
:100E900084E80F00A9460024FFF76BFC0134102CF6
:100EA00009F8010BF8D100212846FFF717FA19AA13
:100EB000414621A802F05EFA002405A88DF80340FF
:100EC00021AA014612F801CB15F8013B83EA0C0375
:100ED0009DF803C000F8013B013483EA0C03102C99
:100EE0008DF80330EED10FC986E80F00234632AAF1
:100EF00031463846FFF766FE013004D1034804F05E
:100F0000C5FE0648ADE70020B7E700BF883F0210E6
:100F100002410210853F0210E00500202C41021022
:100F20002DE9F04F354EDFF8D8B0DFF8D8A0ADF599
:100F3000017D0024A6F10409D9F80430A34201D8A8
:100F4000002026E0706800F015FC0223054640A84A
:100F50008DF80031FFF718FC294640A8FFF732FC56
:100F6000DBF800306A4640A92846FFF72BFE013027
:100F700013D1254804F08AFE244807F0B3FD244825
:100F800004F084FE234B1B68986808F01FF84FF0AC
:100F9000FF300DF5017DBDE8F08F05A8FFF7CEFB12
:100FA00001460746DAF8000000F054FC01A980462B
:100FB0000DF20110FFF7CDFB0028DAD029461648C4
:100FC00000F07BFCB8420146D3D1B8F1000FD0D17C
:100FD000DAF8000000F024FC009A56F8043F9A4228
:100FE00009D00234084804F051FE59F824100B4887
:100FF00004F04CFEC3E701349EE700BF480C00201C
:1010000000000020380C0020883F0210CF41021061
:10101000853F0210E00500203C0C0020EC4102104E
:101020002DE9F04F3A4DDFF8EC80ADF5057D002756
:10103000A5F1040BDBF80430BB4201D8002028E006
:10104000686800F097FB0323044644A88DF810312C
:10105000FFF79AFB214644A8FFF7B4FB2E4B04AAE6
:101060001B6844A92046FFF7ADFDB0F1FF3F814664
:1010700013D12A4804F00AFE294807F033FD294815
:1010800004F004FED8F80030986807F09FFF4FF096
:10109000FF300DF5057DBDE8F08F03A8DFF888A0CF
:1010A00050F809200260FFF749FB01460646DAF8CE
:1010B000000000F0CFFBA9F1140104AB019019442A
:1010C0000DF21110FFF745FB0028D2D0214617483A
:1010D00000F0F3FBB0420146CBD1019B002BC8D1FD
:1010E000DAF8000000F09CFB114804F0CFFD55F841
:1010F000041F104804AA04F0C9FD0A4804F0C6FD04
:10110000D8F80030986807F061FF013792E700BF18
:10111000480C0020E005002000000020883F02105D
:101120005A420210853F0210380C00203C0C00206F
:101130002C420210734202102DE9F047ADF5327DCA
:1011400002AF054600F016FB0446FFF75BFE0423E2
:1011500007F5E07087F8C031FFF716FB214607F569
:10116000E070FFF72FFBE0220021384608F066FC14
:10117000464B3A461B6807F5E0712046FFF722FD13
:10118000431C15D1424804F081FD424807F0AAFCF7
:10119000414804F07BFD414B1B68986807F016FF3F
:1011A0004FF0FF38404607F53077BD46BDE8F08781
:1011B00020F00304073424F00704ADEB040D860887
:1011C0000DF1080832460021404608F037FC33464E
:1011D0004246E0213846FFF777FAADEB040D0DF1FA
:1011E000080A32460021504608F028FC3822002127
:1011F00007F1E00008F022FCADEB040D002102AB8A
:1012000007F1E0020846FEF7CBFF0021B400434699
:10121000CDF800A002220846FEF7EEFFE31D23F002
:101220000703ADEB030D0DF10809224600218046AE
:10123000484608F003FC23464A46314650464C4493
:10124000FFF75EFA002304F8013CB8F1000FA7D1C4
:101250001348124C04F01AFD2946124804F016FDFA
:101260000D4804F013FD2368986807F0AFFE0C48A2
:1012700004F00CFD49460C4804F008FD064804F053
:1012800005FD2368986807F0A1FE8BE700000020A9
:10129000883F02107E420210853F0210E0050020C8
:1012A0002C420210994202108D40021008B5134CD6
:1012B000002002F0F7F8204602F0ECFA012002F0DC
:1012C000F1F8204602F0E6FA022002F0EBF82046A0
:1012D00002F0E0FA002002F0EFF8204602F0DAFA1D
:1012E000012002F0E9F8204602F0D4FA022002F0D0
:1012F000E3F8204602F0CEFADAE700BF20A10700AB
:1013000030B58FB001A91B481B4D01F07FFB1B4876
:1013100004F0BCFC1A4807F0E5FB1A4804F0B6FCE0
:101320002B68986807F052FE174901A800F0FCF9F5
:10133000044678B9114804F0A9FC144807F0D2FB20
:10134000104804F0A3FC2B68986807F03FFE204685
:101350000FB030BD0E4804F099FC0E4807F0C2FBF8
:10136000084804F093FC2B68986807F02FFE4FF0B4
:10137000FF34ECE7A3420210E0050020533F0210C7
:10138000AF420210853F0210C0420210C742021055
:10139000883F0210D542021030B58FB001A91B481A
:1013A0001B4D01F033FB1B4804F070FC1A4807F09A
:1013B00099FB1A4804F06AFC2B68986807F006FE4F
:1013C000174901A800F0B0F9044678B9114804F0B3
:1013D0005DFC144807F086FB104804F057FC2B68AE
:1013E000986807F0F3FD20460FB030BD0E4804F0BA
:1013F0004DFC0E4807F076FB084804F047FC2B68CC
:10140000986807F0E3FD4FF0FF34ECE7E24202108A
:10141000E0050020533F0210F0420210853F021009
:101420000343021014430210883F021024430210A9
:1014300010B5FFF7D7FBFFF773FD1B4C70B11B48CE
:1014400004F024FC1A4807F04DFB1A4804F01EFC77
:101450002368BDE81040986807F0B8BDFFF7E0FDCD
:1014600020B1124804F012FC1348ECE7134804F0D2
:101470000DFC1349134804F009FC0E4804F006FC67
:101480002368986807F0A2FD0F4804F0FFFB0F489F
:1014900007F028FB074804F0F9FB2368986807F079
:1014A00095FDFFF703FF00BFE0050020883F021015
:1014B0000A420210853F0210334302102C420210F0
:1014C0005143021063430210494202106A43021062
:1014D00030B591B0FFF760FF0446002854D1CDE944
:1014E000010003A92A4801F091FA01AA294903A899
:1014F00007F0A6FD284803A901F088FA254902AAA9
:1015000003A807F09DFD254A0298134653F8041FCF
:10151000A1420CD1224804F0B9FB0299214804F001
:10152000B5FB214804F0B2FB204B1B6829E053F8BF
:10153000045F85422AD10234019B1D4842F82430C1
:1015400001F028FD15491A48184C882201F026FDA3
:10155000184804F09BFBDDE90121174804F096FBD5
:10156000114804F093FB2368986807F02FFD134897
:1015700004F08CFB124807F0B5FA0B4804F086FB28
:101580002368986807F022FD11B030BD0134BFE731
:101590006F4302108143021084430210440C002068
:1015A000883F0210BC430210853F0210E005002076
:1015B00000C00710533F0210974302104942021027
:1015C000B443021000B58FB0FFF70CFBFFF798FE95
:1015D000D0B90F4801A901F019FA0E496A4601A8CD
:1015E00007F02EFD0098FFF7A7FD68B90A4804F040
:1015F0004DFB0A4807F076FA094804F047FB094B0F
:101600001B68986807F0E2FC0FB05DF804FB00BFB0
:10161000F1430210814302104942021000440210BB
:10162000853F0210E00500202DE9F0419AB0FFF758
:1016300081FB2C482C4C2D4F2D4EDFF8B88004F048
:1016400025FB2D4807F04EFA2C4804F01FFB2368B9
:10165000986807F0BBFC01A9384601F0D7F9357846
:1016600075B3414601A808F03BFB10B9FFF746FAF5
:10167000F1E7234901A808F033FB10B9FFF7D8FEC2
:10168000E9E7204901A808F02BFB10B9FFF720FF7C
:10169000E1E71D4901A808F023FB10B9FFF792FF0D
:1016A000D9E71A4804F0F2FA01A9194804F0EEFA51
:1016B000124804F0EBFA2368986807F087FCCAE741
:1016C000124804F0E3FA134804F0E0FA0B4804F07F
:1016D000DDFA2368986807F079FC28461AB0BDE85F
:1016E000F08100BF2C420210E005002025440210CA
:1016F000340C00204544021007440210853F0210BC
:101700004A4402104F44021057440210883F02100E
:101710005E4402103544021008B54023FEF734FD44
:10172000B0FA80F0400908BD70B590B06A460E4628
:10173000FFF7F2FF0446B0B9304608F061FD0546F8
:10174000684608F05DFD854210D16B462246954201
:1017500002DC204610B070BDB05C13F8011B4140A4
:101760000C430132F3E74FF0FF34F2E70124F0E7D6
:1017700001F020BCC0B2704770B504460D46164655
:1017800001F0BAFC002802DA4FF0FF3070BD33469A
:101790002A460021204601F04BFC0028F4DB012101
:1017A000204601F0A5FCC017F0E770B505460E46CF
:1017B000284601F07DFC002803DA4FF0FF34204674
:1017C00070BD03D0322002F065F8F1E7284601F041
:1017D00072FC041EF1DB3346E2B20321284601F01D
:1017E0000DFC0028E9DB0121284601F089FC0028D6
:1017F000E5DAE2E738B505460C2003F07DFF044644
:1018000060B1A80003F078FF206020B1002365607C
:10181000A360204638BD204603F076FF0024F8E799
:1018200070B504460D46D0E90001A3688B4206D38B
:101830004E00C90007F05EF948B1C4E90006A3688C
:101840002268591CA16042F82350002070BD4FF05F
:10185000FF30FBE710B5826800239A4201D10020D7
:1018600010BD046854F823408C4201D00133F4E7E2
:101870000120F5E77047F8B504460E46D0E90001AF
:101880001546002399420ED10131C90007F032F903
:1018900080B16368206000EBC30200F8336001335D
:1018A0005560636006E010F83370B74200EBC30286
:1018B00001D15560F8BD0133E4E730B54468002339
:1018C0009C4202D14FF0FF3007E0026802EBC305F3
:1018D00012F833208A4201D1686830BD0133EFE746
:1018E00010B50446006803F00FFF0023C4E900337D
:1018F00010BD30B5002351F8234052F823502C443A
:1019000040F8234001330A2BF5D130BD30B5002318
:1019100051F8234052F82350641B40F82340013310
:101920000A2BF5D130BD002351F82320520040F896
:10193000232001330A2BF7D1704700002DE9F0472F
:101940009EB00E461546002178220446684608F0EF
:1019500075F8C5F3C0004300C3F1010808FB05F2A8
:1019600042EAA20343EA630303F001033A4F4FEA5A
:10197000660E013B6E4669464FF0000C57F8045B5B
:1019800005EA03090D6889EA050541F8045B7D6AEB
:1019900003EA05094D6A85EA09054D62FD6C03EA13
:1019A0000509CD6C0CF1010C85EA0905BCF10A0FA3
:1019B000CD64E3D1294D4FF4707303FB0E55A2F1B2
:1019C0000809013A42EAA20343EA630303F0010370
:1019D000013BAC4669464FF0000E5CF8047B07EA19
:1019E000030A0F688AEA070741F8047BDCF82470D1
:1019F00003EA070A4F6A87EA0A074F62DCF84C706D
:101A000003EA070ACF6C0EF1010E87EA0A07BEF15E
:101A10000A0FCF64E1D14A4505F17805D1D1471EBF
:101A2000221F4042243456F8043B716A03EA07053A
:101A300001EA000C85EA0C0542F8045F03403940D6
:101A40004B409362F36C944208FB03F31365EAD1B5
:101A50001EB0BDE8F08700BF7C4402109445021020
:101A6000F0B501F12807D1B005460C461646684688
:101A70000A463946FFF74AFF3246694600F0E5F963
:101A80000AA822463946FFF734FF06F1280201462C
:101A900000F0DBF906F1500204F1500114A800F047
:101AA000D4F904F178011EA8FFF73DFF6A460AA9A0
:101AB00028A8FFF72BFF14AA1EA932A8FFF726FFBC
:101AC0003CA8FFF716FF6A460AA946A8FFF711FFD0
:101AD00032AA28A9284600F0B8F946AA3CA905F17F
:101AE000280000F0B2F946AA28A905F1500000F03C
:101AF000ACF93CAA32A905F1780000F0A6F951B082
:101B0000F0BD00002DE9F0411546DAB001F12808DA
:101B100006460C460A466846414605F12807FFF787
:101B2000F5FE50A82A463946FFF7F0FE0246694600
:101B3000684600F08AF9224641460AA8FFF7D9FE16
:101B400050A82A463946FFF7D4FE0AA9024608469D
:101B500000F07BF905F1500204F1500114A800F0E7
:101B600074F914A908461D4A00F06FF905F17802CE
:101B700004F178011EA800F068F91EA90846FFF7D5
:101B8000D2FE6A460AA928A8FFF7C0FE14AA1EA919
:101B900032A8FFF7BBFE3CA8FFF7ABFE6A460AA9D6
:101BA00046A8FFF7A6FE32AA28A9304600F04DF954
:101BB00046AA3CA906F1280000F047F946AA28A940
:101BC00006F1500000F041F93CAA32A906F1780074
:101BD00000F03BF95AB0BDE8F08100BF94BD02109F
:101BE00070B5ADF5007D214A064608A8FFF781FED5
:101BF0000146684601F069F91D49A02230A808F0A5
:101C00005FFA1B49A02258A808F05AFA6C46002532
:101C1000227802F00F022946083A12A8FFF78EFE3A
:101C200030A9084612AAFFF71BFF14F8012B12096E
:101C30002946083A12A8FFF781FE58A912AA0846B9
:101C40000235FFF70DFF402DE2D1042458AA1146BA
:101C50001046FFF757FF013CF8D158AA30A930468B
:101C6000FFF750FF0DF5007D70BD00BFC8BF02102B
:101C7000F444021070B500224FF018530E1D041DDD
:101C800051F8225005EB636323F07C4540F8225065
:101C900056F8225005EBA36323F07E4544F822500A
:101CA00002320A2AECD102685B16132101FB0322DF
:101CB000026000F128040246014600230D6805EB8E
:101CC000636323F07C450D604D6805EBA36323F04F
:101CD0007E454D6008318C42F0D101685B161325BA
:101CE00005FB031101604FF05A43116801EB636378
:101CF00023F07C411160516801EBA36323F07E4126
:101D0000516008329442F0D102685B16132101FB46
:101D10000322026070BDF0B500230124061F00F10C
:101D2000240C1A46A646002C0CBF182519259D42E6
:101D300015DA04F119070EFA07F5013D154046F8CA
:101D4000045FB44522FA07F2A3EB0703C4F10104D0
:101D5000E9D10368132101FB02330360F0BD11F8E0
:101D6000015B9D402A430833DDE72DE9F0418AB04D
:101D7000002580466846FFF77DFF6FF007062A467C
:101D80002B46076827F07C47974002F11A0E1F4345
:101D900041467346083B072B01F8017B4FEA1727A2
:101DA000F8DC02F1120C4FEADC0143684C1C714371
:101DB0000EEB010223F07E4361448B4044443B43DD
:101DC00002F1110127460839072907F8013B4FEABC
:101DD0001323F8DC0932D7080235791C0A2D04EBED
:101DE000010806FB072200F10800CAD163540AB0BB
:101DF000BDE8F081F0B500252B462C4601F1040C1E
:101E0000071D51F825605B0E43EAC4136416C2FB3C
:101E1000063423F07C4640F825609B0E5CF8256074
:101E200043EA8413A416C2FB063423F07E4647F827
:101E3000256002350A2DE4D102685B0E43EAC41323
:101E4000132101FB03220260F0BD2DE9F04FA3B086
:101E50000B680D909068039088680490D068059096
:101E600010690690086907905069009308901368FC
:101E70009069D1F820C00193099053688869CD68B2
:101E80004F69CE69D46902930A904B68106ACDF805
:101E90002CC0526A0C92DDF800C0DDF83080D1F819
:101EA00024E083FB0021CCFB0821DDF810C0CCFB33
:101EB0000421DDF824C0C5FB0C21DDE907C8CCFBFB
:101EC0000821DDF818C0DDF82880CCFB0721DDF8FB
:101ED00014C0CCFB0821DDF80CC0DDF82C80CCFB55
:101EE0000621DDF808C0CCFB0821DDF804C0CCFBDE
:101EF0000E21CDE920210C9ADDF810C083FB0221D0
:101F00008CFB008C9218494112EB080241EB0C014A
:101F100085FB04C81CEB0C0C48EB080812EB0C0208
:101F200041EB0801DDF81CC0DDF82480CCFB082162
:101F3000DDF820C08CFB07C81CEB0C0C48EB080834
:101F400012EB0C0241EB0801DDF818C0DDF8288027
:101F5000CCFB0821DDF814C08CFB06C81CEB0C0C74
:101F600048EB080812EB0C0241EB0801DDF80CC04D
:101F7000DDF82C80CCFB0821DDF808C08CFB0EC8F6
:101F80001CEB0C0C48EB080812EB0C0241EB0808A8
:101F90001321A2FB012C01FB08CCDDE90089C8FB61
:101FA000092CCDE90E2CDDF810C0DDF83090DDF8FD
:101FB00000A0DDF808B085FB0028CCFB0928DDF87F
:101FC0001CC0DDF82890CCFB0428DDF824C0C7FB3A
:101FD0000C28DDF820C0CCFB0928DDF818C0DDF89E
:101FE0002C90CCFB0628DDF814C0CCFB0928DDF8CA
:101FF0000CC0CCFB0E28A2FB01C201FB0822DDF8BD
:10200000048088FB0389CAFB0B891CEB080C42EB9C
:102010000902CDE910C20C9ADDF81C8085FB022C68
:1020200088FB009892184CEB0C0C12EB09024CEB5D
:10203000080C87FB048918EB080849EB090912EB27
:1020400008024CEB090CDDE90989C8FB092CDDF815
:10205000208088FB068918EB080849EB090912EB78
:1020600008024CEB090CDDF81880DDF82C90C8FB59
:10207000092CDDF8148088FB0E8918EB080849EB61
:10208000090912EB08084CEB0909A8FB01C801FB80
:1020900009888BFB039219EB0909DDF80CB052415A
:1020A000CAFB0B92DDF804A0DDF810B0CAFB0B925E
:1020B0001CEB090C48EB0202DDF83090DDF81C80C7
:1020C000CDE912C287FB002CC8FB092CDDF8288063
:1020D000C8FB042CDDF82480C8FB062CDDF820802A
:1020E000DDF82C90DDF800A0DDF814B0C8FB092C59
:1020F000DDF81880C8FB0E2CA2FB018201FB0C222C
:10210000DDF80CC083FB0CC9CAFB0BC9DDF808A0C5
:10211000DDF810B0CAFB0BC9DDF804A0DDF818B07B
:10212000CAFB05C918EB0C0842EB0902CDE9148281
:102130000C9ADDF828C087FB02288CFB009C9218C3
:1021400048EB080812EB090248EB0C0884FB06C9AF
:102150001CEB0C0C49EB090912EB0C0248EB0908CB
:10216000DDF824C0DDF82C90CCFB0928DDF820C078
:102170008CFB0EC91CEB0C0C49EB090912EB0C0C87
:10218000059A48EB0909ACFB01AC83FB022801FB73
:1021900009CC9218DDF8009048EB0808C9FB0B2821
:1021A000DDE9039BC9FB0B28DDF8089089FB059B43
:1021B00019EB09094BEB0B0B12EB090248EB0B086F
:1021C000DDF80490DDF81CB0C9FB0B281AEB020205
:1021D0004CEB080CCDE9162C069ADDF800C0DDF8B2
:1021E000209083FB0228CCFB0928DDE904C9CCFB45
:1021F0000928DDF80CC0CCFB0528DDF808C0DDF8A7
:1022000028A0CCFB0B28DDF804C0DDF830B0CCFBF7
:10221000072886FB00C9CAFB0BC9DDF82CA0C4FB4C
:102220000AC9DDF824A0CAFB0EC9ACFB01CA12EB37
:102230000C0201FB09AA4AEB080ACDE9182A089A00
:10224000DDF80080DDF8249083FB022C92184CEB23
:102250000C0CC8FB092CDDF81080DDF81890C8FBC9
:10226000092CDDF8148088FB058918EB080849EB78
:10227000090912EB08024CEB090CDDF80C80DDF8C3
:102280001C90C8FB092CDDF8088088FB078918EB37
:10229000080849EB090912EB08024CEB090CDDF8C0
:1022A0000480DDF82890C8FB092CDDF82C8086FB23
:1022B0000B9B80FB08A819EB09094BEB0B0B19EBE7
:1022C0000A094BEB080B84FB0E8A18EB08084AEB53
:1022D0000A0A19EB08084BEB0A0AA8FB018912EB62
:1022E000080201FB0A9949EB0C09CDE91A29099A60
:1022F000DDF80080DDF8209083FB022CC8FB042C65
:10230000DDF81080C8FB092CDDF81880DDF81C9082
:10231000C5FB082CDDF81480C8FB092CDDF80C8007
:10232000DDF82890C8FB072CDDF80880C8FB092CD5
:10233000DDF80480DDE90B9BC8FB062C80FB0E8AD0
:10234000C9FB0B8AA8FB018912EB080201FB0A9961
:1023500049EB0C0183FB0434DB18CDE91C21009A06
:1023600009996441C2FB0034049AC2FB0134089A03
:1023700085FB02526D1952415B1944EB0204DDE901
:102380000621C2FB0134059A0A9982FB072792189D
:102390007F419B18039A44EB0704C2FB0134029A65
:1023A0000B9982FB0626921876419B18019A44EB02
:1023B0000604C2FB013426258BFB0E21A2FB05205F
:1023C0009B1805FB010141EB0404CDE91E340EA866
:1023D00000240146234622462746D1E900655B0ECC
:1023E00043EAC2139B1945EB626223F07C45C1E9C5
:1023F0000057D1E902659B0E43EA82139B1904F151
:10240000020445EBA26223F07E450A2CC1E9025783
:1024100001F11001E1D15B0E132443EAC213A3FBC7
:102420000431521604FB02120E990D9CC9180F9B21
:1024300042EB0303CDE90E1300210B460A46261D8D
:10244000D0E900455B0E43EAC2131B1945EB6262FB
:102450000D9D23F07C4445F82140D0E902459B0EB8
:1024600043EA82131B1923F07E4446F8214001F110
:10247000020145EBA2620A2900F11000E0D15B0ED7
:1024800043EAC2130D9A1268132101FB03220D9B2C
:102490001A6023B0BDE8F08F2DE9F04FD1E904B206
:1024A0009BB0D1E900730C6A01920390D1E9065206
:1024B000D1E90260496A029483FB044CC7FB014CDA
:1024C000DDF804E0C6FB024CC0FB054CCBFB0E4C18
:1024D00024194CEB0C0CCDE9184CDDF808C083FB3B
:1024E000014E86FB0C8C24194EEB0E0E14EB0804E7
:1024F0004EEB0C0E80FB02C81CEB0C0C48EB0808E2
:1025000014EB0C044EEB080EDDF804C0CBFB054EBB
:10251000CCFB0C4E4FF0260CA4FB0C480CFB0E8899
:10252000C7FB0748CDE90648029CDDF8048080FB24
:10253000044EC6FB014ECBFB024EC8FB054EA4FB6E
:102540000C840CFB0E4487FB03E91EEB0E0E49EBDB
:10255000090918EB0E0844EB0904DDF808E0CDE9A1
:10256000088480FB01488BFB0E9E241948EB080869
:1025700014EB090448EB0E08DDF804E08EFB02E9D9
:102580001EEB0E0E49EB090914EB0E0448EB09088B
:10259000241985FB05E948EB080814EB0E0E4FF0F3
:1025A000130448EB0909AEFB048E04FB09EE83FB20
:1025B0000349C7FB0649241949EB090918EB040430
:1025C0004EEB090ECDE90A4EDDE901E88EFB08E489
:1025D000CBFB01E4C5FB02E4AEFB0C8E0CFB04EE6E
:1025E00083FB0649C7FB0049241949EB090918EB8D
:1025F00004044EEB090ECDE90C4E83FB0048241970
:1026000048EB0808C7FB0B4886FB069E241948EBDD
:10261000080814EB090448EB0E08DDF804E08EFB13
:1026200001E91EEB0E0ECDF810E0DDF808E085FBA9
:102630000EAECDF814E0DDF810E049EB09091EEB11
:102640000A0EDDF814A049EB0A09C2FB02E9AEFB51
:102650000CEA14EB0E040CFB09AA4AEB080ADDF89D
:102660000480CDE90E4A83FB0B4EC7FB084EDDF814
:10267000088082FB088AC5FB018AC6FB004EA8FBC6
:102680000C8924194EEB0E0E0CFB0A9914EB08046E
:1026900049EB0E09DDF804E0CDE9104983FB0E4E4D
:1026A00024194EEB0E0EC7FB054EC6FB0B4EC0FBAE
:1026B000004E24194EEB0E0E82FB0189CDF810E07E
:1026C000DDF808E04FEA890949EA98798EFB0EEABD
:1026D0004FEA880818EB0E0849EB0A0A4FF0130975
:1026E000CE46A8FB09890EFB0A99DDF810E014EB31
:1026F000080449EB0E09CDE91249DDF8048083FB9B
:10270000054EC7FB024EC6FB084EDDF80880C0FB35
:102710000B4E88FB019A2419A9FB0C984EEB0E0E68
:102720000CFB0A8814EB090448EB0E0883FB023209
:10273000DB18CDE91448029C5241C7FB0432019CCE
:1027400080FB0404C6FB053200186441181842EBF4
:1027500004028BFB0B3400185241C01842EB0402F8
:1027600081FB0114A1FB0C1340180CFB043343EB59
:1027700002030024CDE9160306A80146234622469B
:102780002746D1E900655B0E43EAC2139B1945EB6E
:10279000626223F07C45C1E90057D1E902659B0ED6
:1027A00043EA82139B1904F1020445EBA26223F071
:1027B0007E450A2CC1E9025701F11001E1D15B0EFF
:1027C000132443EAC213A3FB0431521604FB021282
:1027D0000699039CC918079B42EB0303CDE9061336
:1027E00000210B460A46261DD0E900455B0E43EA50
:1027F000C2131B1945EB6262039D23F07C4445F82C
:102800002140D0E902459B0E43EA82131B1923F0B5
:102810007E4446F8214001F1020145EBA2620A29FB
:1028200000F11000E0D15B0E43EAC213039A126874
:10283000132101FB0322039B1A601BB0BDE8F08F3C
:1028400030B5E5B0044668460D46FFF725FE6946FB
:102850005AA8FFF721FE5AA950A8FFF71DFE2A46E5
:1028600050A90AA8FFF7F1FA6A460AA914A8FFF7C7
:10287000ECFA14A950A8FFF70FFE0AAA50A91EA847
:10288000FFF7E3FA1EA950A8FFF706FE50A95AA8C1
:10289000FFF702FE5AA950A8FFF7FEFD50A95AA85B
:1028A000FFF7FAFD5AA950A8FFF7F6FD1EAA50A996
:1028B00028A8FFF7CAFA28A950A8FFF7EDFD50A9EC
:1028C0005AA8FFF7E9FD04255AA950A8FFF7E4FD2F
:1028D00050A95AA8FFF7E0FD013DF5D128AA5AA951
:1028E00032A8FFF7B2FA32A950A8FFF7D5FD50A9D8
:1028F0005AA8FFF7D1FD09255AA950A8FFF7CCFD2A
:1029000050A95AA8FFF7C8FD013DF5D132AA5AA92E
:1029100050A8FFF79AFA50A95AA8FFF7BDFD5AA987
:1029200050A8FFF7B9FD042550A95AA8FFF7B4FD38
:102930005AA950A8FFF7B0FD013DF5D128AA50A92A
:102940003CA8FFF782FA3CA950A8FFF7A5FD50A9C3
:102950005AA8FFF7A1FD18255AA950A8FFF79CFD1A
:1029600050A95AA8FFF798FD013DF5D13CAA5AA9F4
:1029700046A8FFF76AFA46A95AA8FFF78DFD5AA99B
:1029800050A8FFF789FD312550A95AA8FFF784FD0B
:102990005AA950A8FFF780FD013DF5D146AA50A9DC
:1029A0005AA8FFF752FA5AA950A8FFF775FD50A987
:1029B0005AA8FFF771FD18255AA950A8FFF76CFD1A
:1029C00050A95AA8FFF768FD013DF5D13CAA5AA9C4
:1029D00050A8FFF73AFA50A95AA8FFF75DFD5AA987
:1029E00050A8FFF759FD50A95AA8FFF755FD5AA95D
:1029F00050A8FFF751FD50A95AA8FFF74DFD14AAA2
:102A00005AA92046FFF721FA65B030BD38B5054612
:102A100010480C4603F03AF928460F4D03F036F9FA
:102A20000E4803F033F92B68986806F0CFFA0020BF
:102A300006F0CCFA0A4803F029F92B68986806F0EA
:102A4000C5FA204606F0D4FEBDE83840054806F039
:102A500049B800BF533F0210E0050020853F021037
:102A6000BCBD0210F043021000230022C0E9002385
:102A7000074B836003F18833C36003F12943A3F557
:102A80009613A3F68B630361A3F188334361704708
:102A9000012345672DE9F04FD0E902C385B0D0E9A5
:102AA000008E0093DFF8A4B0294B009F039101939F
:102AB00065467646C24600242309012B2FD0022BFF
:102AC00037D0002B3CD185EA070333407B402246B8
:102AD0005BF8041B0291019951F8049B0191029942
:102AE0001944039B53F8223019445144C9F1200979
:102AF000013461FA09F1402C3144BA460BD1009BF4
:102B00004744714466442B44076041608660C3605B
:102B100005B0BDE8F08F2F4635460E46CCE786EA75
:102B200005033B4004EB84026B40013202F00F02CC
:102B3000CEE786EA050304EB44027B400532F5E765
:102B400066EA07036B40C4EBC402EFE7C8BD02109E
:102B5000C8BE0210F0B50446D0E9000500F03F03FE
:102B6000101845F10005C4E9000591B00E468D1816
:102B700004F1400704F10800B54201D111B0F0BDE5
:102B80005A1C234416F8011B1976930618D1EC46FB
:102B900022466146937E92F81BE01B0443EA0E63D3
:102BA00092F818E043EA0E0392F819E0043243EA7F
:102BB0000E2397424CF8043BECD1FFF76BFF002249
:102BC0001346D9E7F0B50568254905F03F05372DCF
:102BD00094BFC5F13805C5F1780504462A4691B081
:102BE000FFF7B8FFD4E90023551B63F10000C4E9E7
:102BF00000506E4604F1380722463146937E92F823
:102C00001BC01B0443EA0C6392F818C043EA0C0390
:102C100092F819C0043243EA0C23974246F8043B69
:102C2000ECD1C00040EA5570EB000F9004F10800B1
:102C30000E93FFF72FFF231D143453F8042F83F84E
:102C40005020110A83F851109C424FEA12414FEA7A
:102C5000126283F8521083F85320EED111B0F0BD08
:102C60000400002030B59BB0054668461446FFF7C7
:102C7000FBFE0A462946FFF76DFF6846FFF7A2FFF5
:102C800016AD22461AAC2B4603CBA342106051600E
:102C90001D4602F10802F6D11BB030BD2DE9F04F00
:102CA00099B000230190594F01F1200001F1480C27
:102CB00004461A4654F8046F57F8045DA445C6FB51
:102CC0000532F7D1DFF848E19B0E43EA821301F1A8
:102CD0004C0C9216764650F8045F56F8044D844525
:102CE000C5FB0432F7D102AC01F1240527460B20C5
:102CF0009B0E43EA8213F24692162E4656F8049F24
:102D00005AF8048DB445C9FB0832F7D1013023F0DD
:102D10007C46152847F8046B05F10405E8D13D4EC3
:102D20009B0E43EA821300200DAA0C933746964669
:102D3000034605469B0E43EA8513BA46AD16A346E5
:102D40004FF0000C5BF8049B5AF804890CF1010C5D
:102D50008445C9FB0835F5DD013023F07C4C0B2898
:102D60004EF804CB07F10407E4D100230D1F01F155
:102D7000280C1746184655F8041F9B0E43EA80138B
:102D80005B184FEAE17E39684EEBE0705B1A60EB4E
:102D9000E17023F07C41AC4547F8041BEBD11E4B9E
:102DA0000D990B4402931746234601201D6857F8DE
:102DB000041F01EBA56156F8045F491B43F8041F8B
:102DC00053F8041C013021F07C410B2843F8041C0B
:102DD000ECD10C9B0021D817136854F8045B6B40AE
:102DE000034001316B400B2942F8043BF4D1019BB5
:102DF0000DAC17AD224603CAAA42186059601446AA
:102E000003F10803F6D119B0BDE8F08F18C0021025
:102E10001CC002101CC00210132C0AFF70B594B025
:102E2000044668460A1F00232431054652F8046F01
:102E300006EBA36323F07C46914240F8046BF5D186
:102E40009B16242200210BA80A9306F0F7FD2946C1
:102E50002046FFF723FF14B070BD2DE9F04395B075
:102E60000023E8460D460A449E461C461E4641463F
:102E7000954215D30EF1010E24F07C47BEF1140FDC
:102E80004FEA946444EA861448F8047B4FEA966655
:102E9000A3F11A03ECD1FFF701FF15B0BDE8F083F1
:102EA000192BE7DC15F801CBA3F12007C3F12009AA
:102EB0000CFA07F72CFA09F947EA09070CFA03FCA0
:102EC0004CEA04043E430833D2E72DE9F0418AB0CE
:102ED0000024054600F120066846FFF79FFF6F4675
:102EE00023462246A44657F8040BA3F12008C11735
:102EF000C3F1200E994000FA08F820FA0EFE41EACC
:102F00000801984041EA0E01024341EA0C0C1A33D1
:102F1000072B05DC01340A2CE5D10AB0BDE8F081AD
:102F2000B542F7D205F8012B120A42EA0C62083BBF
:102F30004FEA1C2CECE70000084B596AC80742BF57
:102F40005A6A22F001025A628A0706D55A6A044870
:102F500022F002025A6205F0C5BD7047009002409F
:102F600048C0021008B50849172000F0CDFC074BF7
:102F70004FF400021A604FF4407001F0B1F8BDE860
:102F80000840034802F03AB8392F011000E100E090
:102F900000A0024020F058B901F0A0B813460A463C
:102FA000194601F099B80000014801F0EFBA00BFDE
:102FB00000E0014010B50C480022012101F092FA16
:102FC000044620B1094805F08DFD204610BD084992
:102FD000054801F0C1FA0749242000F095FC064B92
:102FE00010225A60F1E700BF00E001406FC00210FC
:102FF000A0860100A92F011000E100E000B58BB010
:10300000CDE906328DF807100849CDE902100121FB
:10301000059100230DF1070102A8CDE908330491C1
:1030200001F0AEFA0BB05DF804FB00BF00E0014018
:1030300070B5CAB005468DF824100DF1250019466B
:10304000144607F03DF8084B09AECDE901350134CF
:10305000002301A8CDE90364CDE90533CDE90733A9
:1030600001F08EFA4AB070BD00E0014000B50F4A91
:103070008DB0CDE90420012200238DF807100792BE
:103080000DF10701099204A80DF10F02CDE90A33F1
:103090008DF80F300691089201F072FA0028A8BF4F
:1030A0009DF80F000DB05DF804FB00BF00E001408B
:1030B0000421FFF7DBBF0521FFF7D8BF00B50B4B9D
:1030C0008BB0CDE902300223059301AB049302A833
:1030D0000023CDE90633CDE908338DF804108DF8CF
:1030E000052001F04DFA0BB05DF804FB00E0014053
:1030F0000A460121FFF7E2BF0A460221FFF7DEBFC1
:103100000A460421FFF7DABF01F099BF07B5042191
:103110000DEB010001F0AAFF019803B05DF804FB7C
:1031200001F095BF40F8041B2422002106F086BC64
:1031300030B5002351F8234052F823502C4440F876
:10314000234001330A2BF5D130BD30B5002351F8AF
:10315000234052F82350641B40F8234001330A2BCC
:10316000F5D130BD70B5CEB004460B466D4601F1C9
:103170002006186859682A4603C20833B342154628
:10318000F7D19DF8003023F007038DF800309DF84B
:103190001F30202203F07F0343F040030DEB0200B9
:1031A00069468DF81F30FFF758FE08A926A8FEF7DC
:1031B00017FD1CA830AA44A9FFF7C7FF0146FFF777
:1031C0003FFB12A830AA44A9FFF7B2FF1CAA014690
:1031D000FEF73BFE12A92046FEF7C7FD4EB070BDBC
:1031E00030B5013801F15005A94200D130BD10F8C9
:1031F000014F0B78634013405C40047011F8014BA1
:10320000634001F8013CEFE72DE9F043ADF51F7D88
:1032100005460B466E4601F120071868596834468A
:1032200003C40833BB422646F7D19DF80030DFF8CF
:103230003C9123F007038DF800309DF81F3003F018
:103240007F0343F04003114676A88DF81F30FEF748
:1032500062FD012180A8FFF765FF012162A8FFF749
:1032600061FF00216CA8FFF75DFF502276A98AA8B4
:1032700006F026FF1F261DF906404FF00808E7114B
:10328000FFB23A468AA962A8FFF7AAFF6CAA08A86B
:1032900062A9FFF74DFF01461CA8FFF7FDF86CAAD5
:1032A00012A862A9FFF751FF014626A8FFF7F4F81C
:1032B0001CAA26A962A8FEF7C8FD44A826AA1CA934
:1032C000FFF743FF01464A464EA8FEF793FD4EA97D
:1032D00008461CAAFFF72CFF0A466CA844A9FEF773
:1032E000B4FD94AA8AA930A8FFF722FF3AA8FFF7F5
:1032F0002CFF30AA12A944A8FEF7A7FD3AAA08A9F4
:103300004EA8FEF7A2FD4EAA58A844A9FFF710FF49
:1033100001468AA8FFF7C0F858A84EAA44A9FFF7AB
:1033200014FF0146FFF7B8F876AA58A994A8FEF74B
:103330008CFD3A468AA962A8FFF752FF6400B8F1F3
:10334000010864B29BD1013E95D26CA90846FFF7F3
:1033500077FA62A96CAA0846FEF777FD62A92846AB
:10336000FEF703FD0DF51F7DBDE8F08341DB010095
:10337000FFF7F8BEFFF748BF002000F033BF012081
:1033800000F030BF034B022218684FF4E13101F026
:10339000DFBE00BF4400002010B5002000F094FB09
:1033A000012000F091FB402000F08EFBFFF7EAFFC8
:1033B000041E0DDB00F0A6F8044648B900F086F8BC
:1033C000044628B9034B04484322DA6000F062FA4D
:1033D000204610BD00440040400D030000BF704770
:1033E0004FF0FF3070474FF0FF3070474FF0FF3025
:1033F00070474FF0FF3070472DE9F0410D461646FB
:103400000446B8B90F4FB442A84610DA384601F066
:1034100063FFC1B22970384601F060FF15F8013B27
:103420000D2B04F10104EED10A2388F80030204668
:10343000BDE8F08106F03AFC092303604FF0FF3449
:10344000F5E700BF0020044001380128F8B50D461B
:10345000144621D906F02AFC092303604FF0FF34FB
:1034600018E033780A2B08D10D4801F03BFF002803
:10347000FAD00D21384601F031FF094801F032FF42
:103480000028FAD016F8011B384601F027FF731BFD
:103490009C42E6DC2046F8BD014F0E46F7E700BF30
:1034A00000200440034B0C2250431A18185851684E
:1034B00000F082BE90C00210034B0C2250431A1839
:1034C0001858516800F062BE90C00210F8B50B4B5E
:1034D0000B4E1F6800242546A74201D82846F8BD98
:1034E0002046FFF7E9FF304600F0A6FE002818BF8F
:1034F0006FF0070501340C36EEE700BF8CC00210F8
:1035000090C00210F8B5094B094E1F6800242546EB
:10351000A74201D82846F8BD304600F08DFE0028AD
:1035200018BF6FF0070501340C36F1E7B4C0021084
:10353000B8C00210474885464748804780B9474988
:10354000474A484B9B1A03DD043BC858D050FBDC6C
:103550004549464A00209142BCBF41F8040BFAE7B6
:10356000434880474348804743488047FFF7FEFF72
:10357000FEE7FEE7FEE7FEE7FEE7FEE7FEE7FEE723
:10358000FEE7FEE7FEE7FEE7FEE7FEE7FEE7FEE713
:10359000FEE7FEE7FEE7FEE7FEE7FEE7FEE7FEE703
:1035A000FEE7FEE7FEE7FEE7FEE7FEE7FEE7FEE7F3
:1035B000FEE7FEE7FEE7FEE7FEE7FEE7FEE7FEE7E3
:1035C000FEE7FEE7FEE7FEE7FEE7FEE7FEE7FEE7D3
:1035D000FEE7FEE7FEE7FEE7FEE7FEE7FEE7FEE7C3
:1035E000FEE7FEE7FEE7FEE7FEE7FEE7FEE7FEE7B3
:1035F000FEE7FEE7FEE7FEE7FEE7FEE7FEE7FEE7A3
:10360000FEE7FEE7FEE7FEE7FEE7FEE7FEE7FEE792
:10361000FEE7FEE7FEE7FEE7FEE7FEE7FEE7FEE782
:10362000FEE7FEE7FEE7FEE7FEE7FEE7FEE7FEE772
:10363000FEE7FEE7FEE7FEE7FEE7FEE7FEE7FEE762
:10364000FEE7FEE7FEE7FEE7FEE7FEE7FEE7FEE752
:10365000FEE7FEE7000002201D37011018330310BB
:1036600000000020DC0A0020000C0020AC18002024
:1036700021370110C19F0110291601100A4A116853
:1036800008B5034609B9094911601068084903449F
:103690008B4206D906F00AFB0C2303604FF0FF3083
:1036A00008BD1360FCE700BFCC0C0020B018002060
:1036B00000F001204FF080439A6802F46062B2F596
:1036C000206F1BD010D8E2B1104947F23053B2F549
:1036D000C06F18BF0B464FF080429268C2F382124F
:1036E000D3400B4A13607047B2F5406F0BD0094BC3
:1036F0000649B2F5606F18BF0B46ECE74FF4E103E3
:10370000E9E7054BE7E74FF40043E4E700E1F5059F
:10371000AC180020C068780400879303002070472D
:1037200010B50A4C0A4BA3600A4801F065FCD4F8B6
:10373000883043F47003C4F88830BFF34F8FBFF371
:103740006F8FFFF7B7FFFFF727FE10BD00ED00E01A
:1037500000E0001000A0024038B54FF0E023184907
:103760009C691A6922F480320A601A69D2075BBF29
:103770006FF07F4405225D695C615CBF9C611A61EA
:10378000104B114A19684FF00003A0FB010154BF10
:103790004FF0807501350FF03BF90C4BB0FBF5F2A3
:1037A00005FB120084421A609FBF1A6801321A603A
:1037B0002D19074B94BF281A201A186038BD00BF76
:1037C000D40C0020AC18002040420F00480000201C
:1037D000D80C002010B50B4A0B4C11602268002A4F
:1037E0000DDC50B1FFF7B8FF2368002BC1BF4FF0CD
:1037F000E022136943F002031361002010BD6FF053
:103800000500FBE7D00C00204800002010B5094C53
:10381000236823B16FF00F00984700232360064B05
:103820001A684FF0E0231A61044B4FF0FF321A6020
:1038300010BD00BFD00C0020D40C00204800002098
:1038400038B5114B1A68002A08DA104C23681BB1EE
:103850000020984700232360002038BD1C6884B9ED
:103860004FF0E0239A690A4B1B689A4209D8074D2A
:10387000FFF7CCFF2B68002BEED0204698472C603A
:10388000EAE76FF00500E8E748000020D00C0020D0
:10389000D80C002010B5114C2268002A1ADC78B12F
:1038A000FFF75AFF4FF0E0222368002B0ADC0C4B95
:1038B0001B684FF0E0218A699A42FCD8FFF7A6FF07
:1038C000002010BD1369DB0342BF236803F1FF33FF
:1038D0002360E9E76FF00500F3E700BF4800002030
:1038E000D80C002008B5054B05494FF4F072184676
:1038F00006F0E6FB034A906008BD00BF000E002002
:1039000000E0001000ED00E0F8B50C4B0C4E9B6899
:10391000B34204460D4600F1100701D0FFF7E2FF65
:10392000002C46F8275007DB064A6109012304F002
:103930001F04A34042F82130F8BD00BF00ED00E0B5
:10394000000E002000E100E0F0B50F468FB0044605
:1039500000287DD04FF084554FF0845000F09AFB42
:1039600010220021204606F069F82B68DB0B23703B
:103970002B68DB0D63706B685B00DBB2A3702A6899
:1039800043EAD273A3706B68DB09E3706B68DB0BEF
:1039900023716B68DB0D6371AB68DB0BA371AB68E4
:1039A000DB0DE371EB685B00DBB22372AA6843EACC
:1039B000D2732372EB68DB096372EB68DB0BA372D3
:1039C000002F39D00023CDE90533CDE90733EB686B
:1039D000DB0D3B702B69DB0B7B70FCF73BFC064679
:1039E00028B1284600F067FB30460FB0F0BD014615
:1039F00005A8FCF773FC0423CDE9093409A86B443E
:103A0000ADF830600D960B93FCF74AFC0646002893
:103A1000E7D1FCF733FC9DF804207B789A4204D16F
:103A20009DF805203B789A4206D04FF0845000F074
:103A300042FB6FF00306D7E74FF084500026C368BF
:103A4000DB0DE3720369DB0B237300F034FBCBE780
:103A50004FF0FF36C8E700003F280AD9094BDA6863
:103A60004038C0B20123834013420CBF0120002024
:103A700070471F284FF0804302D99A6C2038F0E736
:103A80005A6AEFE7000008403F2808D90D4A40383D
:103A9000D168C0B2012383400B43D36070471F2815
:103AA0004FF0804207D92038916CC0B20123834087
:103AB0000B4393647047516A012383400B43536265
:103AC000704700BF000008403F2809D90E49403820
