S02B00002F55736572732F73616D6368756E672F4C6962726172792F654354462F54756674732D6543544632B3
S3151000E0000000022041460110554301107F460110C1
S3151000E010814601108346011085460110000000005C
S3151000E02000000000000000000000000087460110FC
S3151000E03089460110000000008B4601108D46011024
S3151000E040914601109346011095460110974601100E
S3151000E050994601109B4601109D4601109F460110DE
S3151000E060A1460110A3460110A5460110A7460110AE
S3151000E070A9460110AB460110AD460110AF4601107E
S3151000E080B1460110B3460110B5460110B74601104E
S3151000E090B9460110BB460110BD460110BF4601101E
S3151000E0A05142011081420110C5460110C7460110A8
S3151000E0B0C9010110CB460110CD460110CF46011003
S3151000E0C0D1460110D3460110D5460110D74601108E
S3151000E0D0D9460110DB460110DD460110DF4601105E
S3151000E0E0E1460110E3460110E5460110E74601102E
S3151000E0F0E9460110EB460110ED460110EF460110FE
S3151000E100F1460110F3460110F5460110F7460110CD
S3151000E110F9460110FB460110FD460110FF4601109D
S3151000E1200147011003470110054701100747011069
S3151000E130094701100B4701100D4701100F47011039
S3151000E1401147011013470110154701101747011009
S3151000E150194701101B4701101D4701101F470110D9
S3151000E16021470110234701102547011027470110A9
S3151000E170294701102B4701102D4701102F47011079
S3151000E1803147011033470110354701103747011049
S3151000E190394701103B4701103D4701103F47011019
S3151000E1A041470110434701104547011047470110E9
S3151000E1B0494701104B4701104D4701104F470110B9
S3151000E1C05147011053470110554701105747011089
S3151000E1D0594701105B4701105D4701105F47011059
S3151000E1E00000000000000000000000000000000019
S3151000E1F00000000000000000000000000000000009
S3151000E20000488047414601100348044B834202D020
S3151000E210034B03B118477047E00A0020E00A0020BC
S3151000E220000000000548064B1B1AD90F01EBA3018D
S3151000E230491002D0034B03B118477047E00A00207B
S3151000E240E00A00200000000010B5064C237843B900
S3151000E250FFF7DAFF044B13B10448AFF30080012334
S3151000E260237010BD000C002000000000B043031006
S3151000E27008B5054B1BB105490548AFF30080BDE84D
S3151000E2800840FFF7CFBF00BF00000000040C0020BD
S3151000E290B043031073B51E4B1E4D1B6801934FF010
S3151000E2A000030A440B4613F8014BA6089A42AE5DCA
S3151000E2B006704FEA041404F030040AD82B5D43703C
S3151000E2C0134B1A68019B5A404FF000031ED00DF0F5
S3151000E2D00DF94B7844EA13149B002C5D44708C1C8A
S3151000E2E0A24203F03C0302D8EB5C8370E8E78C781B
S3151000E2F043EA941304F03F04EB5C8370033104305B
S3151000E3002B5D00F8013C8A42CCD8D9E702B070BD2B
S3151000E31018170020524002102DE9F04F884687B09A
S3151000E3202D49DFF8B8A003F00109DB030968059150
S3151000E3304FF00001019306A9002305469E469C4610
S3151000E34001EB890900242646274629784FFA81FBD6
S3151000E35041EA06264BEA04241FB9B9B30135012751
S3151000E360F3E704F0800B4EEA0B0E69B30135013763
S3151000E370042FEAD1CDE90364664059F80C4C48F8ED
S3151000E3802C405AF8041F614042F82C100CF1010C75
S3151000E390BCF1120F43EA0603D4D143EA13439BB2EE
S3151000E3A00199C3F17F4303F57F030B40116803EA1C
S3151000E3B04E235940084B11601A68059B5A404FF07E
S3151000E3C0000305D00DF092F80546D0E70546C6E7DE
S3151000E3D007B0BDE8F08F00BF18170020905002104C
S3151000E3E007B50C4B00EB81011B6801934FF000033E
S3151000E3F003681BBA40F8043B8142F9D1054B1A68F1
S3151000E400019B5A404FF0000301D00DF06FF803B096
S3151000E4105DF804FB181700202DE9F04FADF5885D67
S3151000E42083B0CDE901120DF58952103204461668F3
S3151000E430274A0DF588503C2B00F104001268026043
S3151000E4404FF0000213DC0CF02DFD22230360002395
S3151000E45002930DF588511E4B1A684B685A404FF0BF
S3151000E460000301F1040101F0AC850DF03FF8019BAA
S3151000E4701B78242B28D1019B5B78322B24D1019B4E
S3151000E4809B78A3F16102192A1ED8124D2B4413F85A
S3151000E490613CCBB1019BDB78242B15D1019B1879FC
S3151000E4A0A0F13002D3B2032B0ED8019B5979A1F1FA
S3151000E4B03003DFB2092F07D8332801D1312903D809
S3151000E4C001998979242907D00CF0ECFC1623BDE7B5
S3151000E4D018170020D83F02100A2101FB023301222F
S3151000E4E002FA03F3B3420493EED3019B26480DF5CB
S3151000E4F087520B330DF15C0B0F32062613F8041CF2
S3151000E50020395F29E0D8475C3F2FDDD813F8031C6C
S3151000E51020395F29D8D810F801C0BCF13F0FD3D8E5
S3151000E5204FEA1C1141EA8701012E02F8031C41F043
S3151000E530B8820BF5845004211030FFF751FF019B70
S3151000E5409B782B441AAA0BF5825113F8613C02F6FC
S3151000E550F4722046083142AC0392FFF7DDFE0B49F8
S3151000E5604FF48052A4F1AC000CF0AAFE0027DDF89F
S3151000E5700CE0BC463D4617AB0DF65C420DF65C0151
S3151000E5800DF25C4004E000BFF23F0210944002100E
S3151000E59007F0020804EB8806D4F8549FD6F8E46F07
S3151000E5A086EA090989EA05054FEA850909F47F799A
S3151000E5B0CDF81490AE0D4FEA95394FEA951A09F435
S3151000E5C07F7906F47F760AF47F7A50F809909E597F
S3151000E5D051F80AA004EB88084E4486EA0A0AD8F8CD
S3151000E5E0E86FD4F8588F86EA0808059E9659B24403
S3151000E5F088EA0A0888EA0C0C4FEA9C3A4FEA9C56BD
S3151000E6004FEA9C190AF47F7A06F47F7609F47F792B
S3151000E61050F80AA09E5951F8099056444FEA8C08B2
S3151000E62086EA090908F47F78D4F85C6F6E4052F8D0
S3151000E63008504D4475404FEA953AAE0D4FEA95197C
S3151000E6400AF47F7A06F47F7609F47F7950F80AA0E7
S3151000E6509E5951F8099056444FEA850808F47F7878
S3151000E66086EA0909D4F8606F8CEA060C52F808603D
S3151000E670B14489EA0C094FEA993A4FEA99564FEA9A
S3151000E680991C0AF47F7A06F47F760CF47F7C50F896
S3151000E6900AA09E5951F80CC056444FEA890808F44E
S3151000E6A07F7886EA0C0CD4F8646F754052F80860CF
S3151000E6B0B4448CEA050C4FEA9C3A4FEA9C554FEA53
S3151000E6C09C180AF47F7A05F47F7508F47F7850F861
S3151000E6D00AA05D5951F8088055444FEA8C0606F495
S3151000E6E07F7685EA0808D4F8685F89EA050995599E
S3151000E6F0A84488EA09084FEA983A4FEA98554FEA2B
S3151000E70098160AF47F7A05F47F7506F47F7650F82A
S3151000E7100AA05D598E5955444FEA880909F47F7944
S3151000E7206E40D4F86C5F8CEA050C52F809502E44F2
S3151000E73086EA0C064FEA963AB50D4FEA961C0AF48D
S3151000E7407F7A05F47F750CF47F7C50F80AA05D592A
S3151000E75051F80CC055444FEA860909F47F7985EAC9
S3151000E7600C0CD4F8705F88EA050852F80950AC44CE
S3151000E7708CEA080C4FEA9C3A4FEA9C554FEA9C18D3
S3151000E7800AF47F7A05F47F7508F47F7850F80AA0AA
S3151000E7905D5951F8088055444FEA8C0909F47F7980
S3151000E7A085EA0808D4F8745F6E4052F80950A844F8
S3151000E7B088EA06084FEA983A4FEA98554FEA9816AB
S3151000E7C00AF47F7A05F47F7506F47F7650F80AA06E
S3151000E7D05D598E5955444FEA880909F47F796E4080
S3151000E7E0D4F8785F8CEA050C52F809502E4486EA64
S3151000E7F00C064FEA963AB50D4FEA961C0AF47F7A44
S3151000E80005F47F750CF47F7C50F80AA05D5951F819
S3151000E8100CC055444FEA860909F47F7985EA0C0C39
S3151000E820D4F87C5F88EA050852F80950AC448CEAA3
S3151000E830080C4FEA9C3A4FEA9C554FEA9C180AF48A
S3151000E8407F7A05F47F7508F47F7850F80AA05D5931
S3151000E85051F8088055444FEA8C0909F47F7985EA06
S3151000E8600808D4F8805F6E4052F80950A84488EA28
S3151000E87006084FEA983A4FEA98554FEA98160AF45E
S3151000E8807F7A05F47F7506F47F7650F80AA05D59F5
S3151000E8908E5955444FEA880909F47F796E40D4F8A9
S3151000E8A0845F8CEA050C52F809502E4486EA0C0651
S3151000E8B04FEA963AB50D4FEA961C0AF47F7A05F49C
S3151000E8C07F750CF47F7C50F80AA05D5951F80CC086
S3151000E8D055444FEA860909F47F7985EA0C0CD4F879
S3151000E8E0885F88EA050852F80950AC448CEA080C8F
S3151000E8F04FEA9C3A4FEA9C554FEA9C180AF47F7AE5
S3151000E90005F47F7508F47F7850F80AA05D5951F820
S3151000E910088055444FEA8C0909F47F7985EA08087E
S3151000E920D4F88C5F6E4052F80950A84488EA06085D
S3151000E9304FEA983A4FEA98550AF47F7A05F47F75AC
S3151000E9404FEA98165D5950F80AA006F47F764FEAFA
S3151000E9508809AA4409F47F798D59D4F8906F8CEA06
S3151000E960060C52F809608AEA0505354485EA0C0555
S3151000E9704FEA953AAE0D4FEA951C0AF47F7A06F4E3
S3151000E9807F760CF47F7C50F80AA09E5951F80CC083
S3151000E9904FEA8509564486EA0C0C09F47F79D4F8B7
S3151000E9A0946F88EA060852F80960B444D4F8986F50
S3151000E9B002378CEA080C7540122FCEE9005C0EF176
S3151000E9C0080E7FF4E5AD9E464FF4807A42AB704652
S3151000E9D00DF65C420DF65C010DF25C44D3F8547FE3
S3151000E9E0D3F8EC6F7E406E404FEA9638B50D08F4BA
S3151000E9F07F7805F47F75B709455954F8088007F4F0
S3151000EA007F77A844CD59D3F8F07F4FEA860909F4E9
S3151000EA107F7988EA0508D3F8585F7D4052F8097067
S3151000EA20B84485EA080585EA0C054FEA9539AF0D15
S3151000EA304FEA951809F47F7907F47F7708F47F7801
S3151000EA4054F80990C75951F808804F444FEA850C7D
S3151000EA5087EA08080CF47F7CD3F85C7F7E4052F876
S3151000EA600C70474477404FEA9739BE0D4FEA971816
S3151000EA7009F47F7906F47F7608F47F7854F80990C4
S3151000EA80865951F808804E444FEA870C86EA0808E2
S3151000EA900CF47F7CD3F8606F754052F80C604644D6
S3151000EAA06E404FEA9639B50D4FEA961C09F47F79F8
S3151000EAB005F47F750CF47F7C54F80990455951F88C
S3151000EAC00CC04D444FEA860808F47F7885EA0C0C92
S3151000EAD0D3F8645F6F4052F80850AC448CEA070CC8
S3151000EAE04FEA9C394FEA9C554FEA9C1709F47F79F7
S3151000EAF005F47F7507F47F7754F809904559CF5977
S3151000EB004D444FEA8C0808F47F786F40D3F8685F5D
S3151000EB106E4052F808502F4477404FEA9739BD0D92
S3151000EB20BE0909F47F7905F47F7506F47F7654F8EB
S3151000EB30099045598E594D444FEA870808F47F7855
S3151000EB406E40D3F86C5F8CEA050C52F808502E44D0
S3151000EB5086EA0C064FEA9639B50D4FEA961C09F46B
S3151000EB607F7905F47F750CF47F7C54F8099045592C
S3151000EB7051F80CC04D444FEA860808F47F7885EAB0
S3151000EB800C0CD3F8705F6F4052F80850AC448CEA06
S3151000EB90070C4FEA9C394FEA9C554FEA9C1709F42B
S3151000EBA07F7905F47F7507F47F7754F809904559F6
S3151000EBB0CF594D444FEA8C0808F47F786F40D3F84C
S3151000EBC0745F6E4052F808502F4477404FEA9739D9
S3151000EBD0BD0DBE0909F47F7905F47F7506F47F76BD
S3151000EBE054F8099045598E594D444FEA870808F450
S3151000EBF07F786E40D3F8785F8CEA050C52F808508F
S3151000EC002E4486EA0C064FEA9639B50D4FEA961C45
S3151000EC1009F47F7905F47F750CF47F7C54F809901C
S3151000EC20455951F80CC04D444FEA860808F47F78D0
S3151000EC3085EA0C0CD3F87C5F6F4052F80850AC4450
S3151000EC408CEA070C4FEA9C394FEA9C554FEA9C1701
S3151000EC5009F47F7905F47F7507F47F7754F80990E6
S3151000EC604559CF594D444FEA8C0808F47F786F40C8
S3151000EC70D3F8805F6E4052F808502F4477404FEA21
S3151000EC809739BD0DBE0909F47F7905F47F7506F431
S3151000EC907F7654F8099045598E594D444FEA8708A6
S3151000ECA008F47F786E40D3F8845F8CEA050C52F82E
S3151000ECB008502E4486EA0C064FEA9639B50D4FEAEF
S3151000ECC0961C09F47F7905F47F750CF47F7C54F853
S3151000ECD00990455951F80CC04D444FEA860808F47E
S3151000ECE07F7885EA0C0CD3F8885F6F4052F808508D
S3151000ECF0AC448CEA070C4FEA9C394FEA9C554FEA14
S3151000ED009C1709F47F7905F47F7507F47F7754F81B
S3151000ED1009904559CF594D444FEA8C0808F47F782D
S3151000ED206F40D3F88C5F6E4052F808502F447740EE
S3151000ED304FEA9739BD0DBE0909F47F7905F47F7541
S3151000ED4006F47F7654F8099045598E594D444FEA8A
S3151000ED50870808F47F786E40D3F8905F8CEA050C2C
S3151000ED6052F808502E4486EA0C064FEA9639B50D2D
S3151000ED704FEA961C09F47F7905F47F750CF47F7CB5
S3151000ED8054F80990455951F80CC04D444FEA86087D
S3151000ED9008F47F7885EA0C0CD3F8945F6F4052F82C
S3151000EDA00850AC44D3F8985F6E404EF8106B8CEA5E
S3151000EDB0070C4EF80CCCD3F8547FD3F8E45F7D40A3
S3151000EDC075404FEA9538AF0DAE0908F47F7807F411
S3151000EDD07F7706F47F7654F80880C7598E594FEA24
S3151000EDE08509474487EA060809F47F79D3F8587FDE
S3151000EDF0D3F8E86F7E4052F8097086EA0C0647444D
S3151000EE0077404FEA9739BE0D4FEA971809F47F7984
S3151000EE1006F47F7608F47F7854F80990865951F8ED
S3151000EE2008804E444FEA870C0CF47F7C86EA08086B
S3151000EE30D3F85C6F754052F80C60B04488EA050848
S3151000EE404FEA98394FEA98554FEA981609F47F79A0
S3151000EE5005F47F7506F47F7654F8099045598E5956
S3151000EE604D444FEA880C0CF47F7C6E40D3F8605FFB
S3151000EE706F4052F80C502E447E404FEA9639B50D2D
S3151000EE804FEA961C09F47F7905F47F750CF47F7CA4
S3151000EE9054F80990455951F80CC04D44B70007F481
S3151000EEA07F7785EA0C0CD3F8645F88EA0508D55994
S3151000EEB0AC448CEA080C4FEA9C394FEA9C554FEA51
S3151000EEC09C1709F47F7905F47F7507F47F7754F85A
S3151000EED009904559CF594D444FEA8C0808F47F786C
S3151000EEE06F40D3F8685F6E4052F808502F44774051
S3151000EEF04FEA9739BD0DBE0909F47F7905F47F7580
S3151000EF0006F47F7654F8099045598E594D444FEAC8
S3151000EF10870808F47F786E40D3F86C5F8CEA050C8E
S3151000EF2052F808502E4486EA0C064FEA9639B50D6B
S3151000EF304FEA961C09F47F7905F47F750CF47F7CF3
S3151000EF4054F80990455951F80CC04D444FEA8608BB
S3151000EF5008F47F7885EA0C0CD3F8705F6F4052F88E
S3151000EF600850AC448CEA070C4FEA9C394FEA9C5582
S3151000EF704FEA9C1709F47F7905F47F7507F47F77BC
S3151000EF8054F809904559CF594D444FEA8C0808F466
S3151000EF907F786F40D3F8745F6E4052F808502F4454
S3151000EFA077404FEA9739BD0DBE0909F47F7905F40C
S3151000EFB07F7506F47F7654F8099045598E594D445D
S3151000EFC04FEA870808F47F786E40D3F8785F8CEAAA
S3151000EFD0050C52F808502E4486EA0C064FEA96396C
S3151000EFE0B50D4FEA961C09F47F7905F47F750CF47C
S3151000EFF07F7C54F80990455951F80CC04D444FEA9E
S3151000F000860808F47F7885EA0C0CD3F87C5F6F408D
S3151000F01052F80850AC448CEA070C4FEA9C394FEA78
S3151000F0209C554FEA9C1709F47F7905F47F7507F410
S3151000F0307F7754F809904559CF594D444FEA8C08BB
S3151000F04008F47F786F40D3F8805F6E4052F808500E
S3151000F0502F4477404FEA9739BD0DBE0909F47F79E1
S3151000F06005F47F7506F47F7654F8099045598E5944
S3151000F0704D444FEA870808F47F786E40D3F8845FD2
S3151000F0808CEA050C52F808502E4486EA0C064FEA14
S3151000F0909639B50D4FEA961C09F47F7905F47F75FC
S3151000F0A00CF47F7C54F80990455951F80CC04D4426
S3151000F0B04FEA860808F47F7885EA0C0CD3F8885F47
S3151000F0C06F4052F80850AC448CEA070C4FEA9C3952
S3151000F0D04FEA9C554FEA9C1709F47F7905F47F7522
S3151000F0E007F47F7754F809904559CF594D444FEAA4
S3151000F0F08C0808F47F786F40D3F88C5F6E4052F816
S3151000F10008502F4477404FEA9739BD0D09F47F799F
S3151000F11005F47F75BE0954F80990455906F47F76B3
S3151000F1204FEA8708A94408F47F788D59D3F8906F71
S3151000F1308CEA060C52F8086089EA0505354485EA1A
S3151000F1400C054FEA9539AE0D4FEA951C09F47F79F7
S3151000F15006F47F760CF47F7C54F80990865951F8A2
S3151000F1600CC04FEA85084E4486EA0C0C08F47F78EA
S3151000F170D3F8946F774052F80860B444D3F8986F78
S3151000F1808CEA070C7540BAF1010A4EE9025C7FF46D
S3151000F19025AC42AB0DF15C090DF65C420DF65C0137
S3151000F1A0039D00262868AC6C60402860EC6C68688B
S3151000F1B002366040122E686005F10805F2D1022071
S3151000F1C005900DF25C4000270DF58255BC460926C8
S3151000F1D01C35D3F8544F8CEA040C4FEA9C3A4FEA8C
S3151000F1E09C5E4FEA9C180AF47F7A0EF47F7E4FEAF3
S3151000F1F08C0408F47F7850F80AA059F80EE051F8FC
S3151000F200088004F47F74D64414598EEA080E0EEB67
S3151000F2100408D3F8584F88EA040888EA07074FEA23
S3151000F220973ABC0D4FEA97180AF47F7A04F47F7464
S3151000F23008F47F7850F80AA059F8044051F808806D
S3151000F24054444FEA870E0EF47F7E84EA0808D3F8FA
S3151000F2505C4F8CEA040C52F80E40A04488EA0C0C61
S3151000F2604FEA9C3A4FEA9C544FEA9C180AF47F7A6C
S3151000F27004F47F7408F47F7850F80AA059F8044013
S3151000F28051F8088054444FEA8C0E0EF47F7E84EABF
S3151000F2900808D3F8604F674052F80E40A04488EA39
S3151000F2A007084FEA983A4FEA98544FEA98170AF423
S3151000F2B07F7A04F47F7407F47F7750F80AA059F820
S3151000F2C00440CF5954444FEA880E0EF47F7E6740AF
S3151000F2D0D3F8644F8CEA040C52F80E40274487EAA0
S3151000F2E00C074FEA973ABC0D4FEA971E0AF47F7A3D
S3151000F2F004F47F740EF47F7E50F80AA059F8044087
S3151000F30051F80EE054444FEA870C0CF47F7C84EAE3
S3151000F3100E0ED3F8684F88EA040852F80C40A6443B
S3151000F3208EEA080E4FEA9E3A4FEA9E544FEA9E1C0A
S3151000F3300AF47F7A04F47F740CF47F7C50F80AA0E8
S3151000F34059F8044051F80CC054444FEA8E0808F49A
S3151000F3507F7884EA0C0CD3F86C4F674052F808405B
S3151000F360A4448CEA070C4FEA9C3A4FEA9C544FEAA5
S3151000F3709C170AF47F7A04F47F7407F47F7750F8A9
S3151000F3800AA059F80440CF5954444FEA8C0808F49F
S3151000F3907F786740D3F8704F8EEA040E52F8084013
S3151000F3A0274487EA0E074FEA973ABC0D4FEA971E95
S3151000F3B00AF47F7A04F47F740EF47F7E50F80AA064
S3151000F3C059F8044051F80EE054444FEA870808F4FF
S3151000F3D07F7884EA0E0ED3F8744F8CEA040C52F838
S3151000F3E00840A6448EEA0C0E4FEA9E3A4FEA9E5407
S3151000F3F04FEA9E1C0AF47F7A04F47F740CF47F7C27
S3151000F40050F80AA059F8044051F80CC054444FEA79
S3151000F4108E0808F47F7884EA0C0CD3F8784F67408E
S3151000F42052F80840A4448CEA070C4FEA9C3A4FEA7B
S3151000F4309C544FEA9C170AF47F7A04F47F7407F4FD
S3151000F4407F7750F80AA059F80440CF5954444FEA30
S3151000F4508C0808F47F786740D3F87C4F8EEA040E48
S3151000F46052F80840274487EA0E074FEA973ABC0D30
S3151000F4704FEA971E0AF47F7A04F47F740EF47F7EA7
S3151000F48050F80AA059F8044051F80EE054444FEAD7
S3151000F490870808F47F7884EA0E0ED3F8804F8CEA3A
S3151000F4A0040C52F80840A6448EEA0C0E4FEA9E3A17
S3151000F4B04FEA9E544FEA9E1C0AF47F7A04F47F7436
S3151000F4C00CF47F7C50F80AA059F8044051F80CC08F
S3151000F4D054444FEA8E0808F47F7884EA0C0CD3F86B
S3151000F4E0844F674052F80840A4448CEA070C4FEA50
S3151000F4F09C3A4FEA9C544FEA9C170AF47F7A04F41C
S3151000F5007F7407F47F7750F80AA059F80440CF5952
S3151000F51054444FEA8C0808F47F786740D3F8884F34
S3151000F5208EEA040E52F80840274487EA0E074FEA7F
S3151000F530973ABC0D4FEA971E0AF47F7A04F47F744B
S3151000F5400EF47F7E50F80AA059F8044051F80EE0E8
S3151000F55054444FEA870808F47F7884EA0E0ED3F8ED
S3151000F5608C4F8CEA040C52F80840A6448EEA0C0E16
S3151000F5704FEA9E3C4FEA9E540CF47F7C04F47F7451
S3151000F5804FEA9E1A50F80CC059F804400AF47F7AD4
S3151000F590644451F80AC04FEA8E0808F47F7884EA6A
S3151000F5A00C0CD3F8904F674052F80840A4448CEAEC
S3151000F5B0070C4FEA9C3A4FEA9C544FEA9C170AF400
S3151000F5C07F7A04F47F7407F47F7750F80AA059F80D
S3151000F5D00440CF594FEA8C085444674008F47F78AA
S3151000F5E0D3F8944F8EEA040E52F808402744D3F805
S3151000F5F0984F8CEA040C45F808CB87EA0E07013EB3
S3151000F60045F8047C7FF4E5AD4FF400754C46D3F80D
S3151000F610546F8CEA060C4FEA9C3A4FEA9C5E4FEA0E
S3151000F6209C180AF47F7A0EF47F7E4FEA8C0608F453
S3151000F6307F7850F80AA05BF80EE051F8088006F4BF
S3151000F6407F76D64496598EEA080E0EEB0608D3F846
S3151000F650586F88EA060888EA07074FEA973ABE0DF8
S3151000F6604FEA97180AF47F7A06F47F7608F47F78C3
S3151000F67050F80AA05BF8066051F8088056444FEA25
S3151000F680870E0EF47F7E86EA0808D3F85C6F8CEA44
S3151000F690060C52F80E60B04488EA0C0C4FEA9C3AFD
S3151000F6A04FEA9C564FEA9C180AF47F7A06F47F7646
S3151000F6B008F47F7850F80AA05BF8066051F80880C5
S3151000F6C056444FEA8C0E0EF47F7E86EA0808D3F86D
S3151000F6D0606F774052F80E60B04488EA07084FEA28
S3151000F6E0983A4FEA98564FEA98170AF47F7A06F432
S3151000F6F07F7607F47F7750F80AA05BF80660CF593B
S3151000F70056444FEA880E0EF47F7E7740D3F8646F26
S3151000F7108CEA060C52F80E60374487EA0C074FEA5B
S3151000F720973ABE0D4FEA971E0AF47F7A06F47F7653
S3151000F7300EF47F7E50F80AA05BF8066051F80EE0D2
S3151000F74056444FEA870C0CF47F7C86EA0E0ED3F8EB
S3151000F750686F88EA060852F80C60B6448EEA080EFE
S3151000F7604FEA9E3A4FEA9E564FEA9E1C0AF47F7A5B
S3151000F77006F47F760CF47F7C50F80AA05BF80660DE
S3151000F78051F80CC056444FEA8E0808F47F7886EA82
S3151000F7900C0CD3F86C6F774052F80860B4448CEABE
S3151000F7A0070C4FEA9C3A4FEA9C564FEA9C170AF40C
S3151000F7B07F7A06F47F7607F47F7750F80AA05BF815
S3151000F7C00660CF5956444FEA8C0808F47F78774084
S3151000F7D0D3F8706F8EEA060E52F80860374487EA3F
S3151000F7E00E074FEA973ABE0D4FEA971E0AF47F7A34
S3151000F7F006F47F760EF47F7E50F80AA05BF806605A
S3151000F80051F80EE056444FEA870808F47F7886EAE6
S3151000F8100E0ED3F8746F8CEA060C52F80860B644D4
S3151000F8208EEA0C0E4FEA9E3A4FEA9E564FEA9E1CFF
S3151000F8300AF47F7A06F47F760CF47F7C50F80AA0DF
S3151000F8405BF8066051F80CC056444FEA8E0808F46F
S3151000F8507F7886EA0C0CD3F8786F774052F80860F8
S3151000F860B4448CEA070C4FEA9C3A4FEA9C564FEA8E
S3151000F8709C170AF47F7A06F47F7607F47F7750F8A0
S3151000F8800AA05BF80660CF5956444FEA8C0808F474
S3151000F8907F787740D3F87C6F8EEA060E52F80860B0
S3151000F8A0374487EA0E074FEA973ABE0D4FEA971E7E
S3151000F8B00AF47F7A06F47F760EF47F7E50F80AA05B
S3151000F8C05BF8066051F80EE056444FEA870808F4D4
S3151000F8D07F7886EA0E0ED3F8806F8CEA060C52F803
S3151000F8E00860B6448EEA0C0E4FEA9E3A4FEA9E56D0
S3151000F8F04FEA9E1C0AF47F7A06F47F760CF47F7C1E
S3151000F90050F80AA05BF8066051F80CC056444FEA4E
S3151000F9108E0808F47F7886EA0C0CD3F8846F77404B
S3151000F92052F80860B4448CEA070C4FEA9C3A4FEA46
S3151000F9309C564FEA9C170AF47F7A06F47F7607F4F2
S3151000F9407F7750F80AA05BF80660CF5956444FEA05
S3151000F9508C0808F47F787740D3F8886F8EEA060E05
S3151000F96052F80860374487EA0E074FEA973ABE0DF9
S3151000F9704FEA971E0AF47F7A06F47F760EF47F7E9E
S3151000F98050F80AA05BF8066051F80EE056444FEAAC
S3151000F990870808F47F7886EA0E0ED3F88C6F8CEA07
S3151000F9A0060C52F80860B6448EEA0C0E4FEA9E3CDE
S3151000F9B04FEA9E560CF47F7C06F47F764FEA9E1A29
S3151000F9C050F80CC05BF806600AF47F7A664451F86A
S3151000F9D00AC04FEA8E0808F47F7886EA0C0CD3F832
S3151000F9E0906F774052F80860B4448CEA070C4FEADF
S3151000F9F09C3A4FEA9C564FEA9C170AF47F7A06F413
S3151000FA007F7607F47F7750F80AA05BF80660CF5927
S3151000FA104FEA8C085644774008F47F78D3F8946FF1
S3151000FA208EEA060E52F808603744D3F8986F8CEABF
S3151000FA30060C44F808CB87EA0E07013D44F8047C0F
S3151000FA407FF4E5AD059C012C4DD0D3F8E4CFD3F867
S3151000FA50E87FD3F8EC8FD3F8F0EF039C266886EA9C
S3151000FA600C06266066687E406660A66886EA08060A
S3151000FA70A660E668043586EA0E06102DE66004F1E7
S3151000FA801004EBD1D3F8944F84EA0C04C3F8944FC6
S3151000FA90D3F8984F7C40C3F8984F01240594FFF78C
S3151000FAA092BB13F8021C20395F293EF60DAD475C58
S3151000FAB03F2F3EF609ADB90841EA0C1102F8021CB7
S3151000FAC013F8011C20395F293EF6FEAC415C3F2934
S3151000FAD03EF6FAAC41EA871102F8011C013E0433E6
S3151000FAE00332FEF70BBD0498013804907FF458AB2F
S3151000FAF0D3F8542F0392D3F8582F0492D3F85C2FCF
S3151000FB000592D3F8602F0692D3F8642F0792D3F894
S3151000FB10682F0892D3F86C2F0992D3F8702F0A9297
S3151000FB20D3F8742F0B92D3F8782F0C92D3F87C2F2E
S3151000FB300D92D3F8802F0E92D3F8842F0F92D3F80C
S3151000FB40882F1092D3F88C2F1192D3F8902F1292EF
S3151000FB500BF5845CD3F8942F094FD3F8983F139282
S3151000FB6014930CF1100C17AA0DF65C410DF65C00FF
S3151000FB700DF25C44D7E900364FF0400E02E000BFAC
S3151000FB80DC500210039D6B404FEA933A9D0D4FEAED
S3151000FB9093190AF47F7A05F47F7509F47F7954F87E
S3151000FBA00AA0555950F809904FEA830808F47F784F
S3151000FBB0554485EA090951F80850A944049D89EA73
S3151000FBC005057540AE004FEA953A4FEA955806F48A
S3151000FBD07F7615964FEA9519059E0AF47F7A08F4F2
S3151000FBE07F7809F47F7954F80AA052F8088050F803
S3151000FBF009907340159ED0448E5988EA0909B1447C
S3151000FC0089EA03039E004FEA933A4FEA935806F4A3
S3151000FC107F7615964FEA9319069E0AF47F7A08F4B2
S3151000FC207F7809F47F7954F80AA052F8088050F8C2
S3151000FC3009907540159ED0448E5988EA0909B14439
S3151000FC4089EA05084FEA983A4FEA98564FEA981902
S3151000FC500AF47F7A06F47F7609F47F7954F80AA0BD
S3151000FC60965950F8099056444FEA880505F47F7561
S3151000FC7086EA0909079E73404E59B14489EA03067C
S3151000FC804FEA963AB50D4FEA96190AF47F7A05F4BB
S3151000FC907F7509F47F7954F80AA0555950F80990E0
S3151000FCA05544B30003F47F7385EA0909089D85EA74
S3151000FCB00808CD58A94489EA08054FEA953AAB0DCC
S3151000FCC04FEA95190AF47F7A03F47F7309F47F7962
S3151000FCD054F80AA0D35850F8099053444FEA8508AF
S3151000FCE008F47F7883EA0909099B5E4051F80830C9
S3151000FCF0994489EA06034FEA933A9E0D4FEA9319FF
S3151000FD000AF47F7A06F47F7609F47F7954F80AA00C
S3151000FD10965950F8099056444FEA830808F47F78AC
S3151000FD2086EA09090A9E754051F80860B14489EAC5
S3151000FD3005064FEA963AB50D4FEA96190AF47F7AF8
S3151000FD4005F47F7509F47F7954F80AA0555950F8CF
S3151000FD50099055444FEA860808F47F7885EA090920
S3151000FD600B9D6B4051F80850A94489EA03054FEAE8
S3151000FD70953AAB0D4FEA95190AF47F7A03F47F731F
S3151000FD8009F47F7954F80AA0D35850F809905344CF
S3151000FD904FEA850808F47F7883EA09090C9B5E40D0
S3151000FDA051F80830994489EA06034FEA933A9E0DB2
S3151000FDB04FEA93190AF47F7A06F47F7609F47F796D
S3151000FDC054F80AA0965950F8099056444FEA8308F9
S3151000FDD008F47F7886EA09090D9E754051F8086087
S3151000FDE0B14489EA05064FEA963AB50D4FEA9619D7
S3151000FDF00AF47F7A05F47F7509F47F7954F80AA01E
S3151000FE00555950F8099055444FEA860808F47F78FA
S3151000FE1085EA09090E9D6B4051F80850A94489EAF4
S3151000FE2003054FEA953AAB0D4FEA95190AF47F7A16
S3151000FE3003F47F7309F47F7954F80AA0D35850F865
S3151000FE40099053444FEA850808F47F7883EA090934
S3151000FE500F9B5E4051F80830994489EA06034FEA31
S3151000FE60933A9E0D4FEA93190AF47F7A06F47F7639
S3151000FE7009F47F7954F80AA0965950F80990564417
S3151000FE804FEA830808F47F7886EA0909109E7540C0
S3151000FE9051F80860B14489EA05064FEA963AB50D5D
S3151000FEA04FEA96190AF47F7A05F47F7509F47F797B
S3151000FEB054F80AA0555950F8099055444FEA860847
S3151000FEC008F47F7885EA0909119D6B4051F80850AE
S3151000FED0A94489EA03054FEA953AAB0D4FEA9519FD
S3151000FEE00AF47F7A03F47F7309F47F7954F80AA031
S3151000FEF0D35850F8099053444FEA850808F47F7890
S3151000FF0083EA0909129B5E4051F80830994489EA40
S3151000FF1006034FEA933A9E0D4FEA93190AF47F7A35
S3151000FF2006F47F7609F47F7954F80AA0965950F8AA
S3151000FF3009904FEA8308564486EA090908F47F783F
S3151000FF40139E754051F80860B14489EA0506149D60
S3151000FF50BEF1010E83EA05037FF414AECCE9003638
S3151000FF601B4B0837BB420CF1080C7FF403AEDDE9DE
S3151000FF70013219461C3153F8040B42F8040B8B421C
S3151000FF80F9D1019B1A7F134B1344134A13F8203CE3
S3151000FF9003F030030BF58454D35C029A10341377B4
S3151000FFA006212046FEF71CFA029B172203F11D00BC
S3151000FFB02146FEF76FF9029A002382F83C30FEF7CD
S3151000FFC048BA02980DF5885D03B0BDE8F08F00BF02
S3151000FFD0F4500210F23F02105240021013B5124BA9
S3151000FFE0022A1B6801934FF0000318DD2A230B70B9
S3151000FFF030234B7000238B7003782A2B02D1437861
S31510010000302B09D00020084B1A68019B5A404FF03B
S31510010010000307D00BF06AFA31234B70F2E74FF069
S31510010020FF30F0E702B010BD181700202DE9F04F90
S315100100300D4617469846504BE7B004464246394698
S3151001004028461B6865934FF00003FFF7C7FF10237F
S315100100503A460093294643462046FEF7DDF9064601
S315100100600AF020FF03680393444B4DAA03F1180CC1
S31510010070934618685968144603C4083363452246E3
S31510010080F7D118689B882060A380002E5ED0AA78CD
S315100100903B4B3C498DF83621134413F8613C03F070
S315100100A0010351F823A00DF5A9793E2255214846A1
S315100100B00AF0C0FD01230093334800243D234A462C
S315100100C059468DF89041FEF7A7F981450DD11D22AC
S315100100D059460AF091FC40B9222251460DF26F1091
S315100100E00AF08AFCB0FA80F464092848022317AA98
S315100100F005A9FEF711F904233BAA244829A9FEF7FD
S315100101000BF9179B83F48032179214B3204A93424A
S315100101101FD1204B3A9A9A421BD1482229A905A8E8
S315100101200AF06AFCA8B948223BA917A80AF064FC90
S3151001013078B90AF0B7FE039B03600F4B1A68659BEB
S315100101405A404FF0000313D00BF0D0F9DFF848A056
S31510010150A9E70AF0A7FE039B0360424639462846E3
S31510010160FFF73CFF0AF09EFE162303600026E4E724
S31510010170304667B0BDE8F08F18170020B23F021065
S31510010180D83F0210D03F02109C3F0210A63F02102A
S31510010190BC599DDB00353433F450021037B5094C88
S315100101A0246801944FF00004064C2568019C6540B3
S315100101B04FF0000401D00BF099F903B0BDE83040BF
S315100101C0FFF734BF1817002007B50B4B1B680193B7
S315100101D04FF0000304F016FE084A1368013313604A
S315100101E0054B1A68019B5A404FF0000301D00BF0E2
S315100101F07DF903B05DF804FB181700201C0C0020D4
S315100102002DE9F0411F461A4B86B005460E4690461B
S315100102101B6805934FF0000300F06EF8044698B979
S3151001022036238DF80D00CDE9003802978DF80C6054
S31510010230684695B100F020F90E4B1A68002AFCD0D9
S3151001024000221A6000F092F8094B1A68059B5A4071
S315100102504FF0000307D00BF049F900F0D9F8002848
S31510010260F0D00446F0E7204606B0BDE8F08100BFA5
S31510010270181700201C0C00202DE9F043984687B072
S315100102801B4BDDF8389005460F4616461B6805933D
S315100102904FF0000300F030F80446A8B93623CDE933
S315100102A00038CDF808908DF80C708DF80D60684601
S315100102B09DB100F0FBF8A0B90E4B1A68002AFCD0CC
S315100102C000221A6000F052F8094B1A68059B5A4031
S315100102D04FF0000307D00BF009F900F0B3F800282E
S315100102E0F0D00446F0E7204607B0BDE8F08300BF22
S315100102F0181700201C0C002007B50D4B2F201B686A
S3151001030001934FF0000304F0B1FC222004F0AEFC7F
S31510010310074B1A68019B5A404FF0000301D00BF0AE
S31510010320E5F8044803B05DF804EB00F02FB900BFFF
S31510010330181700200074004007B50A4B1B6801937B
S315100103404FF00003074B1A68019B5A404FF0000308
S3151001035001D00BF0CBF8044803B05DF804EB00F0C4
S31510010360F9B800BF181700200074004013B50C4BE4
S315100103700C481B6801934FF0000300F07BF904460B
S315100103802F2004F053FC064B1A68019B5A404FF07C
S31510010390000301D00BF0AAF8204602B010BD00BF31
S315100103A0181700200074004007B50A4B1B6801930B
S315100103B04FF00003074B1A68019B5A404FF0000398
S315100103C001D00BF093F8044803B05DF804EB00F08C
S315100103D071B900BF181700200074004007B50A4B09
S315100103E01B6801934FF00003074B1A68019B5A4093
S315100103F04FF00003014601D00BF078F8034803B023
S315100104005DF804EB00F072B9181700200074004073
S3151001041007B50A4B1B6801934FF00003074B1A6887
S31510010420019B5A404FF00003014601D00BF05EF8D4
S31510010430034803B05DF804EB00F0EAB91817002081
S315100104400074004007B50A4B1B6801934FF0000377
S31510010450074B1A68019B5A404FF00003014601D021
S315100104600BF044F8034803B05DF804EB00F0E6B96D
S31510010470181700200074004007B50A4B1B6801933A
S315100104804FF00003074B1A68019B5A404FF00003C7
S31510010490014601D00BF02AF8034803B05DF804EBCE
S315100104A000F02EBB181700200074004007B50A4B48
S315100104B01B6801934FF00003074B1A68019B5A40C2
S315100104C04FF00003014601D00BF010F8034803B0BA
S315100104D05DF804EB00F02CBB1817002000740040E7
S315100104E007B50B4B1B6801934FF00003084B0A46E7
S315100104F01968019B59404FF0000301D00AF0F6FF2D
S315100105000146044803B05DF804EB00F029BB00BFB7
S31510010510181700200078004013B50D4B1B68019386
S315100105204FF00003131F18440439121A51F8043FEF
S315100105301BBA40F80439D042F8D1054B1A68019B11
S315100105405A404FF0000301D00AF0D0FF02B010BD9F
S315100105501817002007B50C4B1B6801934FF00003C9
S31510010560436813F0010F084B14BF6FF0050000200C
S315100105701A68019B5A404FF0000301D00AF0B6FFEA
S3151001058003B05DF804FB00BF1817002013B50E4B1E
S315100105901B6801934FF000030023044603602046B5
S315100105A0FFF7D8FF0028FAD1236843F0010323602F
S315100105B0054B1A68019B5A404FF0000301D00AF00F
S315100105C095FF02B010BD00BF1817002037B50C4BB0
S315100105D005460C461B6801934FF00003FFF7ACFE6E
S315100105E00028FBD12B681C43054B2C601A68019B14
S315100105F05A404FF0000301D00AF078FF03B030BD26
S315100106001817002013B50C4B04461B6801934FF0C5
S315100106100003FFF791FE0028FBD1236843F0100376
S315100106202360054B1A68019B5A404FF0000301D015
S315100106300AF05CFF02B010BD1817002013B50C4B61
S3151001064004461B6801934FF00003FFF775FE00285F
S31510010650FBD1236843F020032360054B1A68019BE5
S315100106605A404FF0000301D00AF040FF02B010BD0E
S315100106701817002013B50E4B04461B6801934FF053
S315100106800003FFF7BFFF2046FFF7D8FF2046FFF70D
S3151001069061FF0028FAD1064B20601A68019B5A4067
S315100106A04FF0000301D00AF021FF02B010BD00BFC8
S315100106B01817002013B50C4B04461B6801934FF015
S315100106C00003FFF739FE0028FBD1236843F0080326
S315100106D02360054B1A68019B5A404FF0000301D065
S315100106E00AF004FF02B010BD18170020F7B5474BEA
S315100106F004461B6801934FF000030D4600297DD077
S315100107004B68002B7AD08B68002B77D00E68002EA1
S3151001071077D0FFF777FF2046FFF790FF297B20461A
S31510010720FFF754FFFFF708FE0028FBD16B7B226809
S315100107301B0203F4407322F4407213432360F31C2B
S31510010740062B2ED8B20723D04FEA860C6B6861466A
S315100107500022B2424CDB63446B6000230136042E47
S315100107602361FBD1A368DB07FCD5A36843F0010322
S31510010770A3602269AB6812BADA60226912BA9A606A
S31510010780226912BA5A60226912BA43F8102BAB6069
S315100107901E4B1A68019B5A404FF0000334D00AF0E1
S315100107A0A5FE6B68DA6812BA22619A6812BA2261DA
S315100107B05A6812BA226153F8102B12BA22616B6071
S315100107C0A368D907FCD5A36843F00103A360226986
S315100107D0AB6812BADA60226912BA9A60226912BA41
S315100107E05A60226912BA43F8102B043EAB60A6E791
S315100107F0043901325F583FBA2761AAE74FF0FF303B
S31510010800C6E76FF00200C3E703B0F0BD181700206A
S3151001081007B5094B1B6801934FF00003064B1A6885
S31510010820019B5A404FF0000301D00AF05FFE03B05E
S315100108305DF804EBFFF75ABF1817002007B5094BEF
S315100108401B6801934FF00003064B1A68019B5A402F
S315100108504FF0000301D00AF049FE03B05DF804EB36
S31510010860FFF744BF1817002070B5274B8EB00D4601
S315100108701B680D934FF00003064600283CD0002953
S315100108803DD004F089FA04F09BFA204B2049987068
S315100108901B780A960122C4B2CDE90612012B4FF03C
S315100108A00002CDE90824059424D0042DA8BF0425FF
S315100108B00C9509AB0FCB8DE80F0005AB0FCB04F0F0
S315100108C087FA1449204604F08EFA204604F092FA6B
S315100108D0204604F095FA01220021204604F085FAFB
S315100108E00020094B1A680D9B5A404FF0000309D09E
S315100108F00AF0FCFD0425DBE74FF0FF30F1E76FF05E
S315100109000200EEE70EB070BD18170020200C002073
S3151001091000030202C509011070B5264B8EB00D46B3
S315100109201B680D934FF00003064600283AD00029A4
S315100109303BD004F031FA04F043FA1F4B1F495870AB
S3151001094000221B780B96C4B2CDE906120122CDE91D
S315100109500824059423B3042DA8BF04250C9509ABCF
S315100109600FCB8DE80F0005AB0FCB04F031FA14490C
S31510010970204604F038FA204604F03CFA204604F0EA
S315100109803FFA01220021204604F02FFA0020094BDC
S315100109901A680D9B5A404FF0000309D00AF0A6FDC4
S315100109A00425DBE74FF0FF30F1E76FF00200EEE7C9
S315100109B00EB070BD18170020200C00200001020295
S315100109C0C509011013B5244A0346126801924FF066
S315100109D00002002937D1214CA278824216D104F0A7
S315100109E0F5F96368032B01D8FFF7DEFC1A4B1A6879
S315100109F0019B5A404FF0000301D00AF077FD616860
S31510010A00E06802B0BDE81040FFF786BF6078834208
S31510010A1019D16368042B12D9043B636004F0D6F92B
S31510010A20616881B10C4B1A68019B5A404FF0000363
S31510010A30E3D1A06802B0BDE81040FFF715BF002B47
S31510010A40ECD06160EAE7044B1A68019B5A404FF0FB
S31510010A500003D2D102B010BD18170020200C0020BF
S31510010A6073B5254B054616461B6801934FF00003D7
S31510010A700C4600293BD04B68002B38D08B68002BD5
S31510010A8035D00B6853B96FF002001B4B1A68019BE6
S31510010A905A404FF000032DD00AF028FDFFF7B2FDA2
S31510010AA02846FFF7CBFD217B2846FFF78FFDFFF781
S31510010AB043FC637B2A68216860681B0222F440723A
S31510010AC003F4407313432B600C4BA2681E705960DC
S31510010AD09860DA602B6843F002032B602B6843F0B1
S31510010AE004032B60FFF7C0FE0028CED0CBE74FF0F2
S31510010AF0FF30CAE702B070BD18170020200C002085
S31510010B0007B50A4B1B6801934FF00003074B1A6890
S31510010B10019B5A404FF0000301D00AF0E7FC002276
S31510010B2003B05DF804EBFFF79BBF00BF1817002059
S31510010B3007B50A4B1B6801934FF00003074B1A6860
S31510010B40019B5A404FF0000301D00AF0CFFC01225D
S31510010B5003B05DF804EBFFF783BF00BF1817002041
S31510010B6013B50D4B1B6801934FF0000362B1402A78
S31510010B7014BF20221822084B1C68019B5C404FF0C1
S31510010B80000303D00AF0B2FC1022F4E702B0BDE86C
S31510010B901040FFF7C1BC00BF1817002037B5164C1F
S31510010BA0246801944FF0000411F0030402D1B3EB51
S31510010BB0910F16D0104B1A68019B5A404FF0000343
S31510010BC001D00AF093FC0D4B0D481B68D96803B090
S31510010BD0BDE8304009F004BD50F8241042F8241045
S31510010BE00134A342F8D1044B1A68019B5A404FF0C5
S31510010BF00003E6D103B030BD18170020E005002030
S31510010C0038510210F7B5184CB3EB810F24680194D3
S31510010C104FF000044FEA810524D2134B1A68019B49
S31510010C205A404FF0000301D00AF060FC0F4803B0A0
S31510010C30BDE8F04009F028B8C758D418002127FAA2
S31510010C4001F60831202904F8016BF8D104339D42CD
S31510010C50F2D1054B1A68019B5A404FF00003E3D1BC
S31510010C6003B0F0BD0023F2E7181700205951021006
S31510010C7007B5094B00681B6801934FF00003064B3B
S31510010C801A68019B5A404FF0000300BA01D00AF0CE
S31510010C902DFC03B05DF804FB1817002007B50C4BAB
S31510010CA01B6801934FF00003030E0B70030C4B707E
S31510010CB0030A8B70064BC8701A68019B5A404FF095
S31510010CC0000301D00AF012FC03B05DF804FB00BF6B
S31510010CD01817002013B50F4B01391B6801934FF0FC
S31510010CE00003431E033013F8014F11F8012F9442EC
S31510010CF00BD18342F7D10120064B1A68019B5A404A
S31510010D004FF0000303D00AF0F1FB0020F4E702B024
S31510010D1010BD00BF1817002013B50C4B1B680193AB
S31510010D204FF0000303F08CF803F0A0F8044603F02B
S31510010D30B7F8064B1A68019B5A404FF0000301D0D1
S31510010D400AF0D4FB204602B010BD00BF18170020D0
S31510010D5030B5144B87B004461022002101A81B6838
S31510010D6005934FF0000309F065FF01AA0E4804210F
S31510010D7002F08CFC05AD01AA631C144603CCAC42EF
S31510010D8018605960224603F10803F6D1054B1A681B
S31510010D90059B5A404FF0000301D00AF0A7FB07B09C
S31510010DA030BD00BF18170020300C002073B50F4B53
S31510010DB006461B6801934FF000030C46FFF7ACFF84
S31510010DC006F111010546FFF769FF084B1A68019BE9
S31510010DD05A404FF0000301D00AF088FB04482A4616
S31510010DE0214602B0BDE8704001F0E6B818170020A0
S31510010DF03C0C002030B52C4B87B029201B6805937D
S31510010E004FF0000303F012FF3F2003F00FFF62B60D
S31510010E10002101A803F06AFE244C68B1244806F0AB
S31510010E2007F800232370204B1A68059B5A404FF090
S31510010E30000337D00AF05AFB012323701D4C1E48BC
S31510010E401E4D05F0F5FF02F013FE1D4888222146BE
S31510010E5002F04EFE2368AB4219D01A4805F0E8FF9E
S31510010E60194808F011FF194805F0E2FF184B1B68E5
S31510010E70986809F07DF9174B114825600222C4E9DB
S31510010E800123214601338822E36002F047FE00F078
S31510010E907DFF114801F07CF80A2001F003F80F4B91
S31510010EA01860C0E707B030BD18170020340C0020B9
S31510010EB0B0510210440C0020E0510210EFBEADDE1D
S31510010EC000C007100A520210145202109E5102104D
S31510010ED0E0050020241111113C0C0020380C0020D3
S31510010EE073B51546114A126801924FF000020A466F
S31510010EF0D9B2044600F076FF421C0C4B0ED01A688C
S31510010F00019B5A404FF0000301D00AF0EFFA29462F
S31510010F10204602B0BDE8704000F08EBF1A68019BF2
S31510010F205A404FF00003F0D102B070BD18170020DF
S31510010F302DE9F0434A4B4B4D4B4FDFF83081ADF560
S31510010F40037D1B6881934FF0000300242E1F7368E5
S31510010F509C4212D3DFF81881464FDFF81C91082402
S31510010F60A4F11803DBB21E2B19D8444A22FA03F353
S31510010F70DB0714D50134E4B2F2E7384605F058FF21
S31510010F8055F8041F404605F053FF3D4805F050FF44
S31510010F903C4B1B68986809F0EBF80134D7E701233D
S31510010FA041A88DF80431FFF7D3FE214641A8FFF77A
S31510010FB0FDFED8F8003001AA41A92046FFF790FF9F
S31510010FC0002834DD06A8FFF753FE014605463868AA
S31510010FD000F0BCFF02A906460DF20510FFF77AFED6
S31510010FE050B94FF0FF301E4B1A68819B5A404FF093
S31510010FF0000330D00AF07AFA2146484601F010F87B
S315100110008542EED1002EECD12946386800F072FFE8
S31510011010154805F00DFF01991B4805F009FF184801
S3151001102005F006FF174B1B68986809F0A1F8013403
S31510011030E4B2782C94D1154805F0FAFE144808F05C
S3151001104023FE0F4805F0F4FE0E4B1B68986809F055
S315100110508FF80020C7E70DF5037DBDE8F08300BFCB
S3151001106018170020480C00202F5202103852021077
S3151001107000000020380C00203C0C0020010001402B
S315100110809E510210E0050020425202104C520210ED
S31510011090585202102DE9F04FADF52F7D514BDFF867
S315100110A0488100AF1B68C7F8B4324FF00003FFF751
S315100110B033FE4E49FFF7F2FD00237B60A8F1040BC6
S315100110C0DBF804307A68934201D8002040E058F8E2
S315100110D0040F00F071FE07F154090646494607F15F
S315100110E0340003F089F8EA4607F1340307F11104D5
S315100110F01A4603CA4A4520606160134604F1080482
S31510011100F6D106233B7407F110040FCC07F5DA75F7
S315100111100FC50FCC0FC523682B7007F1B40221231D
S3151001112007F5DA713046FFF7DBFE01301AD1304888
S3151001113005F07EFE2F4808F0A7FD2F4805F078FE32
S315100111402E4B1B68986809F013F84FF0FF30D546FF
S31510011150244B1A68D7F8B4325A404FF000033CD0EA
S315100111600AF0C4F907F1B4050FCD07F174040FC4E1
S3151001117095E80F0084E80F00494607F1940007F13E
S31510011180740203F04FF8194C0023FB7207F1940116
S3151001119007F10C0011F8015B14F8012B6A40FD7A76
S315100111A000F8012B01336A40042BFA72F2D1FA6866
S315100111B0C7F8B42107F5DA7107F1B4023046FFF723
S315100111C08FFE013004D10A4805F032FE0C48B2E711
S315100111D07B680133D5467B6072E707F52F77BD46ED
S315100111E0BDE8F08F18170020480C0020300C0020A5
S315100111F0835102105D5202109E510210E00500202B
S31510011200875202102DE9F043ADF5357D464B0DF1B0
S315100112106C080746414613A81B68B3934FF00003A9
S315100112200DF1090402F0E8FF13AB1A4603CA424551
S3151001123020606160134604F10804F6D105238DF888
S31510011240083002AC0FCC73AE35460FC50FCC0FC5A7
S3151001125023682B7033AA212331463846FFF740FE07
S31510011260013018D1314805F0E3FD314808F00CFD85
S31510011270304805F0DDFD304B1B68986808F078FFA3
S315100112804FF0FF30284B1A68B39B5A404FF00003BA
S3151001129045D00AF02BF933AD0FCD23AC0FC495E829
S315100112A00F000BAD84E80F00A9460024FFF734FDAB
S315100112B00134102C09F8010BF8D100212846FFF74B
S315100112C00FF923AA41462BA802F0ACFF00240FA860
S315100112D08DF807402BAA014612F801CB15F8013BF0
S315100112E083EA0C039DF807C000F8013B013483EA39
S315100112F00C03102C8DF80730EED10FC986E80F00BC
S31510011300234633AA31463846FFF7EAFD013004D1A8
S31510011310064805F08DFD0948A8E70020B2E70DF54E
S31510011320357DBDE8F08300BF1817002083510210E8
S315100113305D5202109E510210E005002087520210E4
S315100113402DE9F04F3C4B3D4EDFF8F4B0DFF8F4A039
S31510011350ADF5037D1B6881934FF000030024A6F1C0
S315100113600409D9F80430A34201D8002026E0706898
S3151001137000F022FD0223054641A88DF80431FFF73E
S31510011380E7FC294641A8FFF711FDDBF8003001AA59
S3151001139041A92846FFF7A4FD013018D12A4805F0C6
S315100113A047FD2A4808F070FC294805F041FD294BF4
S315100113B01B68986808F0DCFE4FF0FF301E4B1A6868
S315100113C0819B5A404FF0000331D00AF08FF806A8DE
S315100113D0FFF74EFC01460746DAF8000000F0B6FDAD
S315100113E002A980460DF20510FFF774FC0028D5D02E
S315100113F02946194800F014FEB8420146CED1B8F17B
S31510011400000FCBD1DAF8000000F074FD019A56F8FE
S31510011410043F9A4209D002340B4805F009FD59F8E8
S3151001142024100E4805F004FDBEE7013499E70DF5C9
S31510011430037DBDE8F08F00BF18170020480C00206F
S3151001144000000020380C002083510210B552021002
S315100114509E510210E00500203C0C0020D2520210D1
S3151001146007B5184B1B6801934FF00003FFF712FEE7
S31510011470FFF766FFC8B1144805F0DAFC134808F007
S3151001148003FC134805F0D4FC0E4B1A68019B5A4015
S315100114904FF0000301D00AF029F80E4B1B6898682B
S315100114A003B05DF804EB08F063BE064B1A68019BA6
S315100114B05A404FF00003EED103B05DF804EBFFF78D
S315100114C037BD00BF1817002083510210F0520210C9
S315100114D09E510210E00500202DE9F04F414B424D7F
S315100114E0DFF80881ADF5057D1B6883934FF0000386
S315100114F00027A5F1040BDBF80430BB4201D800200C
S3151001150028E0686800F058FC0323044643A88DF8C8
S315100115100C31FFF71DFC214643A8FFF747FC344B5E
S3151001152003AA1B6843A92046FFF7DAFCB0F1FF3F77
S31510011530814618D12F4805F07BFC2F4808F0A4FBF3
S315100115402E4805F075FCD8F80030986808F010FEA2
S315100115504FF0FF30234B1A68839B5A404FF000031C
S315100115603BD009F0C3FF02ABDFF894A01A580292E0
S315100115701846FFF77DFB01460646DAF8000000F033
S31510011580E5FCA9F1140103AB019019440DF20D10FC
S31510011590FFF7A0FB0028CDD021461A4800F040FDE8
S315100115A0B0420146C6D1019B002BC3D1DAF8000027
S315100115B000F0A0FC144805F03BFC55F8041F134835
S315100115C003AA05F035FC0D4805F032FCD8F80030B9
S315100115D0986808F0CDFD01378DE70DF5057DBDE85D
S315100115E0F08F00BF18170020480C0020E0050020DE
S315100115F00000002083510210125302109E51021056
S31510011600380C00203C0C00202F5202102B530210D4
S315100116102DE9F047ADF5347D5A4B02AF1B68C7F87B
S31510011620C4324FF00003054600F0C6FB0446FFF72F
S31510011630E9FD042307F5E27087F8C431FFF788FB4B
S31510011640214607F5E270FFF7B1FBE0220021381DB4
S3151001165009F0F0FA4C4B3A1D1B6807F5E27120466A
S31510011660FFF73EFC431C19D1484805F0E1FB4848F9
S3151001167008F00AFB474805F0DBFB474B1B689868E7
S3151001168008F076FD4FF0FF383E4B1A68D7F8C43292
S315100116905A404FF000036FD009F028FF20F00304E1
S315100116A0073424F00704ADEB040D86080DF1080884
S315100116B032460021404609F0BDFA33464246E02142
S315100116C0381DFFF76BFAADEB040D0DF1080A324622
S315100116D00021504609F0AEFA3822002107F1E40044
S315100116E009F0A8FAADEB040D002102AB07F1E402F3
S315100116F00846FEF785FD0021B4004346CDF800A04B
S3151001170002220846FEF7B8FDE31D23F00703ADEBF1
S31510011710030D0DF10809224600218046484609F0BD
S3151001172089FA23464A46314650464C44FFF76AFA2F
S31510011730002304F8013CB8F1000FA3D11748164C49
S3151001174005F076FB2946164805F072FB114805F09F
S315100117506FFB2368986808F00BFD104805F068FBCD
S315100117604946104805F064FB0A4805F061FB2368F9
S31510011770986808F0FDFC87E7404607F53277BD46C5
S31510011780BDE8F087181700200000002083510210D1
S31510011790365302109E510210E00500202F520210FE
S315100117A0515302105B53021007B5154B154C1B68AC
S315100117B001934FF00003002002F0B0FE204603F023
S315100117C03BF9012002F0AAFE204603F035F902206A
S315100117D002F0A4FE204603F02FF9002002F0BCFE11
S315100117E0204603F029F9012002F0B6FE204603F047
S315100117F023F9022002F0B0FE204603F01DF9DAE7C4
S315100118001817002020A1070030B5234B2348244D7B
S315100118108FB069461B680D934FF0000301F0A8FDC8
S31510011820204805F005FB204808F02EFA1F4805F060
S31510011830FFFA2B68986808F09BFC1D49684600F072
S3151001184071FA0446A8B9174805F0F2FA194808F0D2
S315100118501BFA164805F0ECFA2B68986808F088FC14
S315100118600D4B1A680D9B5A404FF0000311D009F029
S315100118703DFE114805F0DCFA104808F005FA0B4850
S3151001188005F0D6FA2B68986808F072FC4FF0FF3411
S31510011890E6E720460FB030BD181700205E53021040
S315100118A0E00500200A5202106A5302109E510210DE
S315100118B07B530210B853021083510210C653021003
S315100118C030B5234B2348244D8FB069461B680D93C1
S315100118D04FF0000301F04CFD204805F0A9FA20480D
S315100118E008F0D2F91F4805F0A3FA2B68986808F09A
S315100118F03FFC1D49684600F015FA0446A8B9174879
S3151001190005F096FA194808F0BFF9164805F090FA4D
S315100119102B68986808F02CFC0D4B1A680D9B5A40E1
S315100119204FF0000311D009F0E1FD114805F080FADE
S31510011930104808F0A9F90B4805F07AFA2B6898684F
S3151001194008F016FC4FF0FF34E6E720460FB030BD25
S3151001195018170020D3530210E00500200A52021076
S31510011960E15302109E510210F45302103154021029
S31510011970835102104154021013B5244B244C1B6899
S3151001198001934FF00003FFF785FBFFF7D9FC88B1F0
S31510011990204805F04DFA204808F076F91F4805F061
S315100119A047FA1A4B1A68019B5A404FF0000309D0A7
S315100119B009F09CFDFFF790FD58B1164805F038FA6D
S315100119C01748E9E72368986802B0BDE8104008F0A7
S315100119D0CFBB144805F02CFA1349144805F028FA20
S315100119E00E4805F025FA2368986808F0C1FB1048DF
S315100119F005F01EFA0F4808F047F9084805F018FADD
S31510011A002368986808F0B4FBFFF7CEFE181700207C
S31510011A10E005002083510210F05202109E5102106F
S31510011A20505402102F5202106E540210805402109C
S31510011A304C5202108754021030B5364B91B01B68C8
S31510011A400F934FF00003FFF73BFF0446002854D1D4
S31510011A50CDE9000002A9304801F08AFC6A462F49F7
S31510011A6002A808F03BFC2E4802A901F081FC2B4983
S31510011A7001AA02A808F032FC2A4A0198134653F823
S31510011A80041FA1420CD1284805F0D2F90199274823
S31510011A9005F0CEF9264805F0CBF9264B1B6829E04F
S31510011AA053F8045F854231D10234009B224842F833
S31510011AB0243002F007F81B491F481E4C882202F0F9
S31510011AC02DF81E4805F0B4F9DDE900211C4805F092
S31510011AD0AFF9174805F0ACF92368986808F048FB88
S31510011AE0184805F0A5F9184808F0CEF8104805F081
S31510011AF09FF92368986808F03BFB064B1A680F9B01
S31510011B005A404FF0000303D009F0F0FC0134B8E756
S31510011B1011B030BD181700208C5402109E540210BB
S31510011B20A1540210440C002083510210D954021002
S31510011B309E510210E005002000C007100A52021043
S31510011B40B45402104C520210D154021000B5194B64
S31510011B5091B01B680F934FF00003FFF79BFAFFF745
S31510011B6053FED0B9144802A901F002FC134901AA87
S31510011B7002A808F0B3FB0198FFF74AFD68B91048AF
S31510011B8005F056F90F4808F07FF80F4805F050F99F
S31510011B900E4B1B68986808F0EBFA064B1A680F9BF8
S31510011BA05A404FF0000301D009F0A0FC11B05DF8C6
S31510011BB004FB00BF181700200E5502109E54021088
S31510011BC04C5202101D5502109E510210E0050020C4
S31510011BD02DE9F041374B384C384FDFF8E480394E58
S31510011BE09AB01B6819934FF00003FFF703F93648B3
S31510011BF005F01EF9354808F047F8354805F018F98B
S31510011C002368986808F0B4FA6946384601F0B0FBC3
S31510011C106946404605F00CF93578ADB92D4805F001
S31510011C2007F92D4805F004F9294805F001F923684B
S31510011C30986808F09DFA1F4B1A68199B5A404FF085
S31510011C40000333D009F052FC24490422684609F0F6
S31510011C5043F810B9FFF704FCD6E721490422684678
S31510011C6009F03AF810B9FFF787FECDE71D490722AB
S31510011C70684609F031F810B9FFF7DEFEC4E71A49D4
S31510011C800622684609F028F810B9FFF75FFFBBE78F
S31510011C90104805F0CDF8154805F0CAF80C4805F0BE
S31510011CA0C7F82368986808F063FAADE728461AB0B2
S31510011CB0BDE8F08118170020E005002042550210FA
S31510011CC052550210340C00202F52021024550210C6
S31510011CD09E51021083510210685502107855021058
S31510011CE07D550210825502108A5502109155021027
S31510011CF013B50B4B1B6801934FF000034023FEF7FE
S31510011D004DFA074BB0FA80F01A68019B5A404FF012
S31510011D1000034FEA501001D009F0E8FB02B010BDE4
S31510011D201817002070B5184B92B001AA0E461B6801
S31510011D3011934FF00003FFF7DBFF0446E0B930467D
S31510011D4009F05EFB054601A809F05AFB854216D13A
S31510011D5001AB2246954208DC0B4B1A68119B5A407F
S31510011D604FF000030DD009F0C1FBB05C13F8011B55
S31510011D7041400C430132EDE74FF0FF34ECE701240B
S31510011D80EAE7204612B070BD1817002007B5094BB7
S31510011D901B6801934FF00003064B1A68019B5A40CA
S31510011DA04FF0000301D009F0A1FB03B05DF804EB7D
S31510011DB001F0E8BE1817002007B5094B1B680193FF
S31510011DC04FF00003064B1A68019B5A404FF000036F
S31510011DD0C0B201D009F08AFB03B05DF804FB00BF65
S31510011DE01817002073B5134B04460D4616461B688B
S31510011DF001934FF0000301F0F3FF00280ADA4FF0C8
S31510011E00FF300C4B1A68019B5A404FF000030FD05C
S31510011E1009F06CFB33462A460021204601F00EFFDD
S31510011E200028ECDB0121204601F0C2FFC017E8E7CC
S31510011E3002B070BD1817002073B5194B05460E4632
S31510011E401B6801934FF00003284601F057FF002845
S31510011E500ADA4FF0FF34124B1A68019B5A404FF0C1
S31510011E6000031AD009F042FB03D0322002F0E4FD40
S31510011E70EAE7284601F05AFF041EEADB3346E2B2CE
S31510011E800321284601F0B2FE0028E2DB0121284693
S31510011E9001F0BEFF0028DEDADBE7204602B070BD96
S31510011EA01817002037B5124B05460C201B680193F5
S31510011EB04FF0000304F0F2FC044698B1A80004F0B8
S31510011EC0EDFC206058B100236560A360084B1A68C9
S31510011ED0019B5A404FF0000306D009F007FB20463C
S31510011EE004F0E4FC0024F1E7204603B030BD00BF46
S31510011EF01817002073B5144B04460D46D0E900019E
S31510011F001B6801934FF00003A3688B4206D34E0062
S31510011F10C90007F0C1FE88B1C4E90006A3682268AA
S31510011F20591CA16042F823500020074B1A68019BE7
S31510011F305A404FF0000304D009F0D8FA4FF0FF30A1
S31510011F40F3E702B070BD00BF1817002013B50F4B91
S31510011F5082681B6801934FF0000300239A4209D14E
S31510011F6000200A4B1A68019B5A404FF000030AD011
S31510011F7009F0BCFA046854F823408C4201D00133AD
S31510011F80ECE70120EDE702B010BD00BF18170020E5
S31510011F9007B5084B1B6801934FF00003054B1A68F0
S31510011FA0019B5A404FF0000301D009F09FFA03B08C
S31510011FB05DF804FB18170020F7B5184B04460E46BA
S31510011FC0D0E900011B6801934FF000031546002369
S31510011FD099420ED10131C90007F05EFE80B16368E6
S31510011FE0206000EBC30200F8336001335560636073
S31510011FF006E010F83370B74200EBC30209D1556001
S31510012000064B1A68019B5A404FF0000303D009F0A2
S315100120106DFA0133DCE703B0F0BD00BF18170020DD
S3151001202037B5104B44681B6801934FF0000300232A
S315100120309C4202D14FF0FF3007E0026802EBC30564
S3151001204012F833208A4209D16868064B1A68019B37
S315100120505A404FF0000303D009F048FA0133E7E77D
S3151001206003B030BD1817002037B50D4B1B6801930F
S315100120704FF00003002351F8234052F823502C440B
S3151001208040F8234001330A2BF5D1054B1A68019B01
S315100120905A404FF0000301D009F028FA03B030BDC1
S315100120A01817002037B50D4B1B6801934FF000032D
S315100120B0002351F8234052F82350641B40F8234063
S315100120C001330A2BF5D1054B1A68019B5A404FF083
S315100120D0000301D009F00AFA03B030BD1817002029
S315100120E007B50D4B1B6801934FF00003002351F800
S315100120F02320520040F8232001330A2BF7D1064B37
S315100121001A68019B5A404FF0000301D009F0EEF90D
S3151001211003B05DF804FB00BF181700202DE9F04746
S315100121204C4B4D4FA0B00E46154600217822044661
S3151001213001A81B681F934FF0000308F07BFDC5F340
S31510012140C0004300C3F1010808FB05F242EAA203ED
S3151001215043EA63034FEA660E03F0010301AE013B46
S3151001216031464FF0000C57F8045B05EA03090D6878
S3151001217089EA050541F8045B7D6A03EA05094D6A9A
S3151001218085EA09054D62FD6C03EA0509CD6C0CF172
S31510012190010C85EA0905BCF10A0FCD64E3D12F4D77
S315100121A04FF4707303FB0E55A2F10809013A42EA86
S315100121B0A20343EA630303F00103013BAC4601A901
S315100121C04FF0000E5CF8047B07EA030A0F688AEAEF
S315100121D0070741F8047BDCF8247003EA070A4F6A03
S315100121E087EA0A074F62DCF84C7003EA070ACF6CDC
S315100121F00EF1010E87EA0A07BEF10A0FCF64E1D18B
S315100122004A4505F17805D1D1471E221F4042243493
S3151001221056F8043B716A03EA070501EA000C85EAE0
S315100122200C0542F8045F034039404B409362F36C4E
S31510012230944208FB03F31365EAD1064B1A681F9BF8
S315100122405A404FF0000301D009F050F920B0BDE813
S31510012250F08700BF18170020A8550210C0560210AB
S31510012260F0B5314BD3B001F1280705460C46164699
S3151001227001A80A4639461B6851934FF00003FFF730
S3151001228011FF01A90846324600F05CFA224639468A
S315100122900BA8FFF7E9FE0BA9084606F1280200F084
S315100122A051FA06F1500204F1500115A800F04AFA4C
S315100122B004F178011FA8FFF713FF01AA0BA929A89A
S315100122C0FFF7F0FE15AA1FA933A8FFF7EBFE15AA13
S315100122D01FA93DA8FFF7C8FE01AA0BA947A8FFF73A
S315100122E0C3FE33AA29A9284600F02CFA47AA3DA90C
S315100122F005F1280000F026FA47AA29A905F1500090
S3151001230000F020FA3DAA33A905F1780000F01AFA77
S31510012310054B1A68519B5A404FF0000301D009F042
S31510012320E5F853B0F0BD00BF181700202DE9F041B4
S315100123303C4BDCB0154601F1280806460C460A4608
S3151001234001A8414605F128071B685B934FF000036E
S31510012350FFF7A8FE2A46394651A8FFF7A3FE01A9A1
S31510012360084651AA00F0EEF9224641460BA8FFF79E
S315100123707BFE2A46394651A8FFF776FE0BA9084679
S3151001238051AA00F0DFF905F1500204F1500115A828
S3151001239000F0D8F915A90846234A00F0D3F905F13A
S315100123A0780204F178011FA800F0CCF91FA908469C
S315100123B0FFF796FE01AA0BA929A8FFF773FE15AA26
S315100123C01FA933A8FFF76EFE15AA1FA93DA8FFF78F
S315100123D04BFE01AA0BA947A8FFF746FE33AA29A966
S315100123E0304600F0AFF947AA3DA906F1280000F0E2
S315100123F0A9F947AA29A906F1500000F0A3F93DAAA7
S3151001240033A906F1780000F09DF9064B1A685B9B1B
S315100124105A404FF0000301D009F068F85CB0BDE8EE
S31510012420F08100BF18170020C0CE021070B5294BDD
S31510012430294AADF5027D064601A81B6881934FF026
S315100124400003FFF711FE01A979A801F097FA2349B4
S31510012450A02229A808F034FF2049A02251A808F08B
S315100124602FFF79AC0025227802F00F022946083A8F
S315100124700BA8FFF753FE29A908460BAAFFF7F0FE92
S3151001248014F8012B12092946083A0BA8FFF746FE44
S3151001249051A90BAA08460235FFF7E2FE402DE2D1FB
S315100124A0042451AA11461046FFF740FF013CF8D10A
S315100124B051AA29A93046FFF739FF064B1A68819BA5
S315100124C05A404FF0000301D009F010F80DF5027DC6
S315100124D070BD00BF18170020F4D00210205602104C
S315100124E073B52F4B00221B6801934FF000030E1D8D
S315100124F04FF01853041D51F8225005EB636323F076
S315100125007C4540F8225056F8225005EBA36323F080
S315100125107E4544F8225002320A2AECD102685B1633
S31510012520132101FB0322026000F128040246014631
S3151001253000230D6805EB636323F07C450D604D6840
S3151001254005EBA36323F07E454D6008318C42F0D133
S3151001255001685B16132505FB031101604FF05A4301
S31510012560116801EB636323F07C411160516801EB43
S31510012570A36323F07E41516008329442F0D1026880
S315100125805B16132101FB0322054B02601A68019B9E
S315100125905A404FF0000301D008F0A8FF02B070BDF9
S315100125A018170020F7B51C4B01241B6801934FF037
S315100125B000030023061F00F1240C1A46A646002C20
S315100125C00CBF182519259D421DDA04F119070EFABB
S315100125D007F5013D154046F8045FB44522FA07F2A6
S315100125E0A3EB0703C4F10104E9D10368132101FB2D
S315100125F002330360084B1A68019B5A404FF00003DF
S3151001260007D008F073FF11F8015B9D402A43083388
S31510012610D5E703B0F0BD00BF181700202DE9F04132
S31510012620294B8CB00026804601A81B680B934FF0EE
S31510012630000301ACFFF754FF6FF00707324633462C
S31510012640216821F07C4C0CFA02FC02F11A0E4CEABC
S31510012650030C41467346083B072B01F801CB4FEAA1
S315100126601C2CF8DC02F11200C10863684D1C794379
S315100126700EEB010223F07E4301448B40454443EAAD
S315100126800C0302F1110128460839072900F8013B0C
S315100126904FEA1323F8DC0932D0080236411C0A2E00
S315100126A005EB010807FB002204F10804C8D16B549D
S315100126B0054B1A680B9B5A404FF0000301D008F0E6
S315100126C015FF0CB0BDE8F08118170020F7B51C4BAB
S315100126D000251B6801934FF000032C462B4601F190
S315100126E0040C071D51F825605B0E43EAC4136416EA
S315100126F0C2FB063423F07C4640F825609B0E5CF83D
S31510012700256043EA8413A416C2FB063423F07E46E1
S3151001271047F8256002350A2DE4D102685B0E43EABB
S31510012720C413132101FB0322054B02601A68019B96
S315100127305A404FF0000301D008F0D8FE03B0F0BDA7
S31510012740181700202DE9F04FA5B0E94B0D909068B0
S31510012750CD684F69D469CE691B6823934FF0000386
S31510012760039088680490D0680590106906900869EE
S315100127700B6807905069009308901368906901934C
S3151001278009905368886902930A904B68106A526AD5
S31510012790D1F820C00C92CDF82CC0DDF83080DDF8D0
S315100127A000C0D1F824E083FB0021CCFB0821DDF821
S315100127B010C0CCFB0421DDF824C0C5FB0C21DDE9DA
S315100127C007C8CCFB0821DDF818C0DDF82880CCFB42
S315100127D00721DDF814C0CCFB0821DDF80CC0DDF8AB
S315100127E02C80CCFB0621DDF808C0CCFB0821DDF8D6
S315100127F004C0CCFB0E21CDE920210C9ADDF810C0C6
S3151001280083FB02218CFB008C9218494112EB0802C2
S3151001281041EB0C0185FB04C81CEB0C0C48EB0808BA
S3151001282012EB0C0241EB0801DDF81CC0DDF8248027
S31510012830CCFB0821DDF820C08CFB07C81CEB0C0C67
S3151001284048EB080812EB0C0241EB0801DDF818C041
S31510012850DDF82880CCFB0821DDF814C08CFB06C8F6
S315100128601CEB0C0C48EB080812EB0C0241EB0801AF
S31510012870DDF80CC0DDF82C80CCFB0821DDF808C092
S315100128808CFB0EC81CEB0C0C48EB080812EB0C0267
S3151001289041EB08081321A2FB012C01FB08CCDDE951
S315100128A00089C8FB092CCDE90E2CDDF83090DDF836
S315100128B010C0DDF800A0DDF808B085FB0028CCFBC0
S315100128C00928DDF81CC0DDF82890CCFB0428DDF8BA
S315100128D024C0C7FB0C28DDF820C0CCFB0928DDF885
S315100128E018C0DDF82C90CCFB0628DDF814C0CCFB03
S315100128F00928DDF80CC0CCFB0E28A2FB01C201FB96
S315100129000822DDF8048088FB0389CAFB0B891CEBBE
S31510012910080C42EB0902CDE910C20C9ADDF81C80B5
S3151001292085FB022C88FB009892184CEB0C0C12EBD1
S3151001293009024CEB080C87FB048918EB080849EBD4
S31510012940090912EB08024CEB090CDDE90989C8FBF0
S31510012950092CDDF8208088FB068918EB080849EB5D
S31510012960090912EB08024CEB090CDDF81880DDF8A9
S315100129702C90C8FB092CDDF8148088FB0E8918EB06
S31510012980080849EB090912EB08084CEB0909A8FBE1
S3151001299001C801FB09888BFB039219EB0909DDF8C4
S315100129A00CB05241CAFB0B92DDF804A0DDF810B051
S315100129B0CAFB0B921CEB090C48EB0202CDE912C2C1
S315100129C0DDF81C80DDF83090DDF800A0DDF814B0DC
S315100129D087FB002CC8FB092CDDF82880DDF82C902C
S315100129E0C8FB042CDDF82480C8FB062CDDF82080FA
S315100129F0C8FB092CDDF81880C8FB0E2CA2FB01823E
S31510012A0001FB0C22DDF80CC083FB0CC9CAFB0BC9F8
S31510012A10DDF808A0DDF810B0CAFB0BC9DDF804A07B
S31510012A20DDF818B0CAFB05C918EB0C0842EB090210
S31510012A30CDE914820C9ADDF828C087FB02288CFB9D
S31510012A40009C921848EB080812EB090248EB0C0897
S31510012A5084FB06C91CEB0C0C49EB090912EB0C02A1
S31510012A6048EB0908DDF824C0DDF82C90CCFB0928C9
S31510012A70DDF820C08CFB0EC91CEB0C0C49EB0909C7
S31510012A8012EB0C0C059A48EB0909ACFB01AC83FB64
S31510012A90022801FB09CC9218DDF8009048EB0808D2
S31510012AA0C9FB0B28DDE9039BC9FB0B28DDF8089050
S31510012AB089FB059B19EB09094BEB0B0B12EB090271
S31510012AC048EB0B08DDF80490DDF81CB0C9FB0B28A8
S31510012AD01AEB02024CEB080CCDE9162C069ADDF81E
S31510012AE000C0DDF82090DDF828A083FB022801E064
S31510012AF018170020CCFB0928DDE904C9CCFB0928ED
S31510012B00DDF80CC0CCFB0528DDF808C0CCFB0B2882
S31510012B10DDF804C0DDF830B0CCFB072886FB00C910
S31510012B20CAFB0BC9DDF82CA0C4FB0AC9DDF824A029
S31510012B30CAFB0EC9ACFB01CA12EB0C0201FB09AAB6
S31510012B404AEB080ACDE9182A089ADDF80080DDF863
S31510012B50249083FB022C92184CEB0C0CC8FB092C0D
S31510012B60DDF81080DDF81890C8FB092CDDF814800B
S31510012B7088FB058918EB080849EB090912EB0802CD
S31510012B804CEB090CDDF80C80DDF81C90C8FB092C08
S31510012B90DDF8088088FB078918EB080849EB090955
S31510012BA012EB08024CEB090CDDF80480DDF82890D5
S31510012BB0C8FB092CDDF82C8086FB0B9B80FB08A833
S31510012BC019EB09094BEB0B0B19EB0A094BEB080B2C
S31510012BD084FB0E8A18EB08084AEB0A0A19EB080857
S31510012BE04BEB0A0AA8FB018912EB080201FB0A99B1
S31510012BF049EB0C09CDE91A29099ADDF80080DDF8AF
S31510012C00209083FB022CC8FB042CDDF81080C8FB36
S31510012C10092CDDF81880C5FB082CDDF81480DDF8C9
S31510012C201C90C8FB092CDDF80C80DDF82890C8FB38
S31510012C30072CDDF80880C8FB092CDDE90B9BDDF8B4
S31510012C400480C8FB062C80FB0E8AC9FB0B8AA8FBE5
S31510012C50018912EB080201FB0A9949EB0C0183FB6E
S31510012C600434DB18CDE91C21009A09996441C2FB91
S31510012C700034049AC2FB0134089A85FB02526D197D
S31510012C8052415B1944EB0204DDE90621C2FB013412
S31510012C90059A0A9982FB072792187F419B18039A76
S31510012CA044EB0704C2FB0134029A0B9982FB0626F8
S31510012CB0921876419B18019A44EB0604C2FB013423
S31510012CC026258BFB0E21A2FB05209B1805FB010176
S31510012CD041EB0404CDE91E340EA800240146234617
S31510012CE022462746D1E900655B0E43EAC2139B19BA
S31510012CF045EB626223F07C45C1E90057D1E90265D3
S31510012D009B0E43EA82139B1904F1020445EBA2625E
S31510012D1023F07E450A2CC1E9025701F11001E1D1D8
S31510012D205B0E132443EAC213A3FB0431521604FBB0
S31510012D3002120E990D9CC9180F9B42EB0303CDE9A4
S31510012D400E1300210B460A46261DD0E900455B0EDF
S31510012D5043EAC2131B1945EB62620D9D23F07C44B5
S31510012D6045F82140D0E902459B0E43EA82131B190F
S31510012D7023F07E4446F8214001F1020145EBA2629F
S31510012D800A2900F11000E0D15B0E43EAC2130D9A35
S31510012D901268132101FB03220D9B1A60054B1A6859
S31510012DA0239B5A404FF0000301D008F09FFB25B03A
S31510012DB0BDE8F08F181700202DE9F04F9DB0EE4BAE
S31510012DC00390D1E904B21B681B934FF00003D1E9BC
S31510012DD000730C6A0192D1E90260D1E90652496A7F
S31510012DE0029483FB044CC7FB014CDDF804E0C6FBDF
S31510012DF0024CC0FB054CCBFB0E4C24194CEB0C0CB6
S31510012E00CDE9184CDDF808C083FB014E86FB0C8C0E
S31510012E1024194EEB0E0E14EB08044EEB0C0E80FB30
S31510012E2002C81CEB0C0C48EB080814EB0C044EEB17
S31510012E30080EDDF804C0CBFB054ECCFB0C4E4FF053
S31510012E40260CA4FB0C480CFB0E88C7FB0748CDE9E2
S31510012E500648029CDDF8048080FB044EC6FB014E39
S31510012E60CBFB024EC8FB054EA4FB0C840CFB0E4497
S31510012E7087FB03E91EEB0E0E49EB090918EB0E0849
S31510012E8044EB0904DDF808E0CDE9088480FB01482C
S31510012E908BFB0E9E241948EB080814EB090448EB2A
S31510012EA00E08DDF804E08EFB02E91EEB0E0E49EB6F
S31510012EB0090914EB0E0448EB0908241985FB05E9E9
S31510012EC048EB080814EB0E0E4FF0130448EB0909F2
S31510012ED0AEFB048E04FB09EE83FB0349C7FB0649CF
S31510012EE0241949EB090918EB04044EEB090ECDE937
S31510012EF00A4EDDE901E88EFB08E4CBFB01E4C5FBD4
S31510012F0002E4AEFB0C8E0CFB04EE83FB0649C7FBF9
S31510012F100049241949EB090918EB04044EEB090E73
S31510012F20CDE90C4E83FB0048241948EB0808C7FB72
S31510012F300B4886FB069E241948EB080814EB090476
S31510012F4048EB0E08DDF804E08EFB01E91EEB0E0ED0
S31510012F50CDF810E0DDF808E085FB0EAECDF814E0F3
S31510012F60DDF810E049EB09091EEB0A0EDDF814A095
S31510012F7049EB0A09C2FB02E9AEFB0CEA14EB0E049B
S31510012F800CFB09AA4AEB080ADDF80480CDE90E4AC2
S31510012F9083FB0B4EC7FB084EDDF8088082FB088ABF
S31510012FA0C5FB018AC6FB004EA8FB0C8924194EEB02
S31510012FB00E0E0CFB0A9914EB080449EB0E09DDF809
S31510012FC004E0CDE9104983FB0E4E24194EEB0E0E8B
S31510012FD0C7FB054EC6FB0B4EC0FB004E24194EEB2C
S31510012FE00E0E82FB0189CDF810E0DDF808E04FEAFC
S31510012FF0890949EA98798EFB0EEA4FEA880818EB97
S315100130000E0849EB0A0A4FF01309CE46A8FB0989A7
S315100130100EFB0A99DDF810E014EB080449EB0E09D2
S31510013020CDE91249DDF8048083FB054EC7FB024E3C
S31510013030C6FB084EDDF80880C0FB0B4E88FB019AD3
S315100130402419A9FB0C984EEB0E0E0CFB0A8814EBF7
S31510013050090448EB0E0883FB0232DB18CDE914484C
S31510013060029C5241C7FB0432019C80FB0404C6FB3F
S31510013070053200186441181842EB04028BFB0B341D
S3151001308000185241C01842EB040281FB0114A1FB46
S315100130900C1340180CFB043343EB02030024CDE957
S315100130A0160306A80146234622462746D1E900659E
S315100130B05B0E43EAC2139B1945EB626223F07C4512
S315100130C0C1E90057D1E902659B0E43EA82139B19A8
S315100130D004F1020445EBA26223F07E450A2CC1E9F4
S315100130E0025701F11001E1D15B0E132443EAC21319
S315100130F0A3FB0431521604FB02120699039CC9184C
S31510013100079B42EB0303CDE9061300210B460A4642
S31510013110261DD0E900455B0E43EAC2131B1945EB88
S315100131206262039D23F07C4445F82140D0E90245B3
S315100131309B0E43EA82131B1923F07E4446F8214065
S3151001314001F1020145EBA2620A2900F11000E0D15A
S315100131505B0E43EAC213039A1268132101FB032281
S31510013160039B1A60044B1A681B9B5A404FF00003CD
S3151001317004D008F0BBF900BF181700201DB0BDE838
S31510013180F08F00BF30B5794BE7B0044601A81B6834
S3151001319065934FF000030D46FFF70EFE01A95BA8DC
S315100131A0FFF70AFE5BA951A8FFF706FE2A4651A9A9
S315100131B00BA8FFF7C7FA01AA0BA915A8FFF7C2FAC0
S315100131C015A951A8FFF7F8FD0BAA51A91FA8FFF7DA
S315100131D0B9FA1FA951A8FFF7EFFD51A95BA8FFF78F
S315100131E0EBFD5BA951A8FFF7E7FD51A95BA8FFF716
S315100131F0E3FD5BA951A8FFF7DFFD1FAA51A929A875
S31510013200FFF7A0FA29A951A8FFF7D6FD51A95BA886
S31510013210FFF7D2FD04255BA951A8FFF7CDFD51A9F2
S315100132205BA8FFF7C9FD013DF5D129AA5BA933A812
S31510013230FFF788FA33A951A8FFF7BEFD51A95BA87C
S31510013240FFF7BAFD09255BA951A8FFF7B5FD51A9ED
S315100132505BA8FFF7B1FD013DF5D133AA5BA951A8D2
S31510013260FFF770FA51A95BA8FFF7A6FD5BA951A854
S31510013270FFF7A2FD042551A95BA8FFF79DFD5BA9E8
S3151001328051A8FFF799FD013DF5D129AA51A93DA8EC
S31510013290FFF758FA3DA951A8FFF78EFD51A95BA872
S315100132A0FFF78AFD18255BA951A8FFF785FD51A9DE
S315100132B05BA8FFF781FD013DF5D13DAA5BA947A8A2
S315100132C0FFF740FA47A95BA8FFF776FD5BA951A85E
S315100132D0FFF772FD312551A95BA8FFF76DFD5BA9BB
S315100132E051A8FFF769FD013DF5D147AA51A95BA880
S315100132F0FFF728FA5BA951A8FFF75EFD51A95BA854
S31510013300FFF75AFD18255BA951A8FFF755FD51A9DD
S315100133105BA8FFF751FD013DF5D13DAA5BA951A867
S31510013320FFF710FA51A95BA8FFF746FD5BA951A853
S31510013330FFF742FD51A95BA8FFF73EFD5BA951A816
S31510013340FFF73AFD51A95BA8FFF736FD15AA5BA950
S315100133502046FFF7F7F9054B1A68659B5A404FF05F
S31510013360000301D008F0C2F867B030BD181700206D
S3151001337037B51E4B05461E480C461B6801934FF088
S31510013380000303F055FD28461A4D03F051FD1A4866
S3151001339003F04EFD2B68986806F0EAFE002006F051
S315100133A0E7FE164803F044FD2B68986806F0E0FE28
S315100133B02B6811215A68204606F084FF90B12046E9
S315100133C008F01EF828B10138235C0A2B01D100231D
S315100133D02354064B1A68019B5A404FF0000303D041
S315100133E008F084F82070F4E703B030BD18170020F8
S315100133F00A520210E00500209E510210E8CE02107A
S3151001340007B5124B00221B6801934FF000030023EE
S31510013410C0E900230E4B836003F18833C36003F1C7
S315100134202943A3F59613A3F68B630361A3F188339E
S315100134304361064B1A68019B5A404FF0000301D0B5
S3151001344008F054F803B05DF804FB00BF181700200C
S31510013450012345672DE9F04F87B0334B03911B6864
S3151001346005934FF00003D0E902C3D0E9008E009313
S31510013470DFF8B8B02E4B009F019365467646C246DB
S3151001348000242309012B35D0022B3DD0002B42D12C
S3151001349085EA070333407B4022465BF8041B029101
S315100134A0019951F8049B019102991944039B53F810
S315100134B0223019445144C9F12009013461FA09F144
S315100134C0402C3144BA4611D1009B2B44C36047446A
S315100134D0154B076071446644416086601A68059B06
S315100134E05A404FF000031CD008F000F82F4635461D
