S02B00002F55736572732F6B68616E747572722F4465736B746F702F54756674732D65435446323032342F63DE
S3151000E0000000022081110110150E0110BF11011020
S3151000E010C1110110C3110110C5110110000000003B
S3151000E020000000000000000000000000C7110110F1
S3151000E030C911011000000000CB110110CD11011003
S3151000E040D1110110D3110110D5110110D7110110E2
S3151000E050D9110110DB110110DD110110DF110110B2
S3151000E060E1110110E3110110E5110110E711011082
S3151000E070E9110110EB110110ED110110EF11011052
S3151000E080F1110110F3110110F5110110F711011022
S3151000E090F9110110FB110110FD110110FF110110F2
S3151000E0A0250D0110550D0110051201100712011052
S3151000E0B095E200100B1201100D1201100F12011033
S3151000E0C0111201101312011015120110171201105E
S3151000E0D0191201101B1201101D1201101F1201102E
S3151000E0E021120110231201102512011027120110FE
S3151000E0F0291201102B1201102D1201102F120110CE
S3151000E100311201103312011035120110371201109D
S3151000E110391201103B1201103D1201103F1201106D
S3151000E120411201104312011045120110471201103D
S3151000E130491201104B1201104D1201104F1201100D
S3151000E14051120110531201105512011057120110DD
S3151000E150591201105B1201105D1201105F120110AD
S3151000E160611201106312011065120110671201107D
S3151000E170691201106B1201106D1201106F1201104D
S3151000E180711201107312011075120110771201101D
S3151000E190791201107B1201107D1201107F120110ED
S3151000E1A081120110831201108512011087120110BD
S3151000E1B0891201108B1201108D1201108F1201108D
S3151000E1C0911201109312011095120110971201105D
S3151000E1D0991201109B1201109D1201109F1201102D
S3151000E1E00000000000000000000000000000000019
S3151000E1F00000000000000000000000000000000009
S3151000E20000488047811101100348044B834202D015
S3151000E210034B03B1184770473C0700203C0700200A
S3151000E220000000000548064B1B1AD90F01EBA3018D
S3151000E230491002D0034B03B1184770473C07002022
S3151000E2403C0700200000000010B5064C237843B9A7
S3151000E250FFF7DAFF044B13B10448AFF30080012334
S3151000E260237010BD0008002000000000B04202100C
S3151000E27008B5054B1BB105490548AFF30080BDE84D
S3151000E2800840FFF7CFBF00BF0000000004080020C1
S3151000E290B042021000B50C4B83B01B6801934FF0CF
S3151000E2A0000303F07BFD094A136801331360064B24
S3151000E2B01A68019B5A404FF0000302D103B05DF873
S3151000E2C004FB09F093F900BF001700201C0800207A
S3151000E2D02DE9F0411D461B4B86B00646884617466B
S3151000E2E01B6805934FF0000303F0FAFA044698B939
S3151000E2F038238DF80D00CDE901758DF80C8000934B
S3151000E3006846A6B103F01EFB0F4A1368002BFCD01B
S3151000E3100023136003F0F8FA0A4B1A68059B5A405B
S3151000E3204FF000030BD1204606B0BDE8F08103F094
S3151000E33003FB10B903F0E8FAEEE70446ECE709F040
S3151000E34055F900BF001700201C08002000B50A4B25
S3151000E35083B01B6801934FF00003074B1A68019BAB
S3151000E3605A404FF0000304D103B05DF804EB02F0FD
S3151000E370A1BA09F03BF900BF0017002000B5094B00
S3151000E38083B01B6801934FF00003064B1A68019B7C
S3151000E3905A404FF0000303D1C0B203B05DF804FB3E
S3151000E3A009F024F90017002010B5114C02466369D4
S3151000E3B0104882B0006801904FF000001A70E068B3
S3151000E3C008F0F6FF236900221A7022691378002BD1
S3151000E3D0FCD0636800221A70064B1A68019B5A40DB
S3151000E3E04FF0000301D102B010BD09F0FFF800BFD5
S3151000E3F0580000200017002010B50F490F4B4A682F
S3151000E40082B01B6801934FF000031378002BFCD0E9
S3151000E4108B6809681C78E4B2224608F0C9FF074BDE
S3151000E4201A68019B5A404FF0000302D1204602B0F1
S3151000E43010BD09F0DBF800BF5800002000170020BF
S3151000E44030B5124B83B005460C201B6801934FF074
S3151000E450000304F0F7FDA8B10446A80004F0F2FD8D
S3151000E460206060B10023C4E90153084B1A68019B70
S3151000E4705A404FF0000307D1204603B030BD204666
S3151000E48004F0E8FD0024F0E709F0B0F800170020CA
S3151000E490F0B5D0E90163144A83B0B3421268019211
S3151000E4A04FF00002044602680D460DD2591CA160B9
S3151000E4B042F8235000200C4B1A68019B5A404FF02B
S3151000E4C000030CD103B0F0BD1046F10007F0BCFFFD
S3151000E4D07700024628B1C4E90007A368E6E709F009
S3151000E4E085F84FF0FF30E6E70017002010B5104B07
S3151000E4F0846882B01B6801934FF0000364B1026810
S3151000E5000023043A02E00133A34205D052F8040F67
S3151000E5108842F8D1012000E00020054B1A68019BC3
S3151000E5205A404FF0000301D102B010BD09F05EF859
S3151000E5300017002000B51A4B1A4C83B000201B6838
S3151000E54001934FF0000302F0BBFD012002F0B8FD6D
S3151000E550022002F0B5FD002002F080FD204603F0F7
S3151000E5600FF8012002F07AFD204603F009F8022088
S3151000E57002F074FD204603F003F8002002F0A0FD1F
S3151000E580204602F0FDFF012002F09AFD204602F01F
S3151000E590F7FF022002F094FD204602F0F1FFDAE7C1
S3151000E5A00017002020A1070070B5364B364C374DAA
S3151000E5B0D4F80100D4F80510D4F80920ACB01B68C3
S3151000E5C02B934FF00003D4F80D300DF12C0CACE862
S3151000E5D00F00D4F81100D4F81510D4F81920D4F877
S3151000E5E01D30ACE80F001BA9604602F055FB0DF17B
S3151000E5F04C0EBEE80F000DF10C0C6646ACE80F0091
S3151000E6009EE80F008CE80F000FCE0FC59CE80F0098
S3151000E61085E80F00A5F110012020FFF7C5FE4FF485
S3151000E62080720021204608F087FD2046FFF7E4FEA1
S3151000E630236801931BA923A80BAA02F045FB02AC81
S3151000E64000238DF8033001A923A8264611F8013BB3
S3151000E65010F8015B9DF803206B405A40B14204F854
S3151000E660013B8DF80320F1D1094B029A1A60054B34
S3151000E6701A682B9B5A404FF0000301D12CB070BD85
S3151000E68008F0B4FF001700203009002030080020E1
S3151000E6902008002070B53A4B3A4C3B4DD4F8010097
S3151000E6A0D4F80510D4F80920B2B01B6831934FF096
S3151000E6B00003D4F80D300DF1440CACE80F00D4F87B
S3151000E6C01100D4F81510D4F81920D4F81D30ACE880
S3151000E6D00F0021A9604602F0DFFA0DF1640EBEE8C4
S3151000E6E00F000DF1040C6646ACE80F009EE80F0013
S3151000E6F08CE80F000FCE0FC59CE80F0085E80F00C1
S3151000E700A5F110012020FFF74FFE4FF48072002173
S3151000E710204608F011FD2046FFF76EFE94E80F0024
S3151000E72009AD85E80F0021A929A811AA02F0CCFA93
S3151000E73000230DF133008DF803300DF123010DF197
S3151000E740A30C044611F8013F1CF801EF9DF80320B5
S3151000E75083EA0E035A40A14200F8013F8DF80320C8
S3151000E760F0D100210DA803F0F3F8054B1A68319B80
S3151000E7705A404FF0000301D132B070BD08F036FF99
S3151000E78000170020300900203008002010B5164B65
S3151000E7901648174C86B001AA04211B6805934FF042
S3151000E7A0000301F05DFD134A134B126812BAC4F848
S3151000E7B01F200FCBA646AEE807002EF8023B1A0C18
S3151000E7C00DF1040C8EF80020BCE80F00C4F80F0001
S3151000E7D0C4F8131023202146C4F81720C4F81B30A0
S3151000E7E0FFF7E2FDFFF7A6FE001700202008002025
S3151000E7F0300800202C080020A0C0011030B5144BA2
S3151000E800144D1B681449296087B01BBA6B6101ACA3
S3151000E810124B1348224604211B6805934FF0000340
S3151000E82001F01EFD94E80F0005F1040C8CE80F00B2
S3151000E83029461820FFF7B8FD084B1A68059B5A4061
S3151000E8404FF0000301D107B030BD08F0CFFE00BF76
S3151000E8502C08002030080020251111110017002067
S3151000E8602008002030B5144B144D1B68144929603C
S3151000E87087B01BBA6B6101AC124B134822460421B8
S3151000E8801B6805934FF0000301F0EAFC94E80F00B3
S3151000E89005F1040C8CE80F0029461820FFF784FDBB
S3151000E8A0084B1A68059B5A404FF0000301D107B078
S3151000E8B030BD08F09BFE00BF2C0800203008002059
S3151000E8C025111111001700202008002010B5284826
S3151000E8D02849294C294B2A4AADF58E6DCDE90010F1
S3151000E8E0E02103A82468CDF86C444FF0000407F02B
S3151000E8F059FFE02203A93BA808F05AFDE0223BA9E4
S3151000E90073A808F055FD00213822ABA808F014FCB6
S3151000E9100021ABAB73AA0846FFF7DAFCE022002110
S3151000E920E3A808F009FCE2AC0DF52A7E0DF5637C30
S3151000E9305EF8040F6246002320FA03F10833202BF9
S3151000E94002F8011BF8D174450CF1040CF0D1E3A9BF
S3151000E950E020FFF729FD084B1A68DDF86C345A40A1
S3151000E9604FF0000302D10DF58E6D10BD08F03EFE7E
S3151000E970CCC00110D4C0011000170020B0C0011087
S3151000E980B4C00110F0B5274D274FD5F81140274BCD
S3151000E990386824BA87B021461B6805934FF00003E8
S3151000E9A0FFF7A4FD002301AA042106462048CDE95D
S3151000E9B00133CDE9033301F053FC01AB2A46291D7F
S3151000E9C013F801CB12F801EFE64502D18A42F7D1CE
S3151000E9D066B11849FF20FFF7E7FC144B1A68059B30
S3151000E9E05A404FF000031AD107B0F0BD124B3868E9
S3151000E9F01C602146FFF74CFD2B78013B032BE8D812
S3151000EA00DFE803F008050B02FFF760FFE5E7FFF705
S3151000EA1029FFE2E7FFF7F2FEDFE7FFF7B7FE08F0A0
S3151000EA20E5FD00BF3009002028080020001700204F
S3151000EA3020080020300800202C08002000B5144BB8
S3151000EA4087B029201B6805934FF0000302F092FE51
S3151000EA503F2002F08FFE002101A802F0EBFD0D4BC6
S3151000EA6058B100221A700A4B1A68059B5A404FF08B
S3151000EA7000030AD107B05DF804FB01220A201A70C0
S3151000EA80FFF7DEFC044B1860EDE708F0AFFD00BFA2
S3151000EA9000170020240800202808002070B5184B05
S3151000EAA082B01B6801934FF0000362B6FFF7C6FFF2
S3151000EAB01448154C154D164EFFF760FCFFF746FC33
S3151000EAC0012002F0CBFA2046FFF796FC2B7863B1B3
S3151000EAD02378052B11D0062B0CD0FFF753FF2046B9
S3151000EAE0FFF78AFC2B78002BF2D13146FF20FFF777
S3151000EAF05BFCE8E7FFF758FDE5E7FFF7CBFDE2E73C
S3151000EB0000170020251111113009002024080020BB
S3151000EB10300800202DE9F04F644BA3B014460D4683
S3151000EB2078220021C4F3C008814602A81B682193ED
S3151000EB304FF0000308F000FB4FEA4803C3F1010C45
S3151000EB404FEA650E0CFB04F545EAA50343EA630399
S3151000EB50574903F0010002AB01381A4601F12807A4
S3151000EB600193C346E2460B68146803406340546839
S3151000EB7042F8083B4B68166A0340634042F8043C6F
S3151000EB808B6A00EA0308CB6A00EA030C0B6D88EA6D
S3151000EB90060600EA03044B6D1662566A8CEA0606F0
S3151000EBA05662966C74409464D46C0831034063408A
S3151000EBB0B942D364D7D13F4CD446CEEB0E1EA5F145
S3151000EBC0080604EB8E14DA46E646B446013D45EADD
S3151000EBD0A50242EA620202F00102F046013AA4F1ED
S3151000EBE02800A4F18007A4F1580602ABD346AE461E
S3151000EBF057F8085F1968D3F804A015404D40796896
S3151000EC0043F8085B114081EA0A0143F8041C56F8E0
S3151000EC10081F1D6A02EA010A8AEA050571681D6263
S3151000EC205D6A1140694059624568016802EA050A41
S3151000EC309D6C114069409964D96C08308AEA0101CB
S3151000EC40A042D964D4D175466545DA46C64600F168
S3151000EC507804BBD1019BF4460BF1FF36CBF10007CC
S3151000EC60A9F1040109F1240E53F8042B586ADC6C3F
S3151000EC7002EA060500EA070885EA080541F8045F76
S3151000EC803A40304042400CFB04F471458A620C65F0
S3151000EC90EAD1064B1A68219B5A404FF0000302D165
S3151000ECA023B0BDE8F08F08F0A1FC00BF00170020CC
S3151000ECB0E0C0011070C201102DE9F0474B4BD2B0E5
S3151000ECC00C1F01AE8A461B6851934FF0000301F1E9
S3151000ECD024080546914631462346DA6A53F8040F4E
S3151000ECE0121A434541F8042BF7D101A94A460846A2
S3151000ECF00BAF00F0F1FA3A46E16A54F8043F0B44C0
S3151000ED00444542F8043BF7D10BA9084609F12802FD
S3151000ED1000F0E2FA0AF1500109F1500215A800F0CC
S3151000ED20DBFA1FA90AF1740208460AF19C0A52F886
S3151000ED30043F5B00524540F8043BF8D10BAB01ACE5
S3151000ED400DF1A40C15A81A4652F8043B54F804EB1E
S3151000ED508242A3EB0E034CF8043BF5D115AC0DF132
S3151000ED60CC0801F1280CA6460A4652F8043B5EF878
S3151000ED70049B6245A3EB090348F8043BF5D13DAA71
S3151000ED8051F8043B54F804EB6145734442F8043BD4
S3151000ED90F6D147AA57F8043B56F8041B87420B4492
S3151000EDA042F8043BF6D1284633AA29A900F094FA72
S3151000EDB047AA3DA905F1280000F08EFA47AA29A90D
S3151000EDC005F1500000F088FA3DAA33A905F1780044
S3151000EDD000F082FA054B1A68519B5A404FF0000317
S3151000EDE002D152B0BDE8F08708F000FC00170020F1
S3151000EDF02DE9F04FDFB05B4B00900D1F03AF93462C
S3151000EE001B685D934FF000038A4601F124033846D0
S3151000EE102A46D16A52F8044F091B9A4240F8041B3D
S3151000EE20F7D1ABF104040DF5A6780BF12409404691
S3151000EE302246D16A52F8046F891B4A4540F8041BD2
S3151000EE40F7D103A9084653AA01930DAE00F044FA70
S3151000EE50019B3146E86A55F8042F02449D4241F859
S3151000EE60042BF7D1E26A54F8043F13444C4548F892
S3151000EE70043BF7D10DA9084653AA00F02DFA0BF161
S3151000EE8050020AF1500117A800F026FA17A90846F1
S3151000EE90354A00F021FA0AF178010BF1780221A81F
S3151000EEA000F01AFA21A92BAC0B461A68520043F847
S3151000EEB0042BA342F9D10DAB03ADA44617AA1846ED
S3151000EEC050F8043B55F804EB9042A3EB0E034CF8B4
S3151000EED0043BF5D117AD21A80DF1D40EAC4650F870
S3151000EEE0043B5CF8048BA042A3EB08034EF8043BEA
S3151000EEF0F5D13FA851F8043B55F804CBA142634421
S3151000EF0040F8043BF6D149A956F8043B57F8040BD0
S3151000EF109642034441F8043BF6D1009D35AA284693
S3151000EF20214600F0D9F949AA3FA905F1280000F0B9
S3151000EF30D3F949AA214605F1500000F0CDF93FAAB0
S3151000EF4035A905F1780000F0C7F9064B1A685D9BE4
S3151000EF505A404FF0000302D15FB0BDE8F08F08F0C1
S3151000EF6045FB00BF00170020F8390210F0B5304BF2
S3151000EF70304CADF5037D0A1F01F1240506461B68CA
S3151000EF8081934FF0000301A952F8043F54F8040B83
S3151000EF90AA42034441F8043BF6D101A979A801F02D
S3151000EFA0F3FA2549A02229A808F002FA2249A0223C
S3151000EFB051A808F0FDF90DF2E3150DF20327002410
S3151000EFC015F8012F02F00F022146083A0BA8FFF799
S3151000EFD0A1FD29A908460BAAFFF76EFE2A78120989
S3151000EFE02146083A0BA8FFF795FD51A90BAA08462A
S3151000EFF0FFF762FEAF4204F10204E1D1042451AAE4
S3151000F00011461046FFF7F4FE013CF8D151AA29A982
S3151000F0103046FFF7EDFE064B1A68819B5A404FF0BB
S3151000F020000302D10DF5037DF0BD08F0DFFA00BF35
S3151000F03000170020203C021058C1011010B5374CA3
S3151000F04082B000224FF0185301F1040E2468019487
S3151000F0504FF0000400F1040C51F8224004EB6363F6
S3151000F06023F07C4440F822405EF8224004EBA36370
S3151000F07023F07E444CF8224002320A2AECD15B1669
S3151000F080026803EBC30103EB410313440022036040
S3151000F090134650F8221001EB636323F07C4140F8CD
S3151000F0A022105CF8221001EBA36323F07E414CF88A
S3151000F0B0221002320A2AECD15B16026803EBC30156
S3151000F0C003EB41031A4402604FF05A43002250F8F2
S3151000F0D0221001EB636323F07C4140F822105CF8A8
S3151000F0E0221001EBA36323F07E414CF8221002326A
S3151000F0F00A2AECD15B16026803EBC30103EB41034A
S3151000F1001A44064B02601A68019B5A404FF00003DE
S3151000F11001D102B010BD08F069FA00BF0017002037
S3151000F1202DE9F043234B074683B0012400200E46F9
S3151000F1303D1F1B6801934FF0000307F12409844615
S3151000F140A04604F11801814210DB0346B6461EF8AC
S3151000F150012B9A4008338B424CEA020CF7DD091A50
S3151000F160C9084B1C08301E4400EBC10004F11902FB
S3151000F17008FA02F3013B03EA0C0345F8043FA945DC
S3151000F1802CFA02FCA0EB0200C4F10104D9D13B68B1
S3151000F1900CEBCC020CEB420C63443B60054B1A683B
S3151000F1A0019B5A404FF0000302D103B0BDE8F08333
S3151000F1B008F01CFA0017002070B5244B8CB00446DA
S3151000F1C001A81B680B934FF00003FFF737FF0022CF
S3151000F1D001A80DF12C0C1346056802F1120625F054
S3151000F1E07C45F108954001F1010E1D431A32A644E3
S3151000F1F004F8015BA6454FEA1525F9D1C1EB41711B
S3151000F20002EBC1024368093206EBC10623F07E43C6
S3151000F210D108B3404C1C2B4374440EF8013B744583
S3151000F2204FEA1323F9D10830C1EB4171604502EB67
S3151000F230C102D1D12370054B1A680B9B5A404FF06F
S3151000F240000301D10CB070BD08F0D0F900170020F2
S3151000F25070B5204C4FF0000E82B0246801944FF028
S3151000F26000047346F4460D1D041D51F82E605B0E06
S3151000F27043EACC134FEA6C6CC6FB023C23F07C4687
S3151000F28040F82E609B0E55F82E6043EA8C134FEA19
S3151000F290AC6CC6FB023C23F07E4644F82E600EF1A1
S3151000F2A0020EBEF10A0FE0D15B0E43EACC130268E0
S3151000F2B003EBC30103EB41031A44064B02601A68C1
S3151000F2C0019B5A404FF0000301D102B070BD08F007
S3151000F2D08DF900BF001700202DE9F04FAFB013686D
S3151000F2E00D680493C24B03954D68566A8F681B6868
S3151000F2F02D934FF000030095556909954D690A95B0
S3151000F30095690195D5680695CD69136A0C951569A9
S3151000F3100E930895CB688D69139007930869D36986
S3151000F3200B95946855684A6A096A029105950021F9
S3151000F330009D0D92CDE9141139460E9F109032465C
S3151000F34085FB066581FB07E7B6196D4116EB0E06C0
S3151000F35045EB0705079F0F9287FB037EFF194EEBC0
S3151000F3600E0EF619019F45EB0E05C0FB0765DDE98C
S3151000F370097087FB007EFF190B984EEB0E0EF619DF
S3151000F380089F45EB0E05C7FB00650C98069F87FB8B
S3151000F390007EFF194EEB0E0EF619B346029E079F1E
S3151000F3A0109845EB0E05C4FB06B50E9E87FB06E8C6
S3151000F3B0C1FB02E80A9E019F0B9AC0FB03E8C6FB3D
S3151000F3C007E8099EC6FB02E80C9A089EC6FB02E8EF
S3151000F3D0069A029E059F1194C2FB06E80D9A129397
S3151000F3E087FB029719EB09097F411BEB090945EBCE
S3151000F3F007054FEAC50B4FEAC90717EB09074BEA92
S3151000F400597B45EB0B0BFF19C4FB02E84BEB0B0BBF
S3151000F410039C049A17EB090745EB0B0B009DC4FBE5
S3151000F420027B4FEAC80A4FEACE06CDE9187B16EBE7
S3151000F4300E064AEA5E7A82FB05572246059C48EB81
S3151000F4400A0AB619C2FB04574AEB0A0A16EB0E064D
S3151000F45048EB0A0A76190F9A079D0D9C4AEB070787
S3151000F460CDE91A670E9E85FB025E80FB06766D1946
S3151000F4704EEB0E0EED190A9F0B984EEB060E87FB00
S3151000F4800367B6197F41AD19019E4EEB070EC6FBF9
S3151000F490005E0C98099E86FB0067B6197F41AD1970
S3151000F4A04EEB070E029E089F0A98C7FB065E069F44
S3151000F4B087FB0476FF197641ED194EEB060E4FEADF
S3151000F4C0CE06EF007F1946EA55764EEB0606FF1973
S3151000F4D076417F194EEB060E0E9E80FB065910984C
S3151000F4E00B9EC0FB0259C6FB03590C9E019BC3FB26
S3151000F4F00659099E029B049AC6FB0359089BC3FB37
S3151000F5000459059C009B84FB038B18EB0808119C7F
S3151000F510039B4BEB0B0BC3FB048BC2FB018B17EB53
S3151000F52008074EEB0B0E4FEAC90AEE00CDE91C7E1A
S3151000F5307619009F4AEA557A49EB0A0A1A46B6190D
S3151000F540069B4AEB0A0A761987FB0457C2FB035738
S3151000F550059B049AC3FB0157079BC2FB035749EB54
S3151000F5600A0A76194AEB0707CDE91E670F9E0A9F0E
S3151000F5700B9A129B87FB06570E9E6D1982FB06E6A9
S3151000F5807F4115EB0E0547EB06070C9E83FB066EB7
S3151000F590B6194EEB0E0EAD19DDE9016247EB0E07FB
S3151000F5A0C6FB02570D9A099E009B86FB02E61EEBD0
S3151000F5B00E0E764115EB0E0547EB06074FEAC70E02
S3151000F5C0EE0076194EEA557E47EB0E0EB6194EEB47
S3151000F5D00E0E7619069D039A47EB0E0783FB055E02
S3151000F5E06D19089B4EEB0E0EC2FB035E079B01E0E6
S3151000F5F000170020059A82FB0389C4FB015E18EBF5
S3151000F6000808049A129B49EB090915EB08054EEBFD
S3151000F610090EC2FB005E751947EB0E0E16950C9F70
S3151000F6200E9D0B9ACDF884E087FB05560F9FC2FB03
S3151000F6300756029F0D9AC3FB0756019F099BC7FBEE
S3151000F6400256F7004FEAC50E1EEB050E47EA557730
S3151000F65046EB07071EEB0E0E7F411EEB050E46EB23
S3151000F6600706089D009F039A87FB0557C2FB0357A1
S3151000F670069A079BC1FB0257C4FB0357059B049AC6
S3151000F680C3FB00570A98C2FB005715EB0E0E47EB4B
S3151000F69006052395009E099D039ACDF85CE086FB2E
S3151000F6A005576D19019E10987F41C2FB0657089E9B
S3151000F6B0C1FB0657DDE9066386FB036EB6194EEBF2
S3151000F6C00E0EAD1947EB0E07C4FB0057059E0A98A0
S3151000F6D086FB006EB6194EEB0E0EAD19049E0B9AF4
S3151000F6E00C98029B47EB0E07C6FB02570F9E039A18
S3151000F6F080FB06680E98B61980FB039E129B0D9828
S3151000F70048EB080816EB090648EB0E0883FB009E2B
S3151000F71019EB09094EEB0E0E16EB090648EB0E080F
S3151000F7204FEAC8094FEAC60E1EEB060E49EA56798D
S3151000F73048EB09091EEB0E0E49EB09091EEB060EE6
S3151000F74048EB090815EB0E0ADDE9006547EB080BD7
S3151000F75086FB0556099F1098C2FB0356C1FB075638
S3151000F760DDE90772C7FB0256069F039A0391C7FB92
S3151000F77000560A980B9FC4FB00560598C0FB075607
S3151000F780049F0C98C7FB0056DDE90D400F9F80FBC8
S3151000F79004E9029CC4FB07E94FEAC9084FEACE0701
S3151000F7A017EB0E0748EA5E78009C49EB0808FF192C
S3151000F7B048EB080817EB0E0749EB0809ED1984FB0F
S3151000F7C0037E46EB0906FF194EEB0E0EC2FB007EBA
S3151000F7D004460198C1FB007E00980F9980FB040433
S3151000F7E0C2FB01040399C1FB03040799019B109AFC
S3151000F7F0C1FB0304099B81FB038918EB08080899D0
S3151000F800C2FB030449EB09090A9B17EB08074EEBE9
S3151000F810090EC1FB027EC1FB030406990B9A81FBFC
S3151000F820038918EB08080C9BC1FB020449EB090974
S3151000F830119917EB08074EEB090EC1FB027EC1FBAF
S3151000F84003040599029A81FB038918EB0808C1FB8A
S3151000F8500204029B049A49EB090917EB08074EEBC1
S3151000F860090EC2FB037E0D9BC2FB03040F9ACDE962
S3151000F8702A0416982090CDE926561798229082FBD6
S3151000F8800365AC00B000801944EA967445EB040495
S3151000F890A40044EA90748000801B64EB05040018F1
S3151000F8A064413F184EEB0404CDE924ABCDE928742E
S3151000F8B00DF1600C0023624619461068556894686D
S3151000F8C05B0E43EAC113181845EB6161830E43EAD8
S3151000F8D081131B1920F07C40D468106023F07E45FC
S3151000F8E04FF00000D060C2E9010502F110022CA809
S3151000F8F044EBA1619042E0D15B0E43EAC113491675
S3151000F900C800DA00D21840EA537041EB0000921892
S3151000F9104041D218189B139E41EB00019B18189377
S3151000F920199B4FF0000041EB030119910246014665
S3151000F930351DDCF80040530E43EAC113DCF80420F1
S3151000F9401C1942EB6161A30EDCF8082043EA81130F
S3151000F9509A1824F07C44DCF80C3046F8204022F04B
S3151000F9607E4745F8207000F1020043EBA1610A289A
S3151000F9700CF1100CDDD11398530E43EAC113026833
S3151000F98003EBC30103EB41031A44064B02601A68EA
S3151000F9902D9B5A404FF0000302D12FB0BDE8F08FD7
S3151000F9A007F024FE001700202DE9F04FA1B0D74B29
S3151000F9B00790D1E900721B681F934FF00003D1E93D
S3151000F9C0083688690C69D1F81C80D1F80CE0D1F89A
S3151000F9D014908D68029001940AA982FB0304C7FB58
S3151000F9E00604CDE9081102990396C5FB0804CEFB5F
S3151000F9F0010401990495C1FB0904001864411C9087
S3151000FA0082FB06061D94001885FB035476414019A7
S3151000FA1046EB04068EFB084524196D4100190C4669
S3151000FA20029946EB0506C4FB0106C9FB0906B5009B
S3151000FA308400241845EA907546EB0505AD0045EAA5
S3151000FA409475A400241A65EB060524196D41C7FBAD
S3151000FA500745CDE90A45DDE903408EFB0356C0FB99
S3151000FA6004560198C0FB0856C9FB0156B400A800FD
S3151000FA70401944EA957446EB0404A40044EA9074D1
S3151000FA808000401B64EB060487FB02560018644195
S3151000FA906D197641401944EB0604CDE90C04039C1C
S3151000FAA0019E06938EFB0405001886FB03646D41C8
S3151000FAB0801945EB040589FB08462419764100197F
S3151000FAC045EB060581FB016400186D41801945EB75
S3151000FAD00405EE00C400241846EA507645EB0606E7
S3151000FAE02419049B7641241845EB060682FB020571
S3151000FAF0C7FB030500186D412418069846EB05064A
S3151000FB00CDE90E46039C89FB00560198C0FB0456AE
S3151000FB10C1FB0856B400A800401944EA957446EB98
S3151000FB200404A40044EA90748000401B64EB0604AD
S3151000FB3082FB0356C7FB0E56001864416D197641B9
S3151000FB40401944EB06043946CDE9100482FB0E0732
S3151000FB50059100180C460199029E7F41C4FB0107CE
S3151000FB60001883FB03547F414019039D47EB04079C
S3151000FB7089FB054C069D241986FB05564CEB0C0C8F
S3151000FB8064194CEB060CC8FB084C4FEA8C06A50012
S3151000FB902D1946EA94764CEB0606B60046EA95769B
S3151000FBA0AD002D1B66EB0C066D197641401947EB1F
S3151000FBB00607CDE91207059F039D82FB0146C7FB89
S3151000FBC00946C3FB0E46069B029988FB037CC1FBC4
S3151000FBD0057C24194FEA8C054FEA8700764145EAE1
S3151000FBE09775C0194CEB0505AD0045EA9075800078
S3151000FBF0C01B65EB0C0500186D41241846EB050675
S3151000FC0082FB0905CDE914460018059C049E039F46
S3151000FC106D41C4FB01050199C6FB010588FB076709
S3151000FC20CEFB0E05BF0083FB03C4001847EA967788
S3151000FC304FEA86066D4116EB0C0647EB04074FEAB2
S3151000FC40C70CF400A4194CEA567C47EB0C0C24198B
S3151000FC504CEB0C0CA41947EB0C070299001945EB59
S3151000FC600705059CCDE91605049E039F82FB01C579
S3151000FC70C4FB08C50199C6FB09C5CEFB01C582FBAD
S3151000FC8008028EFB096881FB01E9CDF8189083FB09
S3151000FC9007791CEB0C0CCDF804E04FEA89044FEA07
S3151000FCA0870E6D4144EA97741EEB070E49EB040468
S3151000FCB0A40044EA9E744FEA8E0EBEEB070E64EB68
S3151000FCC009041EEB0E0E64411CEB0E0745EB0405F2
S3151000FCD00018059C02995241C4FB0302049C069B22
S3151000FCE0C4FB0102B619CDE91875039F019948EBBB
S3151000FCF00808801942EB080287FB07760018524164
S3151000FD00B50040184FEA870402E000BF0017002034
S3151000FD1042EB030245EA9775E41946EB0505AD007B
S3151000FD2045EA9475A400E41B65EB060524196D419C
S3151000FD30001942EB0502089BCDE91A024FF0000AA2
S3151000FD40D346194618685D689C684FEA5A6242EABB
S3151000FD50CB12101845EB6B6B820E42EA8B1212EB2C
S3151000FD60040A20F07C40DA6818602AF07E444FF0CE
S3151000FD700000D86042EBAB6BC3E901041EAA103336
S3151000FD809A42DFD14FEA5A6343EACB134FEA6B62CA
S3151000FD90D400D800C01844EA537442EB0404001887
S3151000FDA06441C0180A9B079F42EB04021B180A9372
S3151000FDB00B9B4FF0000442EB03020B9220462246A7
S3151000FDC03E1D0D68530E43EAC0134A685D1942EB97
S3151000FDD06060AB0E8A6843EA80139A1822F07E435D
S3151000FDE025F07C4547F8245046F82430CB6804F1BA
S3151000FDF0020443EBA0600A2C01F11001E1D1530E6D
S3151000FE0043EAC013079803EBC301026803EB4103EF
S3151000FE101A44064B02601A681F9B5A404FF00003A3
S3151000FE2002D121B0BDE8F08F07F0E0FB00170020EB
S3151000FE3030B5794BE7B0054601A81B6865934FF0BE
S3151000FE4000030C46FFF7B0FD01A95BA8FFF7ACFD58
S3151000FE505BA951A8FFF7A8FD224651A90BA8FFF7E9
S3151000FE603BFA01AA0BA915A8FFF736FA15A951A84E
S3151000FE70FFF79AFD0BAA51A91FA8FFF72DFA1FA984
S3151000FE8051A8FFF791FD51A95BA8FFF78DFD5BA95E
S3151000FE9051A8FFF789FD51A95BA8FFF785FD5BA95E
S3151000FEA051A8FFF781FD1FAA51A929A8FFF714FA37
S3151000FEB029A951A8FFF778FD51A95BA8FFF774FD92
S3151000FEC004245BA951A8FFF76FFD51A95BA8FFF7A2
S3151000FED06BFD013CF5D129AA5BA933A8FFF7FCF904
S3151000FEE033A951A8FFF760FD51A95BA8FFF75CFD88
S3151000FEF009245BA951A8FFF757FD51A95BA8FFF785
S3151000FF0053FD013CF5D133AA5BA951A8FFF7E4F9DB
S3151000FF1051A95BA8FFF748FD5BA951A8FFF744FD5F
S3151000FF20042451A95BA8FFF73FFD5BA951A8FFF771
S3151000FF303BFD013CF5D129AA51A93DA8FFF7CCF903
S3151000FF403DA951A8FFF730FD51A95BA8FFF72CFD7D
S3151000FF5018245BA951A8FFF727FD51A95BA8FFF745
S3151000FF6023FD013CF5D13DAA5BA947A8FFF7B4F9DB
S3151000FF7047A95BA8FFF718FD5BA951A8FFF714FD69
S3151000FF80312451A95BA8FFF70FFD5BA951A8FFF714
S3151000FF900BFD013CF5D147AA51A95BA8FFF79CF9C7
S3151000FFA05BA951A8FFF700FD51A95BA8FFF7FCFC60
S3151000FFB018245BA951A8FFF7F7FC51A95BA8FFF716
S3151000FFC0F3FC013CF5D13DAA5BA951A8FFF784F9D2
S3151000FFD051A95BA8FFF7E8FC5BA951A8FFF7E4FC61
S3151000FFE051A95BA8FFF7E0FC5BA951A8FFF7DCFC61
S3151000FFF051A95BA8FFF7D8FC15AA5BA92846FFF7FD
S315100100006BF9054B1A68659B5A404FF0000301D1F5
S3151001001067B030BD07F0EAFA001700202DE9F04F5E
S31510010020D0E900A9C668384BD0F808B0374D384C1E
S3151001003085B007461B6803934FF000038846CDE948
S3151001004000A9CE465346314658464FF0000CB146EC
S31510010050BA461DE0AAB36EEA0102CCEBCC064240C9
S3151001006006F00F0655F8047F58F826603A443244D4
S315100100701A4454F8043F0CF1010CC3F12003DA4180
S31510010080BCF1400F72440B4622D00146704696468B
S315100100904FEA1C12012A0AD0022ADBD10CEB4C06BC
S315100100A005368EEA000206F00F064A40DAE78EEAB6
S315100100B000020CEB8C060A400136424006F00F0690
S315100100C0D0E780EA010202EA0E024A406646C9E713
S315100100D057464E46DDF800A0DDF804900BEB0E03F3
S315100100E04A4451440644C7E90236C7E90012064B91
S315100100F01A68039B5A404FF0000302D105B0BDE8C0
S31510010100F08F07F073FA00BF001700201C3A021097
S315100101101C3B02102DE9F043D0E9005380462548D7
S3151001012093B0006811904FF00000501943F100038D
S31510010130C8F80000C8F8043082B30A4405F03F0538
S315100101404E1E02F1FF3910AC08F1080702E0B14565
S315100101501D4623D008EB05026B1C16F8011F1176FC
S3151001016013F03F05F3D142466946937E92F81BE0A0
S3151001017092F818C0507E1B0443EA0E6343EA0C033F
S3151001018043EA002341F8043F8C4202F10402ECD108
S3151001019001A93846FFF742FFB145DBD1054B1A6875
S315100101A0119B5A404FF0000302D113B0BDE8F08302
S315100101B007F01CFA00170020F0B50568254B2649F3
S315100101C005F03F05372D94BFC5F13805C5F1780502
S315100101D093B004462A461B6811934FF00003FFF7AC
S315100101E099FFD4E90063761B63F10007C4E9006740
S315100101F0EC460EAD21468B7ECA7E087E91F819E03B
S315100102001B0443EA0263034343EA0E234CF8043FFB
S31510010210AC4501F10401EED1FF00F20004F1080032
S3151001022047EA567701A9CDE90F27FFF7F7FE231DF8
S31510010230143453F8042F1A659C42FAD1054B1A68E7
S31510010240119B5A404FF0000301D113B0F0BD07F0D6
S31510010250CDF900BF001700200000002000000000AB
S3151001026010B59FED177B9CB08DED007B0B469FED76
S31510010270167B14461A46184B1B681B934FF0000346
S315100102808DED027B9FED127B014668468DED047B59
S31510010290FFF740FF6846FFF78FFF0DF1580CBCE8DA
S315100102A00F00E3600C4B20606160A2601A681B9B13
S315100102B05A404FF0000301D11CB010BD07F096F95A
S315100102C000000000000000000123456789ABCDEF57
S315100102D0FEDCBA9876543210001700202DE9F04F43
S315100102E0684B694E99B001F120071B6817934FF0BF
S315100102F0000300230C460546A6F12808BE469C4677
S3151001030056F8041C5EF8040F3246043EB045C0FB95
S31510010310013CF5D1DFF878919B0E43EA8C134946DF
S315100103204FEAAC6C8E4657F8046F51F8040D7245BE
S31510010330C6FB003CF6D10DF1040E04F1240804F1BC
S315100103404C07F2469B0E43EA8C134E464FEAAC6CB1
S31510010350424652F8040F56F8041D9742C0FB013C61
S31510010360F7D108F1040823F07C4247454AF8042BDB
S31510010370E8D1DFF820A19B0E43EA8C134FF0000958
S315100103800DF130080B93C3464B46CC46AAF1040730
S315100103909B0E43EA8C1352464FEAAC6C764652F8E2
S315100103A0041D56F8040B9742C0FB013CF7D109F125
S315100103B0010923F07C41B9F10B0F4BF8041B0AF12B
S315100103C0040AE5D10023A4F1040C0CAF2834184615
S315100103D05CF8041F3E689B0E43EA80135B184FEAD4
S315100103E0E17141EBE0709B1B23F07C4160EBE67001
S315100103F0644547F8041BEBD10C9B244818440CABFD
S3151001040001900DF1580C76461C4654F8041F52F80B
S31510010410047F034601EBA061C81B23F07C43A4456E
S31510010420706046F8043BF0D10B9917A8C917D8F894
S3151001043000305EF8042B53400B40534048F8043B00
S315100104408045F4D10CAE14AF34460FCCBC4205F145
S315100104501005264645F8100C45F80C1C45F8082CD5
S3151001046045F8043CF0D103CE064B286069601A6842
S31510010470179B5A404FF0000302D119B0BDE8F08F17
S3151001048007F0B4F800170020703C0210132C0AFF75
S31510010490743C0210783C021010B5164B96B01B68CE
S315100104A015934FF0000304460A1F0DF1040C01F1D8
S315100104B0240E002352F8041F01EBA36323F07C41A1
S315100104C096454CF8041BF5D19B16242200210CA845
S315100104D00B9306F031FE01A92046FFF7FFFE054BEF
S315100104E01A68159B5A404FF0000301D116B010BD82
S315100104F007F07CF8001700202DE9F041214B96B04A
S315100105001B6815934FF0000300238E186F460DF1EB
S3151001051050081C461D468E4216D817E011F801CB1D
S31510010520A3F12002C3F1200E0CFA02F22CFA0EFEF0
S3151001053042EA0E020CFA03FC8E424CEA040445EA26
S31510010540020503F1080301D0192BE7DD24F07C42E3
S3151001055047F8042FA40E474544EA8514A3F11A035C
S315100105604FEA9565D7D101A9FFF7B8FE054B1A6871
S31510010570159B5A404FF0000302D116B0BDE8F08129
S3151001058007F034F8001700202DE9F041224B8CB00A
S31510010590044601A81B680B934FF00003FFF77CFF7D
S315100105A0002304F1200C01AF0DF12C0819461A464F
S315100105B057F8045BA3F12006E817C3F1200E984003
S315100105C005FA06F625FA0EFE30439D401A3340EA27
S315100105D00E00072B41EA050142EA00020EDDA44591
S315100105E002D80BE0A44509D0083B080A072B04F8EA
S315100105F0011B40EA02614FEA1222F3DC4745D7D1CB
S31510010600054B1A680B9B5A404FF0000302D10CB0F0
S31510010610BDE8F08106F0EAFF00170020F0B59D4B0A
S315100106209D4883B01B6801934FF0000384686306ED
S3151001063044D59A4E3378002B40F0E780984D964872
S315100106402B78052B16D801F0C9FF2978954B964DB5
S3151001065053F821202B68D21A824200F3E88093487E
S3151001066050F8211019448C4801F0B6FF2B68034449
S315100106702B6002E001F0B8FF8B4D87480022102154
S3151001068001F0BAFF84480022202101F0B5FF82480B
S3151001069001F0A4FF002840F0F7807F4801F0A2FF87
S315100106A0082802D07C4801F0A1FF814B7A4800222C
S315100106B040212A601A60327001F09AFFA70603D50D
S315100106C07548C3689E0646D4200252D462027FD46E
S315100106D0E3061BD5714C2378002B40F08880704CB3
S315100106E06D482378052B1BD901F07EFF694B1A68DB
S315100106F0019B5A404FF0000340F0CA806648002221
S31510010700102103B0BDE8F04001F072BF614B1A68C9
S31510010710019B5A404FF0000340F0BA8003B0F0BD80
S3151001072001F05CFF21785F4A5F4C52F82120236863
S31510010730D21A824270DD5D4A574852F821501D4443
S3151001074001F04CFF29460246534801F045FF236844
S3151001075003442360CAE7250400F19080504D2B789D
S31510010760052B6ED94C480022202101F041FF2002B1
S31510010770ACD54FF400014848002201F039FF21049D
S31510010780A4D5474D444800224FF4004101F030FFF3
S3151001079041480122294601F01FFF2B78052B95D8D8
S315100107A0404E424A3C4852F8231056F8232001F095
S315100107B017FF3F4B2A78196856F8222008449042B1
S315100107C0186083DA34480022202101F013FF7DE7F7
S315100107D0324B31480022102101251D7001F00AFF0C
S315100107E02D4800224FF4800101F002FF70E72C49D9
S315100107F02948012201F0F0FE00232370284C2648D7
S315100108002378052B3FF670AF8AE72549012201F0BF
S31510010810E3FE0023337011E7244850F821101E48D7
S31510010820194401F0D9FE2368034423605EE71F4A89
S31510010830194852F821701F4401F0D0FE394602467C
S3151001084011E71B4E174F1949326851F8231057F803
S315100108502330114811449A1A01F0C2FE2B783268DE
S3151001086057F823301044013B984230607FF47AAF39
S3151001087009480022202101F0BFFE73E700224FF440
S31510010880004101F0B5FE69E7034801F0ADFE04E74A
S3151001089006F0ACFE0017002000E00140390A0020E6
S315100108A0380A002040000020340A00205800002099
S315100108B0300A002010B5244B82B00246002123488D
S315100108C01B6801934FF0000301F048FE044600280F
S315100108D034D11F491D4801F07BFE1C4801F084FEEE
S315100108E022461A484FF4800101F084FE2246174829
S315100108F04FF4000101F07EFE22461448402101F01A
S3151001090079FE1449242000F075FE134B10225A600B
S315100109104FF0FF3211460D4801F06AFE0F4B596830
S315100109200C701B6901221A70074B1A68019B5A40F9
S315100109304FF0000306D1204602B010BD084805F05D
S315100109407BFDF1E706F052FE0017002000E00140A2
S31510010950A08601001D06011000E100E058000020EC
S31510010960A03C02102DE9F0412D4B0E46D0B01B686C
S315100109704F934FF000034968B268F3680546306833
S3151001098047AC0FC430697169B269F3690FC49DF838
S315100109901C119DF83B3121F0070103F07F0343F051
S315100109A0400320228DF81C1101A847A90DF17C08DE
S315100109B08DF83B3128ACFFF79FFD15AF01A94046D5
S315100109C0FEF7D4FABE46A446DCF854305CF8046F40
S315100109D09B1B4EF8043BC645F6D139463846FFF700
S315100109E027FA0DF12C0C666D54F8043F33444CF87C
S315100109F0043B6745F7D10BA93A460846FEF76CFC4E
S31510010A000BA92846FEF7D8FB054B1A684F9B5A408F
S31510010A104FF0000302D150B0BDE8F08106F0E6FDBB
S31510010A20001700202DE9F04F994B0D46ADF5257DA8
S31510010A301B68A3934FF000030746EB6808684968E3
S31510010A401646AA689BAC0FC42869EB696969AA693D
S31510010A500FC49DF88B329DF86C2203F07F0343F08F
S31510010A60400322F00702314673A88DF88B32012418
S31510010A708DF86C22FEF754FB242200217EA87D946A
S31510010A8006F05AFB2422002160A85F9406F054FB5D
S31510010A90002124226AA869910DF5237906F04CFBF1
S31510010AA0502273A987A806F083FC0DF18C0A4BAC72
S31510010AB055ADCB4603971BF9016DCDF808B04FF034
S31510010AC00809F211D2B24FF0000862F3070862F377
S31510010AD00F2862F317485EAF62F31F68BC4687A8FA
S31510010AE05CF8043F016883EA010202EA08025140F8
S31510010AF0534040F8041BCCF800309BAB9842EFD121
S31510010B000DF5BE7B05A95A4652F8040B536A0344E8
S31510010B1041F8043B69AB9342F6D105A919A8FEF732
S31510010B2043FF0FAA5BF8043BDBF824105B1A42F86B
S31510010B30043B69AB5B45F5D10FA95046FEF734FF6F
S31510010B4019AA51465FA8FEF7C7FB0DF1640B41AB1D
S31510010B505046009319465A4652F8043B50F804CBB6
S31510010B609245A3EB0C0341F8043BF5D1494A41A93F
S31510010B702046FEF76DFB0194224613685BF8041BB1
S31510010B800B4442F8043B9542F7D1224641A969A884
S31510010B90FEF7A2FB87AA0DF1B40C114651F8040B0E
S31510010BA04B6A03444CF8043B91AB8B42F6D137A9FF
S31510010BB052F8043B506A1B1A41F8043B91AB9A4216
S31510010BC0F6D12DAA0FA941A8FEF786FB37AA05A9CA
S31510010BD02046FEF781FBAB462846214641AA52F82C
S31510010BE0043B51F804CBA242634440F8043BF6D1CE
S31510010BF0294687A8FEF7D8FE0099019851F8043BBB
S31510010C0050F8042B00919B1AA1424BF8043B01901A
S31510010C10F2D129462846FEF7C7FE73AA294691A89E
S31510010C20FEF75AFB87AA57F8043F106883EA0001BA
S31510010C3001EA080148404B4042F8040B3B609BAB6C
S31510010C409A42F0D17600B9F1010976B27FF439AF43
S31510010C50DDF808B093457FF42EAF69A90846039FC6
S31510010C60FFF7E6F85FA969AA0846FEF735FB5FA903
S31510010C703846FEF7A1FA064B1A68A39B5A404FF065
S31510010C80000303D10DF5257DBDE8F08F06F0AEFC0E
S31510010C900017002041DB010000B50A4B83B01B6829
S31510010CA001934FF00003074B1A68019B5A404FF00E
S31510010CB0000304D103B05DF804EBFFF753BE06F051
S31510010CC095FC00BF0017002000B50B4B83B01B68C5
S31510010CD001934FF00003084BD3F800C0019B93EA30
S31510010CE00C0C4FF0000304D103B05DF804EBFFF7D1
S31510010CF099BE06F07BFC00BF0017002000B5DFF897
S31510010D0020C083B003460548DCF800C0CDF804C006
S31510010D104FF0000C02F060FCFEE700BFBC3C021075
S31510010D200017002000B50A4B83B01B6801934FF0E2
S31510010D300003074B1A68019B5A404FF0000305D177
S31510010D40002003B05DF804EB01F088BA06F04EFC02
S31510010D500017002000B50A4B83B01B6801934FF0B2
S31510010D600003074B1A68019B5A404FF0000305D147
S31510010D70012003B05DF804EB01F070BA06F036FC01
S31510010D800017002010B51D4B82B000201B6801937F
S31510010D904FF0000300F00EFD012000F00BFD402086
S31510010DA000F008FD164B022218684FF4E13101F0EC
S31510010DB03FFE041E0CDB00F0B5F9D0B900F01CF9AA
S31510010DC0044688B90F4B10484322DA6000F0D8FB6D
S31510010DD00A4B1A68019B5A404FF0000302D1204674
S31510010DE002B010BD06F002FC084909487422FFF74B
S31510010DF085FF064906486F22FFF780FF001700207E
S31510010E007000002000440040400D0300D83C021041
S31510010E10383D021000B5094B83B01B6801934FF0A2
S31510010E20000300BF054B1A68019B5A404FF000039F
S31510010E3002D103B05DF804FB06F0D8FB00170020C1
S31510010E4000B50A4B83B01B6801934FF00003074BA3
S31510010E501A68019B5A404FF0000304D14FF0FF303E
S31510010E6003B05DF804FB06F0C1FB00BF00170020BC
S31510010E7000B50A4B83B01B6801934FF00003074B73
S31510010E801A68019B5A404FF0000304D14FF0FF300E
S31510010E9003B05DF804FB06F0A9FB00BF00170020A4
S31510010EA000B50A4B83B01B6801934FF00003074B43
S31510010EB01A68019B5A404FF0000304D14FF0FF30DE
S31510010EC003B05DF804FB06F091FB00BF001700208C
S31510010ED000B50A4B83B01B6801934FF00003074B13
S31510010EE01A68019B5A404FF0000304D14FF0FF30AE
S31510010EF003B05DF804FB06F079FB00BF0017002074
S31510010F00F0B51A4B83B01B6801934FF0000318BB61
S31510010F10002A18DD164D0E468F180C4603E0631C89
S31510010F20BB420DD01C46284601F046FEC1B22170C7
S31510010F30284601F043FE23780D2BF0D10A232370A6
S31510010F40C6F10106A019094B1A68019B5A404FF0C8
S31510010F50000308D103B0F0BD06F090F90923036030
S31510010F604FF0FF30EFE706F041FB00BF00170020FE
S31510010F7000200440F0B5431E1D4883B0012B0068C4
S31510010F8001904FF0000029D8002A174612DD531E92
S31510010F90184C4D1ECE1815F8013F0A2B14D02046B9
S31510010FA001F010FE0028FAD02978204601F006FE3D
S31510010FB0B542F0D138460E4B1A68019B5A404FF094
S31510010FC0000312D103B0F0BD204601F0FBFD00284D
S31510010FD0FAD00D21204601F0F1FDE0E706F04EF9B9
S31510010FE0092303604FF0FF30E5E706F0FFFA00BF73
S31510010FF00017002000200440F0B5154B154A1F6854
S3151001100083B0126801924FF00002E7B10025124C2D
S315100110102E46D4E9000101F0F5F8204601F048F911
S315100110200135002818BF6FF00706AF4204F10C0412
S31510011030EFD1084B1A68019B5A404FF0000304D1B7
S31510011040304603B0F0BD3E46F3E706F0CFFA00BFD7
S31510011050403D021000170020443D021010B5134BFD
S31510011060134A1B6882B083420446126801924FF0FC
S31510011070000213D90E4B1A68019B5A404FF0000318
S3151001108012D10C4B04EB440403EB840253F82400F5
S31510011090516802B0BDE8104001F0CAB806490748C8
S315100110A03B22FFF72BFEE5E706F0A0FA403D0210C2
S315100110B000170020443D0210843D0210D03D02105D
S315100110C010B5134B134A1B6882B08342044612684B
S315100110D001924FF0000213D90E4B1A68019B5A4028
S315100110E04FF0000312D10C4B04EB440403EB8402C2
S315100110F053F82400516802B0BDE8104001F082B8DF
S31510011100064907484622FFF7F9FDE5E706F06EFAAC
S31510011110403D021000170020443D0210843D02108C
S31510011120D03D0210F0B5134B134A1F6883B01268F5
S3151001113001924FF00002C7B10024104D26462846F1
S3151001114001F0B6F80134002818BF6FF00706BC424B
S3151001115005F10C05F3D1084B1A68019B5A404FF063
S31510011160000304D1304603B0F0BD3E46F3E706F066
S315100111703DFA00BF683D0210001700206C3D0210B9
S31510011180474885464748804780B94749474A484BAB
S315100111909B1A03DD043BC858D050FBDC4549464A2F
S315100111A000209142BCBF41F8040BFAE7434880473F
S315100111B04348804743488047FFF7FEFFFEE7FEE7B7
S315100111C0FEE7FEE7FEE7FEE7FEE7FEE7FEE7FEE7E0
S315100111D0FEE7FEE7FEE7FEE7FEE7FEE7FEE7FEE7D0
S315100111E0FEE7FEE7FEE7FEE7FEE7FEE7FEE7FEE7C0
S315100111F0FEE7FEE7FEE7FEE7FEE7FEE7FEE7FEE7B0
S31510011200FEE7FEE7FEE7FEE7FEE7FEE7FEE7FEE79F
S31510011210FEE7FEE7FEE7FEE7FEE7FEE7FEE7FEE78F
S31510011220FEE7FEE7FEE7FEE7FEE7FEE7FEE7FEE77F
S31510011230FEE7FEE7FEE7FEE7FEE7FEE7FEE7FEE76F
S31510011240FEE7FEE7FEE7FEE7FEE7FEE7FEE7FEE75F
S31510011250FEE7FEE7FEE7FEE7FEE7FEE7FEE7FEE74F
S31510011260FEE7FEE7FEE7FEE7FEE7FEE7FEE7FEE73F
S31510011270FEE7FEE7FEE7FEE7FEE7FEE7FEE7FEE72F
S31510011280FEE7FEE7FEE7FEE7FEE7FEE7FEE7FEE71F
S31510011290FEE7FEE7FEE7FEE7FEE7FEE7FEE7FEE70F
S315100112A000000220BD130110784302100000002037
S315100112B03C070020000800209C180020E9130110AB
S315100112C0A57201109DEA001000B5144A144903468F
S315100112D0106883B0096801914FF0000170B111498E
S315100112E003448B4210D813600D4B1A68019B5A4068
S315100112F04FF000030FD103B05DF804FB0A4809490A
S31510011300106003448B42EED905F0B8FF0C2303603D
S315100113104FF0FF30E8E706F069F900BF4C0C0020EA
S315100113200017002000F00120A018002000B51E4A69
S3151001133083B04FF08043126801924FF000029A6811
S3151001134002F46062B2F5206F29D01AD9B2F5406F56
S3151001135020D0164B1649B2F5606F18BF0B464FF0E9
S31510011360804214499268C2F38212D3400B600E4B2D
S315100113701A68019B5A404FF0000313D103B05DF870
S3151001138004FB52B10A4947F23053B2F5C06F18BF88
S315100113900B46E4E74FF40043E1E7074BDFE74FF471
S315100113A0E103DCE706F022F900170020C068780493
S315100113B000E1F5059C1800200087930300B5094B41
S315100113C083B01B6801934FF00003064B1A68019B0B
S315100113D05A404FF0000303D1002003B05DF804FB1F
S315100113E006F004F90017002010B5124A124C134BDF
S315100113F0134882B0126801924FF00002A36001F007
S31510011400B6FAD4F8883043F47003C4F88830BFF3C1
S315100114104F8FBFF36F8FFFF789FFFFF7B3FC054BB4
S315100114201A68019B5A404FF0000301D102B010BD5A
S3151001143006F0DCF80017002000ED00E000E00010D7
S3151001144000A0024038B54FF0E02318499C691A698B
S3151001145022F480320A601A69D2075BBF6FF07F44AB
S3151001146005225D695C615CBF9C611A61104B114A72
S3151001147019684FF00003A0FB010154BF4FF08075AE
S3151001148001350AF095FC0C4BB0FBF5F205FB120089
S3151001149084421A609FBF1A6801321A602D19074BD0
S315100114A094BF281A201A186038BD00BF540C0020AA
S315100114B09C18002040420F0074000020580C002098
S315100114C010B50B4A0B4C11602268002A0DDC50B185
S315100114D0FFF7B8FF2368002BC1BF4FF0E022136955
S315100114E043F002031361002010BD6FF00500FBE706
S315100114F0500C00207400002010B5094C236823B14C
S315100115006FF00F00984700232360064B1A684FF0BF
S31510011510E0231A61044B4FF0FF321A6010BD00BF71
S31510011520500C0020540C00207400002038B5114BCB
S315100115301A68002A08DA104C23681BB10020984754
S3151001154000232360002038BD1C6884B94FF0E023C6
S315100115509A690A4B1B689A4209D8074DFFF7CCFFC7
S315100115602B68002BEED0204698472C60EAE76FF0E7
S315100115700500E8E774000020500C0020580C0020EC
S3151001158010B5114C2268002A1ADC78B1FFF75AFF00
S315100115904FF0E0222368002B0ADC0C4B1B684FF03E
S315100115A0E0218A699A42FCD8FFF7A6FF002010BDF8
S315100115B01369DB0342BF236803F1FF332360E9E7B5
S315100115C06FF00500F3E700BF74000020580C0020EF
S315100115D008B5054B05494FF4F072184605F0E8FEBB
S315100115E0034A906008BD00BF000E002000E0001005
S315100115F000ED00E0F8B50C4B0C4E9B68B342044667
S315100116000D4600F1100701D0FFF7E2FF002C46F856
S31510011610275007DB064A6109012304F01F04A34082
S3151001162042F82130F8BD00BF00ED00E0000E0020A9
S3151001163000E100E0F0B50F468FB0044600287DD0DA
S315100116404FF084554FF0845000F076FD10220021A2
S31510011650204605F071FD2B68DB0B23702B68DB0D23
S3151001166063706B685B00DBB2A3702A6843EAD273BE
S31510011670A3706B68DB09E3706B68DB0B23716B6816
S31510011680DB0D6371AB68DB0BA371AB68DB0DE3712B
S31510011690EB685B00DBB22372AA6843EAD27323724A
S315100116A0EB68DB096372EB68DB0BA372002F39D091
S315100116B00023CDE90533CDE90733EB68DB0D3B702C
S315100116C02B69DB0B7B7000F00BF9064628B1284617
S315100116D000F043FD30460FB0F0BD014605A800F0FD
S315100116E037F90423CDE9093409A86B44ADF8306004
S315100116F00D960B9300F01AF906460028E7D100F073
S3151001170003F99DF804207B789A4204D19DF80520AF
S315100117103B789A4206D04FF0845000F01EFD6FF0D0
S315100117200306D7E74FF084500026C368DB0DE3723A
S315100117300369DB0B237300F010FDCBE74FF0FF3687
S31510011740C8E700003F280AD9094BDA684038C0B209
S315100117500123834013420CBF0120002070471F282C
S315100117604FF0804302D99A6C2038F0E75A6AEFE7B6
S31510011770000008403F2808D90D4A4038D168C0B248
S31510011780012383400B43D36070471F284FF08042DB
S3151001179007D92038916CC0B2012383400B4393645F
S315100117A07047516A012383400B435362704700BF50
S315100117B0000008403F2809D90E494038CB68C0B20D
S315100117C00122824023EA0203CB6070471F284FF0A3
S315100117D0804308D920389A6CC0B20121814022EA8F
S315100117E001029A6470475A6A0121814022EA010274
S315100117F05A6270470000084038B5002104464FF47C
S315100118007A70FFF75DFE4FF08045AB68234203D037
S31510011810FFF772FE002038BDFFF788FE0630F4D0C0
S315100118206FF00900F7E70000072830D8DFE800F06D
S31510011830172F2F23040E26204FF080424FF0006001
S31510011840936843F400239360FFF7D6BF4FF08042AD
S315100118504FF08050936843F480139360F4E74FF090
S3151001186080424FF08060936843F480239360EBE7E6
S31510011870084800F01DBD4FF00050E5E74FF08042DB
S315100118804FF00070936843F400339360DCE76FF018
S3151001189002007047343E02103F284FF0010308D969
S315100118A040380E4AC0B28340936091680B42FCD116
S315100118B070471F2809D92038C0B24FF080428340A3
S315100118C05364516C0B42FCD170474FF080428340F8
S315100118D0536051680B42FCD1704700BF00000840AD
S315100118E008B52F20FFF766FF2220FFF763FFBDE83B
S315100118F00840014800F048B800740040014800F063
S315100119003BB800BF0074004010B5044800F06BF8F6
S3151001191004462F20FFF72EFF204610BD007400400D
S31510011920014800F06EB800BF00740040014601483E
S3151001193000F072B8007400400146014800F0EDB89D
S31510011940007400400146014800F0E6B900740040F9
S315100119500A460146014800F0E2B900BF007800408E
S31510011960131F18440439121A51F8043F1BBA40F8D0
S315100119700439D042F8D17047436813F0010F14BFF0
S315100119806FF005000020704708B50023024603607A
S315100119901046FFF7F1FF0028FAD1136843F001034F
S315100119A0136008BD38B505460C46FFF7A7FF00289A
S315100119B0FBD12B681C432C6038BD10B50446FFF7CC
S315100119C09DFF0028FBD1236843F01003236010BD4F
S315100119D010B50446FFF792FF0028FBD1236843F0A8
S315100119E02003236010BD10B50446FFF7E6FF20461D
S315100119F0FFF7EEFF2046FFF7BFFF0028FAD1206060
S31510011A0010BD10B50446FFF779FF0028FBD12368F6
S31510011A1043F00803236010BDF8B504460D460029AE
S31510011A2075D04B68002B72D08B68002B6FD00E6867
S31510011A30002E6FD0FFF7C1FF2046FFF7C9FF297BA4
S31510011A402046FFF7AFFFFFF759FF0028FBD16B7B4D
S31510011A5022681B0203F4407322F44072134323607D
S31510011A60F31C062B26D8B20723D04FEA860C6B68D7
S31510011A7061460022B24244DB63446B6000230136A7
S31510011A80042E2361FBD1A368DB07FCD5A36843F0C1
S31510011A900103A3602269AB6812BADA60226912BA2D
S31510011AA09A60226912BA5A60226912BA43F8102B47
S31510011AB0AB60F8BD6B68DA6812BA22619A6812BA1D
S31510011AC022615A6812BA226153F8102B12BA226196
S31510011AD06B60A368D907FCD5A36843F00103A36023
S31510011AE02269AB6812BADA60226912BA9A6022695F
S31510011AF012BA5A60226912BA43F8102B043EAB602F
S31510011B00AEE7043901325F583FBA2761B2E74FF0A9
S31510011B10FF30CEE76FF00200CBE7FFF77DBF000085
S31510011B2070B50D468CB00646002836D0002937D040
S31510011B3000F0FEF800F010F91B4B1C4998701B7849
S31510011B4009960122C4B2CDE90512012B4FF000020C
S31510011B50CDE9072404941ED0042DA8BF04250B95A6
S31510011B600CAB13E90F008DE80F0004AB0FCB00F09F
S31510011B70FBF80F49204600F002F9204600F006F95D
S31510011B80204600F009F901220021204600F0F9F85B
S31510011B9000200CB070BD0425E1E74FF0FF30F8E7E7
S31510011BA06FF00200F5E700BFE00F0020000302020C
S31510011BB0451C011070B50D468CB00646002834D070
S31510011BC0002935D000F0B4F800F0C6F81A4B1B49BD
S31510011BD0587000221B780A96C4B2CDE9051201226B
S31510011BE0CDE907240494F3B1042DA8BF04250B9560
S31510011BF00CAB13E90F008DE80F0004AB0FCB00F00F
S31510011C00B3F80F49204600F0BAF8204600F0BEF8A6
S31510011C10204600F0C1F801220021204600F0B1F85B
S31510011C2000200CB070BD0425E1E74FF0FF30F8E756
S31510011C306FF00200F5E700BFE00F0020000102027D
S31510011C40451C011010B5034629BB134CA2788242DC
S31510011C500CD100F087F86368032B01D8FFF760FEFB
S31510011C606168E068BDE81040FFF7A4BF6078834261
S31510011C7011D16368042B0AD9043B636000F072F832
S31510011C80616841B1A068BDE81040FFF749BF002B5C
S31510011C90F4D06160F2E710BDE00F002070B5054683
S31510011CA016460C46002932D04B68002B2FD08B6874
S31510011CB06BB30B6813B96FF0020070BDFFF77DFEB1
S31510011CC02846FFF785FE217B2846FFF76BFEFFF7B7
S31510011CD015FE637B2A68216860681B0222F4407234
S31510011CE003F4407313432B600A4BA2681E705960AC
S31510011CF09860DA602B6843F002032B602B6843F07F
S31510011D0004032B60FFF70CFF0028D6D0D3E74FF062
S31510011D10FF30D2E7E00F00200022FFF7BFBF2AB144
S31510011D20402A14BF20221822FFF71ABE1022FBE701
S31510011D3010B50520FFF706FD044628B90520FFF763
S31510011D4039FD2046FFF7A8FDBDE81040014800F017
S31510011D502BB800BF00800240014800F06BB800BFED
S31510011D600080024000F09CB810B485B06C4684E83F
S31510011D700F0094E80F0005B010BC00F0D3B800F0C6
S31510011D8003B900F011B900F053B90000014601483A
S31510011D9000F02AB90080024000F060B9014800F055
S31510011DA07FB900BF00800240F8B51E4E1E4F861B3C
S31510011DB018BF4FF0FF36054657F8263063BB1B4850
S31510011DC001F0C8F81948012101F0B6F8044630BBF4
S31510011DD0174B2860224605F58070214605EB421CFB
S31510011DE0C3E90220C3E900110132CCF80011DCF875
S31510011DF004E1CCF804E1102A196100F1200003F185
S31510011E001403EBD157F826300848013347F826302A
S31510011E1001F0A0F82046F8BD6FF00604FAE76FF05E
S31510011E200504F7E70080024034110020F00F00206E
S31510011E30F40F002038B5164BC01A18BF4FF0FF30FB
S31510011E40144B53F82030E3B11348012101F074F813
S31510011E500446C8B9114B142000FB04F1CD185A5889
S31510011E604AB901205850EB681A60DA610A4801F044
S31510011E7071F8204638BD0134102CEDD16FF00D04E8
S31510011E80F4E76FF00604F4E76FF00504F1E700BF1D
S31510011E900080024034110020F00F0020F40F0020C2
S31510011EA00F28F8B516D814230D4E03FB00F5771934
S31510011EB073597BB10B48012101F03EF8044660B914
S31510011EC0FB68705118605A6806485A6001F042F86A
S31510011ED02046F8BD6FF00204FAE76FF00504F7E744
S31510011EE0F40F0020F00F002084B00DF1100C0F2814
S31510011EF00CE90F0003460FD81421094A4B43D11898
S31510011F00D3584BB1CB68019A9A60029ADA60039A58
S31510011F101A61002004B070476FF00200FAE700BFA3
S31510011F20F40F002084B00DF1100C0F280CE90F00EE
S31510011F30034622D81421134A4B43D118D358E3B17F
S31510011F409DF807309DF80620C9681B0543EA024330
S31510011F50BDF804201343029A003A18BF012243EA3E
S31510011F608243039A003A18BF012243EA82530B6057
S31510011F709CE80F0004B0FFF7B7BF6FF0020004B082
S31510011F80704700BFF40F00200F2808D81422054B04
S31510011F9050431A181B5813B11161002070476FF086
S31510011FA002007047F40F00200F2830B517D81424FB
S31510011FB00C4B44431D191C598CB121B1EC68216895
S31510011FC041F0804121600AB9002030BD142202FB84
S31510011FD00033DA68136843F000431360F4E76FF0D7
S31510011FE00200F2E7F40F00200F290BD81423074A39
S31510011FF04B43D35833B1026801238B40134303601B
S31510012000002070476FF00200704700BFF40F0020E8
S315100120100F2808D81422054B50431A181B5813B110
S31510012020D368586870476FF002007047F40F0020AC
S315100120300F280DD81422084B50431A181B583BB1C0
S31510012040D3685A6801F05F01114359600020704747
S315100120506FF00200704700BFF40F00200F2838B54B
S31510012060044618D814230D4A4343D518D35893B1AF
S31510012070FFF7CEFF01462046FFF785FEEB68DA69CA
S315100120802AB11A6842F003021A60002038BD1A6894
S3151001209042F00102F8E76FF00200F7E7F40F0020B3
S315100120A02DE9F041184C194D041B6FF00F0318BFA1
S315100120B001245C431423064604F1100703FB04555F
S315100120C04FF001080F2C06D90134BC4205F1140555
S315100120D0F8D1BDE8F0812B68002BF5D0736808FAAA
S315100120E004F21A42F0D02B6913B100212046984709
S315100120F02046FFF78DFF01462046FFF744FE736821
S31510012100002BE1D1E5E700BF00800240F40F00206B
S3151001211001F17043B3F5002F03D2064B0360002083
S315100121207047A1F18451B1F5804FF6D36FF00200DB
S31510012130704700BF0090024007B50246014601A84C
S31510012140FFF7E6FF30B90198114603B05DF804EBCD
S3151001215000F014B803B05DF804FB07B5024601465A
S3151001216001A8FFF7D5FF30B90198114603B05DF804
S3151001217004EB00F023B803B05DF804FBA1F1845120
S31510012180B1F5004F14D241F23423036403F16953BC
S3151001219003F57D1303F66F23036403F1D043A3F50F
S315100121A01C03A3F683530364034B03640020704797
S315100121B06FF00200704700BFC1B20896A1F18451B9
S315100121C0B1F5004F3DBF034B036400206FF00200D1
S315100121D0704700BFEFBEADDEC10710B5044602D58C
S315100121E00020FFF7E7FAA20702D50120FFF7E2FA6E
S315100121F0630702D54020FFF7DDFA2046BDE81040FF
S3151001220000F0AEBE084A90420B460AD10749086A49
S31510012210DA0003F0010302F01002034313430B62C9
S31510012220704700F02DB900BF00060840006C004051
S31510012230084A90420B460BD10748DA00016A02F0B0
S31510012240100203F00103134321EA030303627047EB
S3151001225000F018B900060840006C004000F092BE6C
S31510012260034A904202D1034AD161704700F00CB97A
S315100122700006084000680040034B984201D000F068
S3151001228005B9024BD869704700060840006800403E
S3151001229010B4064CA04202D010BC00F0F9B80029C7
S315100122A014BF00206FF0100010BC704700060840E4
S315100122B070B5704B0468704E9C4205461ED003F5EE
S315100122C080539C421CD003F5EE2303F580639C4298
S315100122D018D0B4420CBF03234FF0FF3301209840AE
S315100122E0FFF77AFF2B68297AB3427CD1012927D0CF
S315100122F0022931D041B16FF0100070BD0023EDE716
S315100123000123EBE70223E9E76B685C4958001A01E0
S315100123100E6A00F0020002F02002024326EA0202CF
S315100123200A628A68C3F34003034322EA03038B60FC
S315100123306B7A042BDFD8DFE803F021344A344A00E4
S315100123406B684E4958001A010E6A00F0020002F03D
S31510012350200202433243E3E76B68484958001A01E9
S315100123600E6A00F0020002F02002024332430A62B2
S315100123708A68C3F3400303431343D8E76A683F49A6
S3151001238093005201086A03F0040302F0400213435A
S3151001239003430B626A68A97A2046BDE87040FFF7CD
S315100123A077BF36496B680E6ADA0003F0010002F056
S315100123B01002304302430A629A005B01086A02F076
S315100123C0040203F04003134320EA0303E1E76B68B9
S315100123D02A49DA00086A02F0100203F001063243B4
S315100123E020EA0202E7E76A68204600F063F800284F
S315100123F083D16B7A042B39D8DFE803F0031C300D37
S315100124002800236E6A6823EA02032366636E23EAB1
S3151001241002036366BEE7236E6A6813432366636E1F
S3151001242023EA02036366D4F8B83023EA0203C4F838
S31510012430B830AFE7226E6B681A432266626E22EAE3
S3151001244003026266D4F8B8201343F0E7236E6A6874
S3151001245023EA02032366636E1343E3E7226E6B6876
S3151001246022EA03022266626E1A43EAE76FF002005D
S3151001247043E700BF0080004000060840006C0040A2
S31510012480C16170470162704781647047006C704783
S3151001249021B101290AD06FF002007047D0F8C0307F
S315100124A023EA0203C0F8C03000207047D0F8C030CC
S315100124B01343F7E7036B134303634260052921D8DE
S315100124C0DFE801F0030B0D13181C4261426002672D
S315100124D0C267C0F88820002070470261F6E7C0F88D
S315100124E08820C26702678260F5E7C0F88820C26754
S315100124F0C266F8E7C0F888208267F3E7C0F888203B
S315100125008267F5E76FF00200704700F0DFB8000050
S3151001251008B50F4B984207D10D20FFF72BF9102064
S31510012520FFF7BAF9002008BD0A4B984204D11C20C6
S31510012530FFF720F92020F3E7074B984204D1382002
S31510012540FFF718F93420EBE76FF00100EBE700BF56
S3151001255000D0014000E0014000F0014070B50D4689
S315100125601646044608B3FFF7D3FF134B9C420CD112
S315100125700D20FFF71FF91148FFF79AFE324629463B
S315100125802046BDE8704000F03FB80D4B9C4204D187
S315100125901C20FFF70FF90B48EEE70B4B9C4207D1B6
S315100125A03820FFF707F90948E6E74FF0FF3070BD0D
S315100125B06FF00100FBE700BF00D00140283E02107A
S315100125C000E001401C3E021000F00140103E0210D6
S315100125D000F096B800F0DCB800F0EAB800F0FBB8ED
S315100125E000F001B900F012B900F01CB900F022B9DF
S315100125F000F028B900F029B900F02EB900F035B96C
S3151001260000F096B900F0A3B92DE9F8430D469046AE
S31510012610044600284ED01021FFF7F0FF064650BBA6
S315100126202368DFF89890264F43F001032360204674
S31510012630FFF7DAFF2046FFF7D9FF02212046FFF701
S31510012640E1FF06212046FFF7DBFFCDB92A464146B9
S315100126502046FFF75AFF4C4508D01A4B9C420DD025
S31510012660194DAC4214BF4FF0FF350225182303FB59
S31510012670057500236B603046BDE8F8830125F5E743
S3151001268023684C4543F0020323600FD00D4B9C4247
S315100126900ED003F580539C4214BF4FF0FF34022431
S315100126A0182303FB047701237B60E4E73446F7E73D
S315100126B00124F5E74FF0FF36DDE700BF00D00140FA
S315100126C03811002000E0014000F0014078B18AB9CC
S315100126D0B1F5806F11D27F2988BF4FF40043C264D0
S315100126E088BFC364C36C0B43C364104670474FF075
S315100126F0FF32FAE76FF01002F7E76FF00202F4E724
S31510012700002839D06FF41072A1F5742313441C4AB2
S3151001271093422DD21B4B1B685B08B3FBF1F10323CC
S315100127204A00B2FBF3F2B1FBF3F3013B0F2B02F1BB
S31510012730FF3202DD6FF0020070470F2AFADC1B022E
S315100127409BB2D2B21A43C26303680F4943F40043E2
S3151001275003600C4B1B685B08B3FBF1F35B085A1E55
S31510012760023BB3F5FF7FE5D842638263FFF732BFC1
S31510012770064B9942EDD9DDE74FF0FF30704700BFA8
S31510012780009F24009C180020801A060040E13300A7
S315100127900649436B826B0868C2F30802C3F3080348
S315100127A013444008B0FBF3F0704700BF9C1800209B
S315100127B010B568B161B100239A4201D1184610BD16
S315100127C04468A407FAD4C46AE4B2CC540133F3E7DB
S315100127D04FF0FF30F3E718B1006AC0F303207047DA
S315100127E04FF0FF30704710B568B161B100239A42BE
S315100127F001D1184610BD4468E406FAD4CC5CE4B2A3
S31510012800C4620133F3E74FF0FF30F3E738B1836960
S31510012810826AC3F30720C2F30323C01A70474FF02D
S31510012820FF307047C36943F08003C361C3691B0658
S31510012830FCD47047436A43F080034362436A1B0624
S31510012840FCD47047816002617047C3680B43C36053
S315100128504369134343617047C36823EA0103C360A5
S31510012860436923EA0203436170472DE9F0410F469C
S315100128700446002859D0036843F001030360066833
S31510012880036843F4806306F4806603604FF0000822
S31510012890B8450CD16FF008001EB9236823F4806384
S315100128A02360236823F001032360BDE8F0810A2029
S315100128B0FEF766FE236823F0400323600A20FEF725
S315100128C05FFE2368D90506D5236843F0C00323604C
S315100128D008F10108DCE70A20FEF752FE236823F00F
S315100128E0800323600A20FEF74BFE256815F4007558
S315100128F0EAD10A20FEF744FE236843F080032360E1
S315100129000A20FEF73DFE23689A05DDD50A20FEF75B
S3151001291037FE236843F0400323600A20FEF730FE9A
S315100129202368DB05D4D52846B6E74FF0FF30BCE760
S315100129308369DBB28B4221BFC36923F4706343EA17
S315100129400121C1612CBF00206FF00200704783691D
S31510012950C3F307238B4221BF436A23F4706343EA0F
S31510012960012141622CBF00206FF00200704700F078
S3151001297000B8D0F8003123F00103C0F8003101236B
S31510012980C0F80037D0F80031DA03FBD5D0F80031A2
S3151001299043F00103C0F80031D0F80031DB03FBD559
S315100129A070470000094B186800F44030B0F5803FBD
S315100129B005D01A6812F4403F05D14FF4E1001B69A6
S315100129C0B0FBF3F070476FF0020070470014084037
S315100129D008B5134B984207D10B20FEF75DFF09206E
S315100129E0FEF7C8FE002008BD0E4B984204D10C20FC
S315100129F0FEF752FF0A20F3E70B4B984204D11C2035
S31510012A00FEF74AFF2120EBE7084B984204D14420F8
S31510012A10FEF742FF4420E3E76FF00200E3E700BF51
S31510012A2000200440003004400040044000140840D7
S31510012A3070B504460E461546FFF7CAFF90BB022D28
S31510012A4014D0042D02D10620FEF7EEFE164B9C4241
S31510012A500ED11648FFF72CFC0920FEF7ABFE2A46CD
S31510012A6031462046BDE8704000F0CAB80520EBE7B4
S31510012A700F4B9C4204D10F48FFF71AFC0A20ECE7D2
S31510012A800D4B9C4204D10D48FFF712FC2120E4E7BF
S31510012A900B4B9C4204D10B48FFF70AFC4420DCE7A0
S31510012AA06FF0020070BD00BF00200440043E02100A
S31510012AB000300440F83D021000400440EC3D021085
S31510012AC000140840E03D0210284B984210B5044608
S31510012AD046D003F58053984242D003F5805398426D
S31510012AE03ED02348844206D10523022A636105D0CC
S31510012AF0042A1DD012B16FF0020010BD4FF4E1038C
S31510012B00B3FBF1F301FB03F2C2F5E10213B1B2EB30
S31510012B10510F00D901330361FFF744FF0028ECDDA3
S31510012B20236843F40043236023681B03FCD5E4E7C1
S31510012B30236843F4803323602368B1F5166F43F499
S31510012B40001323600AD9002363614FF48033B3FB6A
S31510012B50F1F301FB03F2C2F58032D7E70123F3E764
S31510012B60042AC8D0204600F07FF8D7E70020044099
S31510012B70001408400A4B98420DD003F58053984231
S31510012B8009D003F58053984205D003F57533984261
S31510012B9003D1FFF707BF00F0ABB86FF00200704723
S31510012BA00020044000F0DAB800F0F8B800F018B9C7
S31510012BB000F060B900F07AB900F008B800F012B868
S31510012BC000F092B900F094B900F098B910B5044626
S31510012BD02046FFF7F5FF0028FAD02046BDE8104041
S31510012BE0FFF7E6BF38B504460D462046FFF7EAFF64
S31510012BF00028FAD029462046BDE83840FFF7DABF4B
S31510012C00184B984270B504460D4616460BD003F57F
S31510012C108053984207D003F58053984203D003F5A9
S31510012C20753398421BD101212046FFF7CDFFA8B974
S31510012C3008212046FFF7B6FF80B901462046FFF767
S31510012C40B5FF58B901462046FFF7AEFF30B93246F7
S31510012C5029462046FFF738FF00EAE07070BD6FF095
S31510012C600200FBE7002004401E4B984210B40BD023
S31510012C7003F58053984207D003F58053984203D049
S31510012C8003F57533984229D10523012A436112D0E0
S31510012C90022A16D012BB144B1B685B08B3FBF1F268
S31510012CA001FB123312B1B3EB510F00D9013210BC33
S31510012CB00261FFF75FBF036843F4803303600B4B78
S31510012CC0ECE704684FF4E10244F40034B2FBF1F28C
S31510012CD001FB02F3C3F5E1030460E3E76FF00200C1
S31510012CE010BC7047002004409C180020C06878046E
S31510012CF0174B98420BD003F58053984207D003F532
S31510012D008053984203D003F57533984217D103685F
S31510012D1003F44033B3F5803F14D0036813F4403FF6
S31510012D2006D10C4B1B685B080069B3FBF0F07047CA
S31510012D30036803F44033B3F5003F05D003686FF021
S31510012D4002007047044BEFE74FF4E103ECE700BFD5
S31510012D50002004409C180020C06878040E4B98424D
S31510012D600BD003F58053984207D003F58053984250
S31510012D7003D003F5753398420AD10539032907D8CB
S31510012D80036823F4406343EA8123036000207047FC
S31510012D906FF00200704700BF002004400F4B9842AD
S31510012DA00BD003F58053984207D003F58053984210
S31510012DB003D003F57533984202D121B1012908D008
S31510012DC06FF002007047036823F4805303600020FC
S31510012DD07047036843F48053F8E700BF00200440AE
S31510012DE0234B98420BD003F58053984207D003F535
S31510012DF08053984203D003F57533984234D1042990
S31510012E0032D8DFE801F0030915212900036823F000
S31510012E101003036000207047036843F0100303603A
S31510012E20036823F020030360036823F04003F0E7EF
S31510012E30036843F010030360036823F02003036063
S31510012E40036843F04003E4E7036843F010030360AB
S31510012E50036843F02003E6E7036843F010030360B9
S31510012E60036843F02003EAE76FF00200704700BFE2
S31510012E70002004400C4B98420BD003F58053984226
S31510012E8007D003F58053984203D003F57533984262
S31510012E9004D14368DB0604D4006A70476FF0020060
S31510012EA070476FF00C007047002004400D4B98429C
S31510012EB002460BD003F58053984207D003F5805391
S31510012EC0984203D003F57533984205D1506810F036
S31510012ED0800004D1116270476FF0020070476FF0E5
S31510012EE00B007047002004404068C0F30320704770
S31510012EF04068C0F30330C0F1080070470D4B98428B
S31510012F000BD003F58053984207D003F580539842AE
S31510012F1003D003F57533984209D14B1E072B06D8FA
S31510012F20036823F00F0319430160002070476FF007
S31510012F300200704700200440034653E8002F32B9BF
S31510012F4043E800100028F8D1BFF35F8F70476FF088
S31510012F5005007047BFF35F8F0023036070470000C1
S31510012F6010B5064C217831B905484FF4007204F0BA
S31510012F70E3F801232370002010BD00BF801100204B
S31510012F8084130020032898BF104B70B594BF53F8D3
S31510012F902060002605463046FFF76EF901460446C5
S31510012FA03046FFF75DF90A4E0A4B06EBC51603EBE1
S31510012FB0C51504B970BDE30703D52B680BB130688D
S31510012FC09847640804360435F3E700BF403E021003
S31510012FD0841100208413002038B5A1FB021454BBC0
S31510012FE000F040F8054650B350F8042C22F00302C5
S31510012FF0043A242A10D8132A13D91B2A04604460D0
S3151001300016D9242A8460C46011BF00F1100200F1A0
S3151001301018020461446105E0214604F08DF8284642
S3151001302038BD02460023136053609360284638BDAD
S3151001303000F10802F6E704F021F90C2303600025DC
S31510013040284638BD024B0146186800F00BB800BF80
S3151001305000060020024B0146186805F077BB00BF39
S31510013060000600202DE9F04F01F10B05162D85B054
S31510013070064624D8102900F2B18003F085F91025EF
S3151001308018234FF0020CBA4F3B44A3F108025C68B7
S31510013090944200F022816368E268A16823F0030379
S315100130A0CA602344304691605A6842F001025A6060
S315100130B0083403F06FF9204605B0BDE8F08F35F0FE
S315100130C0070500F18B80A94200F2888003F05CF9B4
S315100130D0B5F5FC7FC0F073816B0A00F08380042B79
S315100130E000F22281AB0903F1390C03F1380E4FEAD4
S315100130F0CC039F4F3B44A3F108005C68A04207D163
S315100131000DE0002AE16880F2E280884207D00C4681
S31510013110636823F003035A1B0F2AF2DDF446DFF826
S3151001312064823C69444500F0BF80636823F003095B
S31510013130A9EB05030F2B00F34781002BC7E9048880
S3151001314080F23181B9F5007FD7F804E080F0CC80A8
S315100131504FEAD90101314FEA5919012303FA09F34B
S3151001316057F83120A2604EEA030E07EBC103083B64
S31510013170E360C7F804E047F83140D4604FEAAC0386
S3151001318001209840704534D810EA0E0F07D12CF063
S31510013190030C400010EA0E0F0CF1040CF9D007EBEA
S315100131A0CC0A5246E146D1680EE04B6823F0030380
S315100131B0A3EB050EBEF10F0F0C46C96800F3C180D3
S315100131C0BEF1000F80F2E2808A42EED109F10109C7
S315100131D019F0030F02F10802E5D121E10C23336046
S315100131E0002468E74FF400734FF0400C4FF03F0E88
S315100131F07FE7BC68636823F00309A94503D3A9EBEC
S3151001320005030F2B53DC5B4BDFF87CB11B680820E1
S3151001321003F1100804F038F8DBF80030019001339F
S31510013220A84404EB090205D008F1FF388044434253
S3151001323003EA080841463046029204F00DF8B0F14F
S31510013240FF3F029A824600F0DC80824200F2D7806C
S31510013250494B01991868404401F1FF3118608446C1
S3151001326040F0FC801AEA010F40F0F880D7F808A068
S31510013270C84448F00102CAF80420404B196881423B
S3151001328038BF18603E4B1968814238BF18605446E2
S3151001329022F00308A845A8EB050301D30F2B06DC82
S315100132A0304603F077F89BE7D7F804E066E7621932
S315100132B043F0010345F0010565603046BA6053607D
S315100132C003F068F80834204605B0BDE8F08FA2680F
S315100132D02344D16030468A60E6E6DC68A3427FF477
S315100132E0DAAE0CF1020C1AE7B9F5206F4FEA592242
S315100132F07ED3142A00F2158102F15C03DB005B32E6
S31510013300F918FB580839994203D1F0E09B689942A4
S3151001331004D05A6822F003024A45F7D8D968C4E99D
S3151001332002318C60DC6029E7142B6DD9542B00F225
S3151001333001812B0B03F16F0C03F16E0E4FEACC03D7
S31510013340D7E63046A668621945F001056560F16059
S315100133508E604EF00101C7E90422C2F80880C2F856
S315100133600C80516044F803E003F014F80834A2E627
S3151001337080000020B415002084150020B01500200F
S31510013380AC15002088000020780000202344304628
S315100133905A6842F001025A6054F8083FD9608B60AE
S315100133A002F0F8FF87E6A1443046D9F8043043F01D
S315100133B00103C9F80430083402F0ECFF7BE64FEA4A
S315100133C0D50C05F108035EE6621943F0010145F0DB
S315100133D0010565603046C7E90422C2F80880C2F8C3
S315100133E00C80516044F8093002F0D4FF083462E6CB
S315100133F04FEA991202F13903DB00383280E7BC42F9
S3151001340024D0BC68626843E703F15C0C03F15B0EE0
S315100134104FEACC036DE65AF80839534540F0D88087
S315100134201CF0030F0CF1FF3CF5D17B6823EA000376
S315100134307B60400098423FF6DCAE18B9D9E64000F1
S3151001344009F104091842FAD0CC46A8E6614B019954
S31510013450186808EB000C0139C3F800C0DBF800004E
S3151001346001301BBFAAEB02026244CBF800A01A601E
S315100134701AF00702CDE9022342D0C2F10802019BDC
S315100134809244D044134408EA01001A1A02EA010BC5
S315100134905946304603F0E0FE421C039B7AD0A0EB5E
S315100134A00A0000EB0B081868C7F808A048F00102DB
S315100134B05844BC42CAF8042018603FF4DEAEB9F194
S315100134C00F0F42D96168A9F10C0222F0070201F02F
S315100134D0010111436160A1184FF0050C0F2AC1F8C3
S315100134E004C0C1F808C04AD8DAF80420C5E692101B
