S02B00002F55736572732F6B6D69727A612F4465736B746F702F4D697472652F54756674732D65435446323087
S3151000E000000002207D0C0110B10A0110BB0C01109A
S3151000E010BD0C0110BF0C0110C10C01100000000056
S3151000E020000000000000000000000000C30C0110FA
S3151000E030C50C011000000000C70C0110C90C01101E
S3151000E040CD0C0110CF0C0110D10C0110D30C011006
S3151000E050D50C0110D70C0110D90C0110DB0C0110D6
S3151000E060DD0C0110DF0C0110E10C0110E30C0110A6
S3151000E070E50C0110E70C0110E90C0110EB0C011076
S3151000E080ED0C0110EF0C0110F10C0110F30C011046
S3151000E090F50C0110F70C0110F90C0110FB0C011016
S3151000E0A0350A01103D0A0110010D0110030D011072
S3151000E0B095E20010070D0110090D01100B0D01104E
S3151000E0C00D0D01100F0D0110110D0110130D011082
S3151000E0D0150D0110170D0110190D01101B0D011052
S3151000E0E01D0D01101F0D0110210D0110230D011022
S3151000E0F0250D0110270D0110290D01102B0D0110F2
S3151000E1002D0D01102F0D0110310D0110330D0110C1
S3151000E110350D0110370D0110390D01103B0D011091
S3151000E1203D0D01103F0D0110410D0110430D011061
S3151000E130450D0110470D0110490D01104B0D011031
S3151000E1404D0D01104F0D0110510D0110530D011001
S3151000E150550D0110570D0110590D01105B0D0110D1
S3151000E1605D0D01105F0D0110610D0110630D0110A1
S3151000E170650D0110670D0110690D01106B0D011071
S3151000E1806D0D01106F0D0110710D0110730D011041
S3151000E190750D0110770D0110790D01107B0D011011
S3151000E1A07D0D01107F0D0110810D0110830D0110E1
S3151000E1B0850D0110870D0110890D01108B0D0110B1
S3151000E1C08D0D01108F0D0110910D0110930D011081
S3151000E1D0950D0110970D0110990D01109B0D011051
S3151000E1E00000000000000000000000000000000019
S3151000E1F00000000000000000000000000000000009
S3151000E200004880477D0C01100348044B834202D01E
S3151000E210034B03B118477047380700203807002012
S3151000E220000000000548064B1B1AD90F01EBA3018D
S3151000E230491002D0034B03B1184770473807002026
S3151000E240380700200000000010B5064C237843B9AB
S3151000E250FFF7DAFF044B13B10448AFF30080012334
S3151000E260237010BD0008002000000000683E021058
S3151000E27008B5054B1BB105490548AFF30080BDE84D
S3151000E2800840FFF7CFBF00BF0000000004080020C1
S3151000E290683E021008B503F0B1FA024A136801335A
S3151000E2A0136008BD1C0800202DE9F04186B0054614
S3151000E2B00E4690461F4603F043F8044698B9382395
S3151000E2C08DF81100CDE902878DF81060019301A831
S3151000E2D06DB103F067F80D4A1368002BFCD00023CC
S3151000E2E0136003F041F8204606B0BDE8F08103F054
S3151000E2F053F828B903F038F8204606B0BDE8F08187
S3151000E3000446204606B0BDE8F08100BF1C08002078
S3151000E31002F0C4B9C0B2704710B5094C63691870E1
S3151000E3200246E06808F094FD236900221A702269FB
S3151000E3301378002BFCD0636800221A7010BD00BF42
S3151000E3405800002010B507494A681378002BFCD0F6
S3151000E3508B6809681C78E4B2224608F079FD2046DD
S3151000E36010BD00BF5800002038B505460C2004F03B
S3151000E370A5FB68B10446A80004F0A0FB206020B1FC
S3151000E3800023C4E90153204638BD204604F09EFB05
S3151000E3900024F8E7F8B5D0E90163B34202680446F1
S3151000E3A00D4605D2591CA160002042F82350F8BD35
S3151000E3B01046F10007F084FD7700024618B1C4E953
S3151000E3C00007A368EEE74FF0FF30F8BD10B484687D
S3151000E3D07CB102680023043A01E0A34209D052F846
S3151000E3E0040F884203F10103F7D101205DF8044BB5
S3151000E3F0704700205DF8044B704700BF2DE9F041CF
S3151000E400304BC4B01E6800AFE846002E53D0EA2940
S3151000E4100C463CD80546FF2207F11000002108F0F3
S3151000E420DDFB2246294607F1100008F011FD04F124
S3151000E430080318460121984604F0FEFA294622469A
S3151000E440054608F005FD204B1B682B512B1941463C
S3151000E4505E603A46284601F05FFE284604F036FB19
S3151000E46087F80A413C460FCCC7F8FA00C7F8FE10E9
S3151000E470FF202146C7F80B61C7F80221C7F80631FD
S3151000E480FFF74AFF07F58877BD46BDE8F0810F48CC
S3151000E49004F0DEFD0E4804F0DBFD0E4804F0D8FD56
S3151000E4A00D4B1B68986807F07FFF07F58877C54600
S3151000E4B0BD46BDE8F081054804F0CAFD074807F0DF
S3151000E4C0F7FCEAE72C08002020080020ECBA01101F
S3151000E4D03CBB011038BB011000060020F8BA011031
S3151000E4E02DE9F043044689B000AFFFF72BFF524DDC
S3151000E4F0D4F8FB9028684946FFF768FF002840F0DB
S3151000E500898028684946FFF745FF94F8FA50D4F8F1
S3151000E510F630D4F8EA00D4F8EE10D4F8F22005F16B
S3151000E52008083E460FC60121404604F085FA2A46E1
S3151000E5302146064608F08CFC404B1B687351731934
S3151000E54007F11002C3F804903046414601F0E4FD8D
S3151000E550304604F0BBFA3E1D3B4607F1100213F895
S3151000E560010B12F8011B884241D1B342F7D1344E48
S3151000E570344B08F4FC78ADEB080D21462A46684664
S3151000E580C3F8009008F064FC00230DF805302E48FF
S3151000E59004F05EFD2D4807F08BFC2D4804F058FD65
S3151000E5A03368986807F000FF274804F051FD684665
S3151000E5B007F07EFC264804F04BFD3368986807F098
S3151000E5C0F3FE214804F044FD224807F071FC204870
S3151000E5D004F03EFD3368986807F0E6FE2946684663
S3151000E5E0FFF70CFF28462437BD46BDE8F0831A48CE
S3151000E5F0134E04F02DFD194807F05AFC144804F088
S3151000E60027FD3368986807F0CFFE1549FF20FFF7FE
S3151000E61083FEADE7104804F01BFD124804F018FD08
S3151000E6200B4804F015FD064B1B6898684FF0FF3534
S3151000E63007F0BAFED6E700BF280800202008002001
S3151000E640000600202C08002074BB011080BB0110AE
S3151000E65038BB011094BB0110ECBA0110C0BB0110FD
S3151000E6603008002050BB011008B5002002F0CAFA8D
S3151000E670012002F0C7FA022002F0C4FA124C002060
S3151000E68002F0A0FA204602F0ABFC012002F09AFA42
S3151000E690204602F0A5FC022002F094FA204602F071
S3151000E6A09FFC002002F0AEFA204602F099FC0120F1
S3151000E6B002F0A8FA204602F093FC022002F0A2FA19
S3151000E6C0204602F08DFCDAE720A1070070B52F4C2A
S3151000E6D02F4DD4F80100D4F80510D4F80920D4F839
S3151000E6E00D30ACB00DF1100CACE80F00D4F81100E1
S3151000E6F0D4F81510D4F81920D4F81D30ACE80F0052
S3151000E70014A9604602F08AF90DF1300EBEE80F002A
S3151000E7100DF1700C6646ACE80F009EE80F008CE811
S3151000E7200F000FCE0FC59CE80F0085E80F00A5F16E
S3151000E73010012020FFF7F0FD4FF4807200212046D3
S3151000E74008F04CFA2046FFF7FDFD2368029314A942
S3151000E75024A804AA02F064F903AC00238DF807304C
S3151000E76002A924A8264611F8013B10F8015B9DF872
S3151000E77007206B405A40B14204F8013B8DF8072040
S3151000E780F1D1044B039A1A602CB070BD30090020E9
S3151000E790300800202008002070B5334C334DD4F8D3
S3151000E7A00100D4F80510D4F80920D4F80D30B2B011
S3151000E7B00DF1280CACE80F00D4F81100D4F81510A0
S3151000E7C0D4F81920D4F81D30ACE80F001AA9604609
S3151000E7D002F024F90DF1480EBEE80F000DF1880C79
S3151000E7E06646ACE80F009EE80F008CE80F000FCECF
S3151000E7F00FC59CE80F0085E80F00A5F11001202039
S3151000E800FFF78AFD4FF480720021204608F0E6F9E2
S3151000E8102046FFF797FD94E80F0002AD85E80F003C
S3151000E8201AA92AA80AAA02F0FBF800230DF117006C
S3151000E8308DF807300DF107010DF1A70C044611F8FC
S3151000E840013F1CF801EF9DF8072083EA0E035A409A
S3151000E850A14200F8013F8DF80720F0D1002106A84B
S3151000E86002F0A6FD32B070BD30090020300800203D
S3151000E87010B584B01248134C6A46042101F04CFCC2
S3151000E880114A124B126812BAC4F81F200FCBA646B3
S3151000E890AEE807002EF8023B1A0CEC468EF8002064
S3151000E8A0BCE80F00C4F80F00C4F81310232021464B
S3151000E8B0C4F81720C4F81B30FFF72EFDFFF7D4FE5F
S3151000E8C020080020300800202C080020F8BB01107A
S3151000E8D030B50D4B0D4D1B680D49296085B06C4642
S3151000E8E01BBA22460B486B61042101F015FC94E813
S3151000E8F00F0005F1040C8CE80F0029461820FFF7CD
S3151000E9000BFD05B030BD00BF2C08002030080020DC
S3151000E910251111112008002030B50D4B0D4D1B6827
S3151000E9200D49296085B06C461BBA22460B486B61AF
S3151000E930042101F0F1FB94E80F0005F1040C8CE8BA
S3151000E9400F0029461820FFF7E7FC05B030BD00BFC1
S3151000E9502C08002030080020251111112008002055
S3151000E96010B5ADF58D6D1E481E4B1F4A1F49009000
S3151000E97002A807F053FDE02202A93AA808F068FAA7
S3151000E980E0223AA972A808F063FA00213822AAA850
S3151000E99008F024F90021AAAB72AA0846FFF784FCF6
S3151000E9A0E0220021E2A808F019F9E1AC0DF5297E64
S3151000E9B00DF5627C5EF8040F6246002320FA03F11F
S3151000E9C00833202B02F8011BF8D174450CF1040C06
S3151000E9D0F0D1E2A9E020FFF79FFC0DF58D6D10BD7B
S3151000E9E030BC011008BC011014BC011018BC011079
S3151000E9F0F0B52A4D2A4FD5F81140386824BA85B09B
S3151000EA002146FFF7E3FC00236A4604210646254803
S3151000EA10CDE90033CDE9023301F07EFB6B462A4681
S3151000EA20291D13F801CB12F801EFE64502D18A42EF
S3151000EA30F7D12EB11C49FF20FFF76EFC05B0F0BDD3
S3151000EA401A4B38681C602146FFF7A4FC2B78013B53
S3151000EA50032B0ED8DFE803F008050B02FFF780FF43
S3151000EA60ECE7FFF759FFE9E7FFF732FFE6E7FFF7B5
S3151000EA70FFFE0F4804F0ECFA29780E4804F0E8FA85
S3151000EA800D4804F0E5FA0D4B1B68986807F08CFCEE
S3151000EA900549FF20FFF740FCD0E700BF30090020F2
S3151000EAA02808002020080020300800202C0800200C
S3151000EAB074BB011038BC011038BB011000060020D1
S3151000EAC000B5292085B002F085FB3F2002F082FBBD
S3151000EAD00021684602F0DEFA68B90B4B0B4801229A
S3151000EAE01A7007F0E5F90A20FFF73EFC084B18608C
S3151000EAF005B05DF804FB074807F0DAF9024B00226F
S3151000EB001A7005B05DF804FB2508002094BC0110AE
S3151000EB102808002064BC0110F8B562B6FFF7D0FFD4
S3151000EB2019481A4DFFF7F6FBFFF7F2FB012002F02A
S3151000EB3049F82B78EBB9164C164F174E0CE0237884
S3151000EB40052B1ED0062B19D12B78012203B92A705A
S3151000EB50FFF7BCFD2B7863B92046FFF7F3FB3B7834
S3151000EB603146FF20002BEAD1FFF7D6FB2B78002B7E
S3151000EB70F2D0074C2046FFF7B3FCFBE7FFF738FF50
S3151000EB80E8E7FFF709FEE5E7251111112408002033
S3151000EB903009002025080020300800202DE9F04F0C
S3151000EBA01446A1B00D4678220021C4F3C008814650
S3151000EBB002A808F013F84FEA4803C3F1010C4FEA14
S3151000EBC0650E0CFB04F545EAA50343EA63035249B7
S3151000EBD003F0010002AB01381A4601F12807019330
S3151000EBE0C346E2460B68146803406340546842F813
S3151000EBF0083B4B68166A0340634042F8043C8B6A34
S3151000EC0000EA0308CB6A00EA030C0B6D88EA0606D5
S3151000EC1000EA03044B6D1662566A8CEA06065662C3
S3151000EC20966C74409464D46C083103406340B942C6
S3151000EC30D364D7D1394CD446CEEB0E1EA5F10806B7
S3151000EC4004EB8E14DA46E646B446013D45EAA502C3
S3151000EC5042EA620202F00102F046013AA4F12800EB
S3151000EC60A4F18007A4F1580602ABD346AE4657F876
S3151000EC70085F1968D3F804A015404D40796843F829
S3151000EC80085B114081EA0A0143F8041C56F8081F74
S3151000EC901D6A02EA010A8AEA050571681D625D6A43
S3151000ECA01140694059624568016802EA050A9D6C7F
S3151000ECB0114069409964D96C08308AEA0101A04272
S3151000ECC0D964D4D175466545DA46C64600F178044E
S3151000ECD0BBD1019BF4460BF1FF36CBF10007A9F12E
S3151000ECE0040109F1240E53F8042B586ADC6C02EA6D
S3151000ECF0060500EA070885EA080541F8045F3A4068
S3151000ED00304042400CFB04F471458A620C65EAD12E
S3151000ED1021B0BDE8F08F00BFC0BC011050BE01107D
S3151000ED202DE9F0470C1FD0B08A4601F1240805469C
S3151000ED3091466E4669462346DA6A53F8040F121A4C
S3151000ED40434541F8042BF7D14A46694668460AAF4F
S3151000ED5000F080FA3A46E16A54F8043F0B44444501
S3151000ED6042F8043BF7D10AA9084609F1280200F037
S3151000ED7071FA0AF1500109F1500214A800F06AFA6A
S3151000ED801EA90AF1740208460AF19C0A52F8043FB9
S3151000ED905B00524540F8043BF8D10AAB6C460DF1C6
S3151000EDA0A00C14A81A4652F8043B54F804EB8242FD
S3151000EDB0A3EB0E034CF8043BF5D114AC0DF1C808C7
S3151000EDC001F1280CA6460A4652F8043B5EF8049B4D
S3151000EDD06245A3EB090348F8043BF5D13CAA51F868
S3151000EDE0043B54F804EB6145734442F8043BF6D1F6
S3151000EDF046AA57F8043B56F8041B87420B4442F8C0
S3151000EE00043BF6D1284632AA28A900F023FA46AACE
S3151000EE103CA905F1280000F01DFA46AA28A905F11B
S3151000EE20500000F017FA3CAA32A905F1780000F05C
S3151000EE3011FA50B0BDE8F0872DE9F04FDDB00D1F87
S3151000EE4002AF009093468A4601F1240338462A46BB
S3151000EE50D16A52F8044F091B9A4240F8041BF7D1A5
S3151000EE60ABF104040DF5A4780BF1240940462246B3
S3151000EE70D16A52F8046F891B4A4540F8041BF7D132
S3151000EE8002A9084652AA01930CAE00F0E3F9019BC1
S3151000EE903146E86A55F8042F02449D4241F8042B86
S3151000EEA0F7D1E26A54F8043F13444C4548F8043B42
S3151000EEB0F7D10CA9084652AA00F0CCF90BF1500272
S3151000EEC00AF1500116A800F0C5F916A90846304AED
S3151000EED000F0C0F90AF178010BF1780220A800F0D1
S3151000EEE0B9F920A92AAC0B461A68520043F8042B2C
S3151000EEF0A342F9D10CAB02ADA44616AA184650F897
S3151000EF00043B55F804EB9042A3EB0E034CF8043B7C
S3151000EF10F5D116AD20A80DF1D00EAC4650F8043B35
S3151000EF205CF8048BA042A3EB08034EF8043BF5D122
S3151000EF303EA851F8043B55F804CBA142634440F86F
S3151000EF40043BF6D148A956F8043B57F8040B9642F1
S3151000EF50034441F8043BF6D1009D34AA28462146C5
S3151000EF6000F078F948AA3EA905F1280000F072F9D8
S3151000EF7048AA214605F1500000F06CF93EAA34A9C2
S3151000EF8005F1780000F066F95DB0BDE8F08F00BFBE
S3151000EF90D8350210F0B5294CADF5017D0A1F01F1E7
S3151000EFA02405064608A952F8043F54F8040BAA4251
S3151000EFB0034441F8043BF6D108A9684601F004FA67
S3151000EFC01F49A02230A807F043FF1D49A02258A8C8
S3151000EFD007F03EFF0DF1FF350DF11F07002415F860
S3151000EFE0012F02F00F022146083A12A8FFF7D6FDAC
S3151000EFF030A9084612AAFFF793FE2A78120921466D
S3151000F000083A12A8FFF7CAFD58A912AA0846FFF730
S3151000F01087FEAF4204F10204E1D1042458AA114636
S3151000F0201046FFF709FF013CF8D158AA30A930461F
S3151000F030FFF702FF0DF5017DF0BD00BF003802108D
S3151000F04038BD011010B500224FF0185301F1040E0F
S3151000F05000F1040C51F8224004EB636323F07C4466
S3151000F06040F822405EF8224004EBA36323F07E446E
S3151000F0704CF8224002320A2AECD15B16026803EBE6
S3151000F080C30103EB4103134400220360134650F8F7
S3151000F090221001EB636323F07C4140F822105CF8E8
S3151000F0A0221001EBA36323F07E414CF822100232AA
S3151000F0B00A2AECD15B16026803EBC30103EB41038A
S3151000F0C01A4402604FF05A43002250F8221001EB06
S3151000F0D0636323F07C4140F822105CF8221001EBA8
S3151000F0E0A36323F07E414CF8221002320A2AECD197
S3151000F0F05B16026803EBC30103EB41031A4402607B
S3151000F10010BD00BF2DE9F0430746012400200E462E
S3151000F1103D1F07F124098446A04604F118018142D7
S3151000F12010DB0346B6461EF8012B9A4008338B4275
S3151000F1304CEA020CF7DD091AC9084B1C08301E44AC
S3151000F14000EBC10004F1190208FA02F3013B03EACD
S3151000F1500C0345F8043FA9452CFA02FCA0EB02006B
S3151000F160C4F10104D9D13B680CEBCC020CEB420C78
S3151000F17063443B60BDE8F08370B58AB004466846C8
S3151000F180FFF760FF00220DF1280C1346056802F107
S3151000F190120625F07C45F108954001F1010E1D433C
S3151000F1A01A32A64404F8015BA6454FEA1525F9D193
S3151000F1B0C1EB417102EBC1024368093206EBC1068D
S3151000F1C023F07E43D108B3404C1C2B4374440EF8F5
S3151000F1D0013B74454FEA1323F9D10830C1EB417155
S3151000F1E0604502EBC102D1D123700AB070BD00BFD9
S3151000F1F070B54FF0000E7346F4460D1D041D51F800
S3151000F2002E605B0E43EACC134FEA6C6CC6FB023CD5
S3151000F21023F07C4640F82E609B0E55F82E6043EA8C
S3151000F2208C134FEAAC6CC6FB023C23F07E4644F8C6
S3151000F2302E600EF1020EBEF10A0FE0D15B0E43EA0C
S3151000F240CC13026803EBC30103EB41031A440260BB
S3151000F25070BD00BF2DE9F04FADB00D6804954D6837
S3151000F260019555690A954D690B9595690295D5686D
S3151000F2700795CD6913680D95156905930995136A58
S3151000F2808D690F930C95CB685568566A8F681490E4
S3151000F29008930869D369069594684A6A096A0391BE
S3151000F2A0019D0E920021CDE9151139460F9F11903F
S3151000F2B0324685FB066581FB07E7B6196D4116EBED
S3151000F2C00E0645EB0705089F109287FB037EFF1974
S3151000F2D04EEB0E0EF619029F129445EB0E05C0FB6F
S3151000F2E00765DDE90A7087FB007EFF190C984EEB67
S3151000F2F00E0EF619099F45EB0E05C7FB00650D9816
S3151000F300079F87FB007EFF194EEB0E0EF619B346CC
S3151000F310039E089F119845EB0E05C4FB06B50F9E7C
S3151000F32087FB06E8C1FB02E80B9E029F0C9AC0FB06
S3151000F33003E8C6FB07E80A9EC6FB02E8099E0D9A7B
S3151000F340C6FB02E8039E079AC2FB06E80E9A069FC2
S3151000F350139387FB029719EB09097F411BEB0909E8
S3151000F36045EB07054FEAC50B4FEAC90717EB090727
S3151000F3704BEA597B45EB0B0BFF19C4FB02E84BEB31
S3151000F3800B0B049C059A17EB090745EB0B0B019D1C
S3151000F390C4FB027B4FEAC80A4FEACE06CDE9187BBA
S3151000F3A016EB0E064AEA5E7A82FB05572246069C43
S3151000F3B048EB0A0AB619C2FB04574AEB0A0A16EBBF
S3151000F3C00E0648EB0A0A7619109A089D0E9C4AEB0F
S3151000F3D00707CDE91A670F9E85FB025E80FB06764E
S3151000F3E06D194EEB0E0EED190B9F0C984EEB060E8B
S3151000F3F087FB0367B6197F41AD19029E4EEB070EC8
S3151000F400C6FB005E0D980A9E86FB0067B6197F4103
S3151000F410AD194EEB070E039E099F0B98C7FB065EB0
S3151000F420079F87FB0476FF197641ED194EEB060E02
S3151000F4304FEACE06EF007F1946EA55764EEB0606E2
S3151000F440FF1976417F194EEB060E0F9E80FB06596B
S3151000F45011980C9EC0FB0259C6FB0359029B0D9EC8
S3151000F460C3FB06590A9E039BC6FB0359099BC3FBA4
S3151000F4700459069C019B059A84FB038B18EB08081C
S3151000F480129C049B4BEB0B0BC3FB048BC2FB018B37
S3151000F49017EB08074EEB0B0E4FEAC90AEE00CDE943
S3151000F4A01C7E7619019F4AEA557A49EB0A0A1A46D2
S3151000F4B0B619079B4AEB0A0A761987FB0457C2FB53
S3151000F4C00357069B059AC3FB0157089BC2FB0357BC
S3151000F4D049EB0A0A76194AEB0707CDE91E67109E13
S3151000F4E00B9F0C9A139B87FB06570F9E6D1982FB79
S3151000F4F006E67F4115EB0E0547EB06070D9E83FBCF
S3151000F500066EB6194EEB0E0EAD19DDE9026247EB2B
S3151000F5100E07C6FB02570E9A0A9E019B86FB02E651
S3151000F5201EEB0E0E764115EB0E0547EB06074FEA5E
S3151000F530C70EEE0076194EEA557E47EB0E0EB6193B
S3151000F5404EEB0E0E7619079D049A47EB0E0783FBBA
S3151000F550055E6D19099B4EEB0E0EC2FB035E069AF5
S3151000F560089B82FB0389C4FB015E18EB0808059A09
S3151000F57049EB090915EB08054EEB090EC2FB005EB7
S3151000F580761947EB0E07CDE920670D9F0F9D0C9A54
S3151000F590139B87FB0556109FC2FB0756039F0E9AB7
S3151000F5A0C3FB0756029F0A9BC7FB0256F7004FEA9A
S3151000F5B0C50E1EEB050E47EA557746EB07071EEB01
S3151000F5C00E0E7F411EEB050E46EB0706099D019FA9
S3151000F5D0049A87FB0557C2FB0357079A089BC1FB82
S3151000F5E00257C4FB0357069B059AC3FB00570B989B
S3151000F5F0C2FB005715EB0E0E47EB06052395019E31
S3151000F6000A9D049ACDF85CE086FB05576D19029E9B
S3151000F61011987F41C2FB0657099E0C9AC1FB0657EB
S3151000F620DDE9076386FB036EB6194EEB0E0EAD19B8
S3151000F63047EB0E07C4FB0057069E0B9886FB006E21
S3151000F640B6194EEB0E0EAD19059E0D9847EB0E072B
S3151000F650C6FB0257109E039B049A80FB06680F9800
S3151000F660B61980FB039E139B0E9848EB080816EB01
S3151000F670090648EB0E0883FB009E19EB09094EEBB1
S3151000F6800E0E16EB090648EB0E084FEAC8094FEAAC
S3151000F690C60E1EEB060E49EA567948EB09091EEB13
S3151000F6A00E0E49EB09091EEB060E48EB090815EB81
S3151000F6B00E0ADDE9016547EB080B86FB05560A9F26
S3151000F6C01198C2FB0356C1FB0756DDE90872C7FB4A
S3151000F6D00256079F049A0491C7FB00560B980C9F7D
S3151000F6E0C4FB00560698C0FB0756059F0D98C7FB2E
S3151000F6F00056DDE90E40109F80FB04E9039CC4FB15
S3151000F70007E94FEAC9084FEACE0717EB0E0748EA92
S3151000F7105E78019C49EB0808FF1948EB080817EBBF
S3151000F7200E0749EB0809ED1984FB037E46EB090623
S3151000F730FF194EEB0E0EC2FB007E04460298C1FB6B
S3151000F740007E0198109980FB0404C2FB0104049901
S3151000F750119AC1FB03040899029BC1FB03040A9B7F
S3151000F76081FB038918EB08080999C2FB030449EBCE
S3151000F77009090B9B17EB08074EEB090EC1FB027E1E
S3151000F780C1FB030407990C9A81FB038918EB08083F
S3151000F7900D9BC1FB020449EB0909129917EB0807E7
S3151000F7A04EEB090EC1FB027EC1FB03040699039AB8
S3151000F7B081FB038918EB0808C1FB0204039B059A19
S3151000F7C049EB090917EB08074EEB090EC2FB037E3E
S3151000F7D00E9BC2FB0304109ACDE92A04CDE92656E6
S3151000F7E01798229082FB0365AC00B000801944EA9A
S3151000F7F0967445EB0404A40044EA90748000801BC0
S3151000F80064EB0504001864413F184EEB0404CDE97F
S3151000F81024ABCDE928740DF1600C0023624619461D
S3151000F8201068556894685B0E43EAC113181845EBC7
S3151000F8306161830E43EA81131B1920F07C40D46862
S3151000F840106023F07E454FF00000D060C2E901053C
S3151000F85002F110022CA844EBA1619042E0D15B0E9C
S3151000F86043EAC1134916C800DA00D21840EA5370A9
S3151000F87041EB000092184041D218189B149E41EBA0
S3151000F88000019B181893199B4FF0000041EB0301E0
S3151000F890199102460146351DDCF80040530E43EA25
S3151000F8A0C113DCF804201C1942EB6161A30EDCF8CD
S3151000F8B0082043EA81139A1824F07C44DCF80C30B3
S3151000F8C046F8204022F07E4745F8207000F10200ED
S3151000F8D043EBA1610A280CF1100CDDD11498530EDC
S3151000F8E043EAC113026803EBC30103EB41031A4455
S3151000F8F002602DB0BDE8F08F2DE9F04FD1E900720E
S3151000F9009FB0D1E908360C6907908869D1F81C8038
S3151000F910D1F80CE0D1F814908D68019402900AA9E0
S3151000F92082FB0304C7FB0604CDE90811029903966E
S3151000F930C5FB0804CEFB010401990495C1FB09041B
S3151000F940001864411C9082FB06061D94001885FB66
S3151000F95003547641401946EB04068EFB08452419DC
S3151000F9606D4100190C46029946EB0506C4FB0106CB
S3151000F970C9FB0906B5008400241845EA907546EBC4
S3151000F9800505AD0045EA9475A400241A65EB060535
S3151000F99024196D41C7FB0745CDE90A45DDE903404A
S3151000F9A08EFB0356C0FB0456019CC4FB0856C9FBCC
S3151000F9B00156B400A800401944EA957446EB0404B5
S3151000F9C0A40044EA90748000401B64EB060487FB95
S3151000F9D00256001864416D197641401944EB06042D
S3151000F9E0CDE90C04039C019E06938EFB04050018BA
S3151000F9F086FB03646D41801945EB040589FB0846B7
S3151000FA0024197641001945EB060581FB016400189F
S3151000FA106D41801945EB0405EE00C400241846EA32
S3151000FA20507645EB06062419049B01997641241855
S3151000FA3045EB060682FB0205C7FB030500186D4160
S3151000FA40241846EB0506CDE90E46069C039889FB5D
S3151000FA500456C1FB00560299C1FB0856B400A80013
S3151000FA60401944EA957446EB0404A40044EA9074E1
S3151000FA708000401B64EB060482FB0356C7FB0E5640
S3151000FA80001864416D197641401944EB0604394655
S3151000FA90CDE9100482FB0E07059100180C4601995A
S3151000FAA0029E7F41C4FB0107001883FB03547F416C
S3151000FAB04019039D47EB040789FB054C069D241945
S3151000FAC086FB05564CEB0C0C64194CEB060CC8FB6C
S3151000FAD0084C4FEA8C06A5002D1946EA94764CEB95
S3151000FAE00606B60046EA9576AD002D1B66EB0C06AB
S3151000FAF06D197641401947EB0607CDE91207059FA8
S3151000FB00039D82FB0146C7FB0946C3FB0E46069BB7
S3151000FB10029988FB037CC1FB057C24194FEA8C05EE
S3151000FB204FEA8700764145EA9775C0194CEB0505F3
S3151000FB30AD0045EA90758000C01B65EB0C050018FA
S3151000FB406D41241846EB050682FB0905CDE91446DE
S3151000FB500018059C049E039F6D41C4FB0105019985
S3151000FB60C6FB010588FB0767CEFB0E05BF0083FBAE
S3151000FB7003C4001847EA96774FEA86066D4116EBDE
S3151000FB800C0647EB04074FEAC70CF400A4194CEA1D
S3151000FB90567C47EB0C0C24194CEB0C0CA41947EBB8
S3151000FBA00C070299049E001945EB0705059CCDE943
S3151000FBB0160582FB01C5C4FB08C50199C6FB09C51C
S3151000FBC0CEFB01C582FB08028EFB096881FB01E9A9
S3151000FBD0CDF81890039FCDF804E083FB07791CEB52
S3151000FBE00C0C4FEA870E4FEA89046D4144EA97746C
S3151000FBF01EEB070E49EB0404A40044EA9E744FEA78
S3151000FC008E0EBEEB070E64EB09041EEB0E0E64415E
S3151000FC101CEB0E0745EB04050018059C0299524192
S3151000FC20C4FB0302049C069BC4FB0102B619CDE972
S3151000FC301875039F019948EB0808801942EB0802D2
S3151000FC4087FB077600185241B50040184FEA870423
S3151000FC5042EB030245EA9775E41946EB0505AD003C
S3151000FC6045EA9475A400E41B65EB060524196D415D
S3151000FC70001942EB0502089BCDE91A024FF0000A63
S3151000FC80D346194618685D689C684FEA5A6242EA7C
S3151000FC90CB12101845EB6B6B820E42EA8B1212EBED
S3151000FCA0040A20F07C40DA6818602AF07E444FF08F
S3151000FCB00000D86042EBAB6BC3E901041EAA1033F7
S3151000FCC09A42DFD14FEA5A6343EACB134FEA6B628B
S3151000FCD0D400D800C01844EA537442EB0404001848
S3151000FCE06441C0180A9B079F42EB04021B180A9333
S3151000FCF00B9B4FF0000442EB03020B922046224668
S3151000FD003E1D0D68530E43EAC0134A685D1942EB57
S3151000FD106060AB0E8A6843EA80139A1822F07E431D
S3151000FD2025F07C4547F8245046F82430CB6804F17A
S3151000FD30020443EBA0600A2C01F11001E1D1530E2D
S3151000FD4043EAC013079803EBC301026803EB4103B0
S3151000FD501A4402601FB0BDE8F08F00BF30B5E5B0A1
S3151000FD60054668460C46FFF7C7FD69465AA8FFF7D1
S3151000FD70C3FD5AA950A8FFF7BFFD224650A90AA8ED
S3151000FD80FFF768FA6A460AA914A8FFF763FA14A9D6
S3151000FD9050A8FFF7B1FD0AAA50A91EA8FFF75AFAF4
S3151000FDA01EA950A8FFF7A8FD50A95AA8FFF7A4FD51
S3151000FDB05AA950A8FFF7A0FD50A95AA8FFF79CFD15
S3151000FDC05AA950A8FFF798FD1EAA50A928A8FFF710
S3151000FDD041FA28A950A8FFF78FFD50A95AA8FFF796
S3151000FDE08BFD04245AA950A8FFF786FD50A95AA8DE
S3151000FDF0FFF782FD013CF5D128AA5AA932A8FFF7D0
S3151000FE0029FA32A950A8FFF777FD50A95AA8FFF78B
S3151000FE1073FD09245AA950A8FFF76EFD50A95AA8D8
S3151000FE20FFF76AFD013CF5D132AA5AA950A8FFF78F
S3151000FE3011FA50A95AA8FFF75FFD5AA950A8FFF763
S3151000FE405BFD042450A95AA8FFF756FD5AA950A8DD
S3151000FE50FFF752FD013CF5D128AA50A93CA8FFF79F
S3151000FE60F9F93CA950A8FFF747FD50A95AA8FFF782
S3151000FE7043FD18245AA950A8FFF73EFD50A95AA8C9
S3151000FE80FFF73AFD013CF5D13CAA5AA946A8FFF75F
S3151000FE90E1F946A95AA8FFF72FFD5AA950A8FFF76E
S3151000FEA02BFD312450A95AA8FFF726FD5AA950A8B0
S3151000FEB0FFF722FD013CF5D146AA50A95AA8FFF733
S3151000FEC0C9F95AA950A8FFF717FD50A95AA8FFF764
S3151000FED013FD18245AA950A8FFF70EFD50A95AA8C9
S3151000FEE0FFF70AFD013CF5D13CAA5AA950A8FFF725
S3151000FEF0B1F950A95AA8FFF7FFFC5AA950A8FFF765
S3151000FF00FBFC50A95AA8FFF7F7FC5AA950A8FFF70F
S3151000FF10F3FC50A95AA8FFF7EFFC14AA5AA92846D1
S3151000FF20FFF798F965B030BD2DE9F04FD0E9008A9A
S3151000FF30D0F808B0324E334D85B08946C168CDF839
S3151000FF400CB00746CDE9018A5C46D64608464FF006
S3151000FF50000C8A46BB461DE0ABB36EEA0002CCEB42
S3151000FF60CC03624003F00F0356F8047F59F82310B0
S3151000FF7055F8043F3A440A444244C3F120030CF1B5
S3151000FF80010CDA41BCF1400F7244804622D0204663
S3151000FF90744696464FEA1C13012B0AD0022BDBD16E
S3151000FFA00CEB4C038EEA04020533424003F00F03B8
S3151000FFB0DAE78EEA04020CEB8C030240013362404E
S3151000FFC003F00F03D0E784EA000202EA0E02424071
S3151000FFD06346C9E75F465146DDF80480DDF808A0A0
S3151000FFE0DDF80CB00AEB020340440BEB0E020C4496
S3151000FFF0C7E90003C7E9022405B0BDE8F08F00BFCA
S31510010000FC350210FC3602102DE9F043D0E90053FD
S315100100108046501943F1000391B0C8F80000C8F8A2
S3151001002004308AB30A4405F03F054E1E02F1FF392A
S315100100300FAC08F1080702E0B1451D4624D008EBC4
S3151001004005026B1C16F8011F117613F03F05F3D14B
S315100100504246ADF10401937E92F81BE092F818C066
S31510010060507E1B0443EA0E6343EA0C0343EA002362
S3151001007041F8043F8C4202F10402ECD1694638463C
S31510010080FFF752FFB145DAD111B0BDE8F08300BFD9
S31510010090F0B505681E4905F03F05372D94BFC5F12A
S315100100A03805C5F17805044691B02A46FFF7ACFF2D
S315100100B0D4E90063761B63F10007C4E90067ADF16B
S315100100C0040C0DAD21468B7ECA7E087E91F819E08F
S315100100D01B0443EA0263034343EA0E234CF8043F2D
S315100100E0AC4501F10401EED1FF00F20004F1080064
S315100100F047EA56776946CDE90E27FFF715FF231D07
S31510010100143453F8042F1A659C42FAD111B0F0BD7C
S31510010110000000200000000010B59FED117B9AB081
S315100101208DED007B9FED107B8DED027B9FED107B9E
S315100101300B46144601461A4668468DED047BFFF7B9
S3151001014063FF6846FFF7A4FF0DF1580CBCE80F00DA
S3151001015020606160A260E3601AB010BDAFF3008049
S3151001016000000000000000000123456789ABCDEFB8
S31510010170FEDCBA98765432102DE9F04F614E01F13A
S315100101802007002397B00C460546A6F12808BE465F
S315100101909C4656F8041C5EF8040F3246043EB045E0
S315100101A0C0FB013CF5D1DFF864919B0E43EA8C1339
S315100101B049464FEAAC6C8E4657F8046F51F8040D58
S315100101C07245C6FB003CF6D1EE4604F1240804F153
S315100101D04C07F2469B0E43EA8C134E464FEAAC6C23
S315100101E0424652F8040F56F8041D9742C0FB013CD3
S315100101F0F7D108F1040823F07C4247454AF8042B4D
S31510010200E8D1DFF80CA19B0E43EA8C134FF00009DD
S315100102100DF12C080A93C3464B46CC46AAF10407A6
S315100102209B0E43EA8C1352464FEAAC6C764652F853
S31510010230041D56F8040B9742C0FB013CF7D109F196
S31510010240010923F07C41B9F10B0F4BF8041B0AF19C
S31510010250040AE5D10023A4F1040C0BAF2834184687
S315100102605CF8041F3E689B0E43EA80135B184FEA45
S31510010270E17141EBE0709B1B23F07C4160EBE67072
S31510010280644547F8041BEBD10B9B1F4818440BAB75
S3151001029000900DF1540C76461C4654F8041F52F882
S315100102A0047F034601EBA061C81B23F07C43A445E0
S315100102B0706046F8043BF0D10A9916A8C917D8F808
S315100102C000305EF8042B53400B40534048F8043B72
S315100102D08045F4D10BAE13AF34460FCCBC4205F1B9
S315100102E01005264645F8100C45F80C1C45F8082C47
S315100102F045F8043CF0D103CE2860696017B0BDE81B
S31510010300F08F00BF50380210132C0AFF5438021018
S315100103105838021010B594B004460A1FEC4601F184
S31510010320240E002352F8041F01EBA36323F07C4132
S3151001033096454CF8041BF5D19B16242200210BA8D7
S315100103400A9306F04BFC69462046FFF715FF14B0D9
S3151001035010BD00BF2DE9F041002394B08E18ADF108
S3151001036004070DF14C081C461D468E4216D817E09F
S3151001037011F801CBA3F12002C3F1200E0CFA02F2FF
S315100103802CFA0EFE42EA0E020CFA03FC8E424CEADD
S31510010390040403F1080345EA020501D0192BE7DD30
S315100103A024F07C4247F8042FA40E474544EA8514ED
S315100103B0A3F11A034FEA9565D7D16946FFF7DCFE1B
S315100103C014B0BDE8F08100BF2DE9F0418AB00446B2
S315100103D06846FFF79FFF002304F1200C6F460DF1CD
S315100103E0280819461A4657F8045BA3F12006E817A0
S315100103F0C3F1200E984005FA06F625FA0EFE304393
S315100104009D401A3340EA0E00072B41EA050142EAE4
S3151001041000020EDDA44502D80BE0A44509D0083B25
S31510010420080A072B04F8011B40EA02614FEA12225F
S31510010430F3DC4745D7D10AB0BDE8F0819048F8B54D
S315100104408468630649D58F4E3378002B40F0CB80F4
S315100104508D4D8B482B78052B1BD801F0EFFD297894
S315100104608A4B8B4D53F821202B68D21A824240F3C6
S31510010470DA80884A824852F821701F4401F0DEFD65
S31510010480394602467E4801F0D7FD2B6803442B609E
S3151001049002E001F0D9FD7E4D79480022102101F0CC
S315100104A0DBFD77480022202101F0D6FD744801F0CA
S315100104B0C5FD002840F0DF80714801F0C3FD082812
S315100104C002D06F4801F0C2FD734B6D4800224021E6
S315100104D02A601A60327001F0BBFDA70603D5684881
S315100104E0C3689E0633D420023FD462026CD4E3065D
S315100104F011D5644C2378002B7CD1634C604823784A
S31510010500052B09D901F0A0FDBDE8F8405C48002291
S31510010510102101F09DBDF8BD01F090FD21785B4AD7
S315100105205B4C52F821202368D21A824270DD594A57
S31510010530534852F821501D4401F080FD29460246C8
S315100105404F4801F079FD236803442360DCE7250455
S3151001055000F18B804C4D2B78052B69D94848002228
S31510010560202101F075FD2002BFD54FF4000144484A
S31510010570002201F06DFD2104B7D5434D40480022FC
S315100105804FF4004101F064FD3D480122294601F076
S3151001059053FD2B78052BA8D83C4E3E4A384852F8C5
S315100105A0231056F8232001F04BFD3B4B2A7819688E
S315100105B056F8222008449042186096DA30480022F4
S315100105C0202101F047FD90E72E4B2D4800221021E6
S315100105D001251D7001F03EFD294800224FF48001CE
S315100105E001F036FD83E72849012201F025FD00239C
S315100105F033702DE724492248012201F01DFD002305
S315100106002370214C1E482378052B3FF67BAF83E7D9
S31510010610204850F821101A48194401F00DFD23689D
S315100106200344236070E71B4850F82110194429E749
S31510010630194E164F1749326851F8231057F82330BF
S315100106400F4811449A1A01F0FBFC2B78326857F8BF
S3151001065023301044013B984230607FF47FAF084845
S315100106600022202101F0F8FC78E700224FF4004126
S3151001067001F0EEFC6EE7024801F0E6FC1CE700BF54
S3151001068000E00140390A0020380A0020400000200D
S31510010690340A002058000020300A002010B5024606
S315100106A000211B4801F08AFC044660BB1949184811
S315100106B001F0BEFC164801F0C7FC224614484FF45F
S315100106C0800101F0C7FC224611484FF4000101F0E8
S315100106D0C1FC22460E48402101F0BCFC0E492420E3
S315100106E000F0B8FC0D4B10225A604FF0FF32114644
S315100106F0074801F0ADFC0A4B59680C701B690122C1
S315100107001A70204610BD074805F0D2FB204610BDD1
S3151001071000E00140A08601003D04011000E100E067
S3151001072058000020803802102DE9F0410E46CEB057
S31510010730B268F3680546086849686C460FC43069A3
S315100107407169B269F3690FC49DF800109DF81F30E5
S3151001075021F0070103F07F0343F0400320462022D6
S315100107608DF800100DF1980869468DF81F301CAFF1
S31510010770FFF7F0FD214640462FACFEF70BFCBE46B7
S31510010780A446DCF854305CF8046F9B1B4EF8043B0E
S31510010790C645F6D139463846FFF7E0FA0DF1480C51
S315100107A0666D54F8043F33444CF8043B6745F7D162
S315100107B012A93A460846FEF74DFD12A92846FEF73C
S315100107C0DBFC4EB0BDE8F0812DE9F04F0D46ADF5DD
S315100107D0237DEB68074616460868AA68496804AC83
S315100107E00FC4EB6928696969AA690FC49DF82F308E
S315100107F09DF8102003F07F0343F0400322F0070217
S3151001080031467AA88DF82F3001248DF81020FEF785
S3151001081079FC2422002185A8849406F0DFF924228C
S31510010820002167A8669406F0D9F90021242271A83F
S3151001083070910DF1300906F0D1F950227AA98EA8DE
S3151001084006F006FB0DF1A80A039752AC5CAD4F46B4
S3151001085017F9016D02974FF00809F211D2B24FF054
S31510010860000862F3070862F30F2862F3174865AFB1
S3151001087062F31F68BC468EA85CF8043F016883EAE0
S31510010880010202EA08025140534040F8041BCCF819
S315100108900030A2AB9842EFD10DF5CC7B0CA95A468C
S315100108A052F8040B536A034441F8043B70AB93426C
S315100108B0F6D10CA920A8FFF71FF816AA5BF8043B7E
S315100108C0DBF824105B1A42F8043B70AB5B45F5D19B
S315100108D016A95046FFF710F820AA514666A8FEF74A
S315100108E0B9FC0DF1800B48AB5046009319465A4698
S315100108F052F8043B50F804CB9245A3EB0C0341F894
S31510010900043BF5D1444A48A92046FEF771FC0194EF
S31510010910224613685BF8041B0B4442F8043B9542CC
S31510010920F7D1224648A970A8FEF794FC8EAA0DF1BC
S31510010930D00C114651F8040B4B6A03444CF8043B96
S3151001094098AB8B42F6D13EA952F8043B506A1B1A5A
S3151001095041F8043B98AB9A42F6D134AA16A948A895
S31510010960FEF778FC3EAA0CA92046FEF773FCAB46AF
S315100109702846214648AA52F8043B51F804CBA24214
S31510010980634440F8043BF6D129468EA8FEF7B4FF1E
S315100109900099019851F8043B50F8042B00919B1AC9
S315100109A0A1424BF8043B0190F2D129462846FEF7A5
S315100109B0A3FF98A87AAA2946FEF74CFC8EA857F8E9
S315100109C0043F016883EA010202EA080251405340DA
S315100109D040F8041B3B60A2AB9842F0D17600B9F106
S315100109E0010976B27FF439AF029F04AB9F427FF4BF
S315100109F02FAF70A90846039FFFF7B0F966A970AA31
S31510010A000846FEF727FC66A93846FEF7B5FB0DF535
S31510010A10237DBDE8F08F00BF41DB0100FFF784BEE7
S31510010A20FFF7D2BE08B50346014802F011FBFEE7F7
S31510010A309C380210002001F041B900BF012001F0DD
S31510010A403DB900BF10B5002000F0E4FB012000F015
S31510010A50E1FB402000F0DEFB104B022218684FF438
S31510010A60E13101F015FD041E0CDB00F0EBF858B96D
S31510010A7000F088F8044660B9094B0A484322DA6047
S31510010A8000F0AEFA204610BD074908486F22FFF75D
S31510010A90C9FF054905487422FFF7C4FF70000020FD
S31510010AA000440040400D0300B83802101C390210F2
S31510010AB000BF70474FF0FF30704700BF4FF0FF3057
S31510010AC0704700BF4FF0FF30704700BF4FF0FF3047
S31510010AD0704700BFF8B5E0B9002A19DD104D0E4672
S31510010AE08F180C4602E0BB420FD01C46284601F077
S31510010AF093FDC1B22170284601F090FD22780D2A8E
S31510010B0004F10103EFD10A232370C6F10106A019DE
S31510010B10F8BD06F005F9092303604FF0FF30F8BD63
S31510010B2000200440F8B5431E012B21D8002A174690
S31510010B3012DD531E124E4C1ECD1814F8013F0A2B0E
S31510010B400CD00F4801F06EFD0028FAD021783046FE
S31510010B5001F064FDAC42F0D13846F8BD084801F009
S31510010B6061FD0028FAD00D21304601F057FDE8E766
S31510010B7006F0D6F8092303604FF0FF30F8BD00BF29
S31510010B8000200440F8B50D4B1F68A7B100250C4C89
S31510010B902E46D4E9000101F065F8204601F0B8F8B7
S31510010BA00135002818BF6FF00706AF4204F10C0497
S31510010BB0EFD13046F8BD3E463046F8BD2439021015
S31510010BC0283902100B4B1B68834210B504460BD90A
S31510010BD0094B04EB440403EB840253F824005168D7
S31510010BE0BDE8104001F054B8044905483B22FFF70F
S31510010BF019FFEDE72439021028390210683902105D
S31510010C00B83902100B4B1B68834210B504460BD939
S31510010C10094B04EB440403EB840253F82400516896
S31510010C20BDE8104001F01EB8044905484622FFF7F9
S31510010C30F9FEEDE72439021028390210683902103D
S31510010C40B8390210F8B50B4B1F6887B100240A4D4D
S31510010C502646284601F05CF80134002818BF6FF0CB
S31510010C600706BC4205F10C05F3D13046F8BD3E46E8
S31510010C703046F8BD4C3902105039021047488546A6
S31510010C804748804780B94749474A484B9B1A03DD75
S31510010C90043BC858D050FBDC4549464A00209142D6
S31510010CA0BCBF41F8040BFAE74348804743488047E5
S31510010CB043488047FFF7FEFFFEE7FEE7FEE7FEE744
S31510010CC0FEE7FEE7FEE7FEE7FEE7FEE7FEE7FEE7E5
S31510010CD0FEE7FEE7FEE7FEE7FEE7FEE7FEE7FEE7D5
S31510010CE0FEE7FEE7FEE7FEE7FEE7FEE7FEE7FEE7C5
S31510010CF0FEE7FEE7FEE7FEE7FEE7FEE7FEE7FEE7B5
S31510010D00FEE7FEE7FEE7FEE7FEE7FEE7FEE7FEE7A4
S31510010D10FEE7FEE7FEE7FEE7FEE7FEE7FEE7FEE794
S31510010D20FEE7FEE7FEE7FEE7FEE7FEE7FEE7FEE784
S31510010D30FEE7FEE7FEE7FEE7FEE7FEE7FEE7FEE774
S31510010D40FEE7FEE7FEE7FEE7FEE7FEE7FEE7FEE764
S31510010D50FEE7FEE7FEE7FEE7FEE7FEE7FEE7FEE754
S31510010D60FEE7FEE7FEE7FEE7FEE7FEE7FEE7FEE744
S31510010D70FEE7FEE7FEE7FEE7FEE7FEE7FEE7FEE734
S31510010D80FEE7FEE7FEE7FEE7FEE7FEE7FEE7FEE724
S31510010D90FEE7FEE7FEE7FEE7FEE7FEE700000220BC
S31510010DA0690E0110283F02100000002038070020AC
S31510010DB000080020981800206D0E0110496D0110D1
S31510010DC019EB00100B4A08B50346106828B10A49F9
S31510010DD003448B4207D8136008BD084806491060C2
S31510010DE003448B42F7D905F09BFF0C2303604FF0A8
S31510010DF0FF3008BD4C0C002000F00120A018002087
S31510010E004FF080439A6802F46062B2F5206F20D0E9
S31510010E1011D9B2F5406F17D00F4B1049B2F5606F6B
S31510010E2018BF0B464FF080420D499268C2F38212E9
S31510010E30D3400B60704752B1084947F23053B2F5AF
S31510010E40C06F18BF0B46EDE74FF40043EAE7054BB9
S31510010E50E8E74FF4E103E5E7C068780400E1F5053A
S31510010E6098180020008793030020704710B50A4C8C
S31510010E700A4BA3600A4801F0AAFAD4F8883043F461
S31510010E807003C4F88830BFF34F8FBFF36F8FFFF72E
S31510010E90B7FFFFF7D7FD10BD00ED00E000E0001031
S31510010EA000A0024038B54FF0E02318499C691A6931
S31510010EB022F480320A601A69D2075BBF6FF07F4451
S31510010EC005225D695C615CBF9C611A61104B114A18
S31510010ED019684FF00003A0FB010154BF4FF0807554
S31510010EE001350AF08BFC0C4BB0FBF5F205FB120039
S31510010EF084421A609FBF1A6801321A602D19074B76
S31510010F0094BF281A201A186038BD00BF540C00204F
S31510010F109818002040420F0074000020580C002041
S31510010F2010B50B4A0B4C11602268002A0DDC50B12A
S31510010F30FFF7B8FF2368002BC1BF4FF0E0221369FA
S31510010F4043F002031361002010BD6FF00500FBE7AB
S31510010F50500C00207400002010B5094C236823B1F1
S31510010F606FF00F00984700232360064B1A684FF065
S31510010F70E0231A61044B4FF0FF321A6010BD00BF17
S31510010F80500C0020540C00207400002038B5114B71
S31510010F901A68002A08DA104C23681BB100209847FA
S31510010FA000232360002038BD1C6884B94FF0E0236C
S31510010FB09A690A4B1B689A4209D8074DFFF7CCFF6D
S31510010FC02B68002BEED0204698472C60EAE76FF08D
S31510010FD00500E8E774000020500C0020580C002092
S31510010FE010B5114C2268002A1ADC78B1FFF75AFFA6
S31510010FF04FF0E0222368002B0ADC0C4B1B684FF0E4
S31510011000E0218A699A42FCD8FFF7A6FF002010BD9D
S315100110101369DB0342BF236803F1FF332360E9E75A
S315100110206FF00500F3E700BF74000020580C002094
S3151001103008B5054B05494FF4F072184605F008FF3F
S31510011040034A906008BD00BF000E002000E00010AA
S3151001105000ED00E0F8B50C4B0C4E9B68B34204460C
S315100110600D4600F1100701D0FFF7E2FF002C46F8FC
S31510011070275007DB064A6109012304F01F04A34028
S3151001108042F82130F8BD00BF00ED00E0000E00204F
S3151001109000E100E0F0B50F468FB0044600287DD080
S315100110A04FF084554FF0845000F076FD1022002148
S315100110B0204605F093FD2B68DB0B23702B68DB0DA7
S315100110C063706B685B00DBB2A3702A6843EAD27364
S315100110D0A3706B68DB09E3706B68DB0B23716B68BC
S315100110E0DB0D6371AB68DB0BA371AB68DB0DE371D1
S315100110F0EB685B00DBB22372AA6843EAD2732372F0
S31510011100EB68DB096372EB68DB0BA372002F39D036
S315100111100023CDE90533CDE90733EB68DB0D3B70D1
S315100111202B69DB0B7B7000F00BF9064628B12846BC
S3151001113000F043FD30460FB0F0BD014605A800F0A2
S3151001114037F90423CDE9093409A86B44ADF83060A9
S315100111500D960B9300F01AF906460028E7D100F018
S3151001116003F99DF804207B789A4204D19DF8052055
S315100111703B789A4206D04FF0845000F01EFD6FF076
S315100111800306D7E74FF084500026C368DB0DE372E0
S315100111900369DB0B237300F010FDCBE74FF0FF362D
S315100111A0C8E700003F280AD9094BDA684038C0B2AF
S315100111B00123834013420CBF0120002070471F28D2
S315100111C04FF0804302D99A6C2038F0E75A6AEFE75C
S315100111D0000008403F2808D90D4A4038D168C0B2EE
S315100111E0012383400B43D36070471F284FF0804281
S315100111F007D92038916CC0B2012383400B43936405
S315100112007047516A012383400B435362704700BFF5
S31510011210000008403F2809D90E494038CB68C0B2B2
S315100112200122824023EA0203CB6070471F284FF048
S31510011230804308D920389A6CC0B20121814022EA34
S3151001124001029A6470475A6A0121814022EA010219
S315100112505A6270470000084038B5002104464FF421
S315100112607A70FFF75DFE4FF08045AB68234203D0DD
S31510011270FFF772FE002038BDFFF788FE0630F4D066
S315100112806FF00900F7E70000072830D8DFE800F013
S31510011290172F2F23040E26204FF080424FF00060A7
S315100112A0936843F400239360FFF7D6BF4FF0804253
S315100112B04FF08050936843F480139360F4E74FF036
S315100112C080424FF08060936843F480239360EBE78C
S315100112D0084800F01DBD4FF00050E5E74FF0804281
S315100112E04FF00070936843F400339360DCE76FF0BE
S315100112F0020070471C3A02103F284FF0010308D92B
S3151001130040380E4AC0B28340936091680B42FCD1BB
S3151001131070471F2809D92038C0B24FF08042834048
S315100113205364516C0B42FCD170474FF0804283409D
S31510011330536051680B42FCD1704700BF0000084052
S3151001134008B52F20FFF766FF2220FFF763FFBDE8E0
S315100113500840014800F048B800740040014800F008
S315100113603BB800BF0074004010B5044800F06BF89C
S3151001137004462F20FFF72EFF204610BD00740040B3
S31510011380014800F06EB800BF0074004001460148E4
S3151001139000F072B8007400400146014800F0EDB843
S315100113A0007400400146014800F0E6B9007400409F
S315100113B00A460146014800F0E2B900BF0078004034
S315100113C0131F18440439121A51F8043F1BBA40F876
S315100113D00439D042F8D17047436813F0010F14BF96
S315100113E06FF005000020704708B500230246036020
S315100113F01046FFF7F1FF0028FAD1136843F00103F5
S31510011400136008BD38B505460C46FFF7A7FF00283F
S31510011410FBD12B681C432C6038BD10B50446FFF771
S315100114209DFF0028FBD1236843F01003236010BDF4
S3151001143010B50446FFF792FF0028FBD1236843F04D
S315100114402003236010BD10B50446FFF7E6FF2046C2
S31510011450FFF7EEFF2046FFF7BFFF0028FAD1206005
S3151001146010BD10B50446FFF779FF0028FBD123689C
S3151001147043F00803236010BDF8B504460D46002954
S3151001148075D04B68002B72D08B68002B6FD00E680D
S31510011490002E6FD0FFF7C1FF2046FFF7C9FF297B4A
S315100114A02046FFF7AFFFFFF759FF0028FBD16B7BF3
S315100114B022681B0203F4407322F440721343236023
S315100114C0F31C062B26D8B20723D04FEA860C6B687D
S315100114D061460022B24244DB63446B60002301364D
S315100114E0042E2361FBD1A368DB07FCD5A36843F067
S315100114F00103A3602269AB6812BADA60226912BAD3
S315100115009A60226912BA5A60226912BA43F8102BEC
S31510011510AB60F8BD6B68DA6812BA22619A6812BAC2
S3151001152022615A6812BA226153F8102B12BA22613B
S315100115306B60A368D907FCD5A36843F00103A360C8
S315100115402269AB6812BADA60226912BA9A60226904
S3151001155012BA5A60226912BA43F8102B043EAB60D4
S31510011560AEE7043901325F583FBA2761B2E74FF04F
S31510011570FF30CEE76FF00200CBE7FFF77DBF00002B
S3151001158070B50D468CB00646002836D0002937D0E6
S3151001159000F0FEF800F010F91B4B1C4998701B78EF
S315100115A009960122C4B2CDE90512012B4FF00002B2
S315100115B0CDE9072404941ED0042DA8BF04250B954C
S315100115C00CAB13E90F008DE80F0004AB0FCB00F045
S315100115D0FBF80F49204600F002F9204600F006F903
S315100115E0204600F009F901220021204600F0F9F801
S315100115F000200CB070BD0425E1E74FF0FF30F8E78D
S315100116006FF00200F5E700BFE00F002000030202B1
S31510011610A516011070B50D468CB00646002834D0BB
S31510011620002935D000F0B4F800F0C6F81A4B1B4962
S31510011630587000221B780A96C4B2CDE90512012210
S31510011640CDE907240494F3B1042DA8BF04250B9505
S315100116500CAB13E90F008DE80F0004AB0FCB00F0B4
S31510011660B3F80F49204600F0BAF8204600F0BEF84C
S31510011670204600F0C1F801220021204600F0B1F801
S3151001168000200CB070BD0425E1E74FF0FF30F8E7FC
S315100116906FF00200F5E700BFE00F00200001020223
S315100116A0A516011010B5034629BB134CA278824228
S315100116B00CD100F087F86368032B01D8FFF760FEA1
S315100116C06168E068BDE81040FFF7A4BF6078834207
S315100116D011D16368042B0AD9043B636000F072F8D8
S315100116E0616841B1A068BDE81040FFF749BF002B02
S315100116F0F4D06160F2E710BDE00F002070B5054629
S3151001170016460C46002932D04B68002B2FD08B6819
S315100117106BB30B6813B96FF0020070BDFFF77DFE56
S315100117202846FFF785FE217B2846FFF76BFEFFF75C
S3151001173015FE637B2A68216860681B0222F44072D9
S3151001174003F4407313432B600A4BA2681E70596051
S315100117509860DA602B6843F002032B602B6843F024
S3151001176004032B60FFF70CFF0028D6D0D3E74FF008
S31510011770FF30D2E7E00F00200022FFF7BFBF2AB1EA
S31510011780402A14BF20221822FFF71ABE1022FBE7A7
S3151001179010B50520FFF706FD044628B90520FFF709
S315100117A039FD2046FFF7A8FDBDE81040014800F0BD
S315100117B02BB800BF00800240014800F06BB800BF93
S315100117C00080024000F09CB810B485B06C4684E8E5
S315100117D00F0094E80F0005B010BC00F0D3B800F06C
S315100117E003B900F011B900F053B9000001460148E0
S315100117F000F02AB90080024000F060B9014800F0FB
S315100118007FB900BF00800240F8B51E4E1E4F861BE1
S3151001181018BF4FF0FF36054657F8263063BB1B48F5
S3151001182001F0C8F81948012101F0B6F8044630BB99
S31510011830174B2860224605F58070214605EB421CA0
S31510011840C3E90220C3E900110132CCF80011DCF81A
S3151001185004E1CCF804E1102A196100F1200003F12A
S315100118601403EBD157F826300848013347F82630D0
S3151001187001F0A0F82046F8BD6FF00604FAE76FF004
S315100118800504F7E70080024034110020F00F002014
S31510011890F40F002038B5164BC01A18BF4FF0FF30A1
S315100118A0144B53F82030E3B11348012101F074F8B9
S315100118B00446C8B9114B142000FB04F1CD185A582F
S315100118C04AB901205850EB681A60DA610A4801F0EA
S315100118D071F8204638BD0134102CEDD16FF00D048E
S315100118E0F4E76FF00604F4E76FF00504F1E700BFC3
S315100118F00080024034110020F00F0020F40F002068
S315100119000F28F8B516D814230D4E03FB00F57719D9
S3151001191073597BB10B48012101F03EF8044660B9B9
S31510011920FB68705118605A6806485A6001F042F80F
S315100119302046F8BD6FF00204FAE76FF00504F7E7E9
S31510011940F40F0020F00F002084B00DF1100C0F28B9
S315100119500CE90F0003460FD81421094A4B43D1183D
S31510011960D3584BB1CB68019A9A60029ADA60039AFE
S315100119701A61002004B070476FF00200FAE700BF49
S31510011980F40F002084B00DF1100C0F280CE90F0094
S31510011990034622D81421134A4B43D118D358E3B125
S315100119A09DF807309DF80620C9681B0543EA0243D6
S315100119B0BDF804201343029A003A18BF012243EAE4
S315100119C08243039A003A18BF012243EA82530B60FD
S315100119D09CE80F0004B0FFF7B7BF6FF0020004B028
S315100119E0704700BFF40F00200F2808D81422054BAA
S315100119F050431A181B5813B11161002070476FF02C
S31510011A0002007047F40F00200F2830B517D81424A0
S31510011A100C4B44431D191C598CB121B1EC6821683A
S31510011A2041F0804121600AB9002030BD142202FB29
S31510011A300033DA68136843F000431360F4E76FF07C
S31510011A400200F2E7F40F00200F290BD81423074ADE
S31510011A504B43D35833B1026801238B4013430360C0
S31510011A60002070476FF00200704700BFF40F00208E
S31510011A700F2808D81422054B50431A181B5813B1B6
S31510011A80D368586870476FF002007047F40F002052
S31510011A900F280DD81422084B50431A181B583BB166
S31510011AA0D3685A6801F05F011143596000207047ED
S31510011AB06FF00200704700BFF40F00200F2838B5F1
S31510011AC0044618D814230D4A4343D518D35893B155
S31510011AD0FFF7CEFF01462046FFF785FEEB68DA6970
S31510011AE02AB11A6842F003021A60002038BD1A683A
S31510011AF042F00102F8E76FF00200F7E7F40F002059
S31510011B002DE9F041184C194D041B6FF00F0318BF46
S31510011B1001245C431423064604F1100703FB045504
S31510011B204FF001080F2C06D90134BC4205F11405FA
S31510011B30F8D1BDE8F0812B68002BF5D0736808FA4F
S31510011B4004F21A42F0D02B6913B1002120469847AE
S31510011B502046FFF78DFF01462046FFF744FE7368C6
S31510011B60002BE1D1E5E700BF00800240F40F002011
S31510011B7001F17043B3F5002F03D2064B0360002029
S31510011B807047A1F18451B1F5804FF6D36FF0020081
S31510011B90704700BF0090024007B50246014601A8F2
S31510011BA0FFF7E6FF30B90198114603B05DF804EB73
S31510011BB000F014B803B05DF804FB07B50246014600
S31510011BC001A8FFF7D5FF30B90198114603B05DF8AA
S31510011BD004EB00F023B803B05DF804FBA1F18451C6
S31510011BE0B1F5004F14D241F23423036403F1695362
S31510011BF003F57D1303F66F23036403F1D043A3F5B5
S31510011C001C03A3F683530364034B0364002070473C
S31510011C106FF00200704700BFC1B20896A1F184515E
S31510011C20B1F5004F3DBF034B036400206FF0020076
S31510011C30704700BFEFBEADDEC10710B5044602D531
S31510011C400020FFF7E7FAA20702D50120FFF7E2FA13
S31510011C50630702D54020FFF7DDFA2046BDE81040A4
S31510011C6000F0AEBE084A90420B460AD10749086AEF
S31510011C70DA0003F0010302F01002034313430B626F
S31510011C80704700F02DB900BF00060840006C0040F7
S31510011C90084A90420B460BD10748DA00016A02F056
S31510011CA0100203F00103134321EA03030362704791
S31510011CB000F018B900060840006C004000F092BE12
S31510011CC0034A904202D1034AD161704700F00CB920
S31510011CD00006084000680040034B984201D000F00E
S31510011CE005B9024BD86970470006084000680040E4
S31510011CF010B4064CA04202D010BC00F0F9B800296D
S31510011D0014BF00206FF0100010BC70470006084089
S31510011D1070B5704B0468704E9C4205461ED003F593
S31510011D2080539C421CD003F5EE2303F580639C423D
S31510011D3018D0B4420CBF03234FF0FF330120984053
S31510011D40FFF77AFF2B68297AB3427CD1012927D074
S31510011D50022931D041B16FF0100070BD0023EDE7BB
S31510011D600123EBE70223E9E76B685C4958001A0186
S31510011D700E6A00F0020002F02002024326EA020275
S31510011D800A628A68C3F34003034322EA03038B60A2
S31510011D906B7A042BDFD8DFE803F021344A344A008A
S31510011DA06B684E4958001A010E6A00F0020002F0E3
S31510011DB0200202433243E3E76B68484958001A018F
S31510011DC00E6A00F0020002F02002024332430A6258
S31510011DD08A68C3F3400303431343D8E76A683F494C
S31510011DE093005201086A03F0040302F04002134300
S31510011DF003430B626A68A97A2046BDE87040FFF773
S31510011E0077BF36496B680E6ADA0003F0010002F0FB
S31510011E101002304302430A629A005B01086A02F01B
S31510011E20040203F04003134320EA0303E1E76B685E
S31510011E302A49DA00086A02F0100203F00106324359
S31510011E4020EA0202E7E76A68204600F063F80028F4
S31510011E5083D16B7A042B39D8DFE803F0031C300DDC
S31510011E602800236E6A6823EA02032366636E23EA57
S31510011E7002036366BEE7236E6A6813432366636EC5
S31510011E8023EA02036366D4F8B83023EA0203C4F8DE
S31510011E90B830AFE7226E6B681A432266626E22EA89
S31510011EA003026266D4F8B8201343F0E7236E6A681A
S31510011EB023EA02032366636E1343E3E7226E6B681C
S31510011EC022EA03022266626E1A43EAE76FF0020003
S31510011ED043E700BF0080004000060840006C004048
S31510011EE0C16170470162704781647047006C704729
S31510011EF021B101290AD06FF002007047D0F8C03025
S31510011F0023EA0203C0F8C03000207047D0F8C03071
S31510011F101343F7E7036B134303634260052921D883
S31510011F20DFE801F0030B0D13181C426142600267D2
S31510011F30C267C0F88820002070470261F6E7C0F832
S31510011F408820C26702678260F5E7C0F88820C267F9
S31510011F50C266F8E7C0F888208267F3E7C0F88820E0
S31510011F608267F5E76FF00200704700F0DFB80000F6
S31510011F7008B50F4B984207D10D20FFF72BF910200A
S31510011F80FFF7BAF9002008BD0A4B984204D11C206C
S31510011F90FFF720F92020F3E7074B984204D13820A8
S31510011FA0FFF718F93420EBE76FF00100EBE700BFFC
S31510011FB000D0014000E0014000F0014070B50D462F
S31510011FC01646044608B3FFF7D3FF134B9C420CD1B8
S31510011FD00D20FFF71FF91148FFF79AFE32462946E1
S31510011FE02046BDE8704000F03FB80D4B9C4204D12D
S31510011FF01C20FFF70FF90B48EEE70B4B9C4207D15C
S315100120003820FFF707F90948E6E74FF0FF3070BDB2
S315100120106FF00100FBE700BF00D00140103A02103B
S3151001202000E00140043A021000F00140F8390210B4
S3151001203000F096B800F0DCB800F0EAB800F0FBB892
S3151001204000F001B900F012B900F01CB900F022B984
S3151001205000F028B900F029B900F02EB900F035B911
S3151001206000F096B900F0A3B92DE9F8430D46904654
S31510012070044600284ED01021FFF7F0FF064650BB4C
S315100120802368DFF89890264F43F00103236020461A
S31510012090FFF7DAFF2046FFF7D9FF02212046FFF7A7
S315100120A0E1FF06212046FFF7DBFFCDB92A4641465F
S315100120B02046FFF75AFF4C4508D01A4B9C420DD0CB
S315100120C0194DAC4214BF4FF0FF350225182303FBFF
S315100120D0057500236B603046BDE8F8830125F5E7E9
S315100120E023684C4543F0020323600FD00D4B9C42ED
S315100120F00ED003F580539C4214BF4FF0FF340224D7
S31510012100182303FB047701237B60E4E73446F7E7E2
S315100121100124F5E74FF0FF36DDE700BF00D001409F
S315100121203811002000E0014000F0014078B18AB971
S31510012130B1F5806F11D27F2988BF4FF40043C26475
S3151001214088BFC364C36C0B43C364104670474FF01A
S31510012150FF32FAE76FF01002F7E76FF00202F4E7C9
S31510012160002839D06FF41072A1F5742313441C4A58
S3151001217093422DD21B4B1B685B08B3FBF1F1032372
S315100121804A00B2FBF3F2B1FBF3F3013B0F2B02F161
S31510012190FF3202DD6FF0020070470F2AFADC1B02D4
S315100121A09BB2D2B21A43C26303680F4943F4004388
S315100121B003600C4B1B685B08B3FBF1F35B085A1EFB
S315100121C0023BB3F5FF7FE5D842638263FFF732BF67
S315100121D0064B9942EDD9DDE74FF0FF30704700BF4E
S315100121E0009F240098180020801A060040E1330051
S315100121F00649436B826B0868C2F30802C3F30803EE
S3151001220013444008B0FBF3F0704700BF9818002044
S3151001221010B568B161B100239A4201D1184610BDBB
S315100122204468A407FAD4C46AE4B2CC540133F3E780
S315100122304FF0FF30F3E718B1006AC0F3032070477F
S315100122404FF0FF30704710B568B161B100239A4263
S3151001225001D1184610BD4468E406FAD4CC5CE4B248
S31510012260C4620133F3E74FF0FF30F3E738B1836906
S31510012270826AC3F30720C2F30323C01A70474FF0D3
S31510012280FF307047C36943F08003C361C3691B06FE
S31510012290FCD47047436A43F080034362436A1B06CA
S315100122A0FCD47047816002617047C3680B43C360F9
S315100122B04369134343617047C36823EA0103C3604B
S315100122C0436923EA0203436170472DE9F0410F4642
S315100122D00446002859D0036843F0010303600668D9
S315100122E0036843F4806306F4806603604FF00008C8
S315100122F0B8450CD16FF008001EB9236823F480632A
S315100123002360236823F001032360BDE8F0810A20CE
S31510012310FEF766FE236823F0400323600A20FEF7CA
S315100123205FFE2368D90506D5236843F0C0032360F1
S3151001233008F10108DCE70A20FEF752FE236823F0B4
S31510012340800323600A20FEF74BFE256815F40075FD
S31510012350EAD10A20FEF744FE236843F08003236086
S315100123600A20FEF73DFE23689A05DDD50A20FEF701
S3151001237037FE236843F0400323600A20FEF730FE40
S315100123802368DB05D4D52846B6E74FF0FF30BCE706
S315100123908369DBB28B4221BFC36923F4706343EABD
S315100123A00121C1612CBF00206FF0020070478369C3
S315100123B0C3F307238B4221BF436A23F4706343EAB5
S315100123C0012141622CBF00206FF00200704700F01E
S315100123D000B8D0F8003123F00103C0F80031012311
S315100123E0C0F80037D0F80031DA03FBD5D0F8003148
S315100123F043F00103C0F80031D0F80031DB03FBD5FF
S3151001240070470000094B186800F44030B0F5803F62
S3151001241005D01A6812F4403F05D14FF4E1001B694B
S31510012420B0FBF3F070476FF00200704700140840DC
S3151001243008B5134B984207D10B20FEF75DFF092013
S31510012440FEF7C8FE002008BD0E4B984204D10C20A1
S31510012450FEF752FF0A20F3E70B4B984204D11C20DA
S31510012460FEF74AFF2120EBE7084B984204D144209E
S31510012470FEF742FF4420E3E76FF00200E3E700BFF7
S31510012480002004400030044000400440001408407D
S3151001249070B504460E461546FFF7CAFF90BB022DCE
S315100124A014D0042D02D10620FEF7EEFE164B9C42E7
S315100124B00ED11648FFF72CFC0920FEF7ABFE2A4673
S315100124C031462046BDE8704000F0CAB80520EBE75A
S315100124D00F4B9C4204D10F48FFF71AFC0A20ECE778
S315100124E00D4B9C4204D10D48FFF712FC2120E4E765
S315100124F00B4B9C4204D10B48FFF70AFC4420DCE746
S315100125006FF0020070BD00BF00200440EC390210CC
S3151001251000300440E039021000400440D439021062
S3151001252000140840C8390210284B984210B50446C9
S3151001253046D003F58053984242D003F58053984212
S315100125403ED02348844206D10523022A636105D071
S31510012550042A1DD012B16FF0020010BD4FF4E10331
S31510012560B3FBF1F301FB03F2C2F5E10213B1B2EBD6
S31510012570510F00D901330361FFF744FF0028ECDD49
S31510012580236843F40043236023681B03FCD5E4E767
S31510012590236843F4803323602368B1F5166F43F43F
S315100125A0001323600AD9002363614FF48033B3FB10
S315100125B0F1F301FB03F2C2F58032D7E70123F3E70A
S315100125C0042AC8D0204600F07FF8D7E7002004403F
S315100125D0001408400A4B98420DD003F580539842D7
S315100125E009D003F58053984205D003F57533984207
S315100125F003D1FFF707BF00F0ABB86FF002007047C9
S315100126000020044000F0DAB800F0F8B800F018B96C
S3151001261000F060B900F07AB900F008B800F012B80D
S3151001262000F092B900F094B900F098B910B50446CB
S315100126302046FFF7F5FF0028FAD02046BDE81040E6
S31510012640FFF7E6BF38B504460D462046FFF7EAFF09
S315100126500028FAD029462046BDE83840FFF7DABFF0
S31510012660184B984270B504460D4616460BD003F525
S315100126708053984207D003F58053984203D003F54F
S31510012680753398421BD101212046FFF7CDFFA8B91A
S3151001269008212046FFF7B6FF80B901462046FFF70D
S315100126A0B5FF58B901462046FFF7AEFF30B932469D
S315100126B029462046FFF738FF00EAE07070BD6FF03B
S315100126C00200FBE7002004401E4B984210B40BD0C9
S315100126D003F58053984207D003F58053984203D0EF
S315100126E003F57533984229D10523012A436112D086
S315100126F0022A16D012BB144B1B685B08B3FBF1F20E
S3151001270001FB123312B1B3EB510F00D9013210BCD8
S315100127100261FFF75FBF036843F4803303600B4B1D
S31510012720ECE704684FF4E10244F40034B2FBF1F231
S3151001273001FB02F3C3F5E1030460E3E76FF0020066
S3151001274010BC70470020044098180020C068780417
S31510012750174B98420BD003F58053984207D003F5D7
S315100127608053984203D003F57533984217D1036805
S3151001277003F44033B3F5803F14D0036813F4403F9C
S3151001278006D10C4B1B685B080069B3FBF0F0704770
S31510012790036803F44033B3F5003F05D003686FF0C7
S315100127A002007047044BEFE74FF4E103ECE700BF7B
S315100127B00020044098180020C06878040E4B9842F7
S315100127C00BD003F58053984207D003F580539842F6
S315100127D003D003F5753398420AD10539032907D871
S315100127E0036823F4406343EA8123036000207047A2
S315100127F06FF00200704700BF002004400F4B984253
S315100128000BD003F58053984207D003F580539842B5
S3151001281003D003F57533984202D121B1012908D0AD
S315100128206FF002007047036823F4805303600020A1
S315100128307047036843F48053F8E700BF0020044053
S31510012840234B98420BD003F58053984207D003F5DA
S315100128508053984203D003F57533984234D1042935
S3151001286032D8DFE801F0030915212900036823F0A6
S315100128701003036000207047036843F010030360E0
S31510012880036823F020030360036823F04003F0E795
S31510012890036843F010030360036823F02003036009
S315100128A0036843F04003E4E7036843F01003036051
S315100128B0036843F02003E6E7036843F0100303605F
S315100128C0036843F02003EAE76FF00200704700BF88
S315100128D0002004400C4B98420BD003F580539842CC
S315100128E007D003F58053984203D003F57533984208
S315100128F004D14368DB0604D4006A70476FF0020006
S3151001290070476FF00C007047002004400D4B984241
S3151001291002460BD003F58053984207D003F5805336
S31510012920984203D003F57533984205D1506810F0DB
S31510012930800004D1116270476FF0020070476FF08A
S315100129400B007047002004404068C0F30320704715
S315100129504068C0F30330C0F1080070470D4B984230
S315100129600BD003F58053984207D003F58053984254
S3151001297003D003F57533984209D14B1E072B06D8A0
S31510012980036823F00F0319430160002070476FF0AD
S315100129900200704700200440034653E8002F32B965
S315100129A043E800100028F8D1BFF35F8F70476FF02E
S315100129B005007047BFF35F8F002303607047000067
S315100129C010B5064C217831B905484FF4007204F060
S315100129D005F901232370002010BD00BF80110020CE
S315100129E084130020032898BF104B70B594BF53F879
S315100129F02060002605463046FFF76EF9014604466B
S31510012A003046FFF75DF90A4E0A4B06EBC51603EB86
S31510012A10C51504B970BDE30703D52B680BB1306832
S31510012A209847640804360435F3E700BF283A0210C4
S31510012A30841100208413002010B4044C03460A4666
S31510012A4020685DF8044B194600F002B80006002014
S31510012A5038B5A1FB021454BB00F040F8054650B33B
S31510012A6050F8042C22F00302043A242A10D8132A0F
S31510012A7013D91B2A0460446016D9242A8460C460C1
S31510012A8011BF00F1100200F118020461446105E062
S31510012A90214604F0A3F8284638BD024600231360E8
S31510012AA053609360284638BD00F10802F6E704F03A
S31510012AB037F90C2303600025284638BD024B014621
S31510012AC0186800F00BB800BF00060020024B014643
S31510012AD0186805F06FBB00BF000600202DE9F04F06
S31510012AE001F10B05162D85B0064624D8102900F2E2
S31510012AF0B18003F085F9102518234FF0020CBA4F57
S31510012B003B44A3F108025C68944200F02281636899
S31510012B10E268A16823F00303CA602344304691603A
S31510012B205A6842F001025A60083403F06FF92046E0
S31510012B3005B0BDE8F08F35F0070500F18B80A9428D
S31510012B4000F2888003F05CF9B5F5FC7FC0F0738163
S31510012B506B0A00F08380042B00F22281AB0903F18A
S31510012B60390C03F1380E4FEACC039F4F3B44A3F1C6
S31510012B7008005C68A04207D10DE0002AE16880F2E6
S31510012B80E280884207D00C46636823F003035A1B80
S31510012B900F2AF2DDF446DFF864823C69444500F001
S31510012BA0BF80636823F00309A9EB05030F2B00F31C
S31510012BB04781002BC7E9048880F23181B9F5007F7E
S31510012BC0D7F804E080F0CC804FEAD90101314FEA01
S31510012BD05919012303FA09F357F83120A2604EEA75
S31510012BE0030E07EBC103083BE360C7F804E047F89F
S31510012BF03140D4604FEAAC0301209840704534D877
S31510012C0010EA0E0F07D12CF0030C400010EA0E0F3C
S31510012C100CF1040CF9D007EBCC0A5246E146D16807
S31510012C200EE04B6823F00303A3EB050EBEF10F0F65
S31510012C300C46C96800F3C180BEF1000F80F2E28034
S31510012C408A42EED109F1010919F0030F02F10802C6
S31510012C50E5D121E10C233360002468E74FF40073BA
S31510012C604FF0400C4FF03F0E7FE7BC68636823F0CE
S31510012C700309A94503D3A9EB05030F2B53DC5B4BC2
S31510012C80DFF87CB11B68082003F1100804F04EF838
S31510012C90DBF8003001900133A84404EB090205D09A
S31510012CA008F1FF388044434203EA0808414630469A
S31510012CB0029204F023F8B0F1FF3F029A824600F027
S31510012CC0DC80824200F2D780494B01991868404452
S31510012CD001F1FF311860844640F0FC801AEA010FB9
S31510012CE040F0F880D7F808A0C84448F00102CAF8A5
S31510012CF00420404B1968814238BF18603E4B196851
S31510012D00814238BF1860544622F00308A845A8EB43
S31510012D10050301D30F2B06DC304603F077F89BE74A
S31510012D20D7F804E066E7621943F0010345F001059F
S31510012D3065603046BA60536003F068F8083420467F
S31510012D4005B0BDE8F08FA2682344D16030468A6091
S31510012D50E6E6DC68A3427FF4DAAE0CF1020C1AE760
S31510012D60B9F5206F4FEA59227ED3142A00F2158144
S31510012D7002F15C03DB005B32F918FB580839994202
S31510012D8003D1F0E09B68994204D05A6822F00302FD
S31510012D904A45F7D8D968C4E902318C60DC6029E765
S31510012DA0142B6DD9542B00F201812B0B03F16F0CEF
S31510012DB003F16E0E4FEACC03D7E63046A6686219C8
S31510012DC045F001056560F1608E604EF00101C7E9BD
S31510012DD00422C2F80880C2F80C80516044F803E05E
S31510012DE003F014F80834A2E680000020B415002080
S31510012DF084150020B0150020AC1500208800002095
S31510012E0078000020234430465A6842F001025A6085
S31510012E1054F8083FD9608B6002F0F8FF87E6A144A9
S31510012E203046D9F8043043F00103C9F804300834A8
S31510012E3002F0ECFF7BE64FEAD50C05F108035EE6DE
S31510012E40621943F0010145F0010565603046C7E995
S31510012E500422C2F80880C2F80C80516044F8093087
S31510012E6002F0D4FF083462E64FEA991202F13903EF
S31510012E70DB00383280E7BC4224D0BC68626843E785
S31510012E8003F15C0C03F15B0E4FEACC036DE65AF8C5
S31510012E900839534540F0D8801CF0030F0CF1FF3C64
S31510012EA0F5D17B6823EA00037B60400098423FF628
S31510012EB0DCAE18B9D9E6400009F104091842FAD076
S31510012EC0CC46A8E6614B0199186808EB000C01394C
S31510012ED0C3F800C0DBF8000001301BBFAAEB0202E9
S31510012EE06244CBF800A01A601AF00702CDE902235A
S31510012EF042D0C2F10802019B9244D044134408EA1D
S31510012F0001001A1A02EA010B5946304603F0F6FE81
S31510012F10421C039B7AD0A0EB0A0000EB0B08186841
S31510012F20C7F808A048F001025844BC42CAF8042068
S31510012F3018603FF4DEAEB9F10F0F42D96168A9F1FD
S31510012F400C0222F0070201F0010111436160A11880
S31510012F504FF0050C0F2AC1F804C0C1F808C04AD8B1
S31510012F60DAF80420C5E69210012000FA02F24EEAC0
S31510012F70020EC7F804E00EE7019B0AEB08020A40AD
S31510012F809A1A02EA010B5946304603F0B7FE431C62
S31510012F90039BC0D1DDF808B0C1E7542A15D84FEA12
S31510012FA0193202F16F03DB006E32E5E6B3F5AA7F43
S31510012FB015D8EB0B03F1780C03F1770E4FEACC031E
S31510012FC0D3E50123CAF80430A6E6B2F5AA7F25D8BF
S31510012FD04FEAD93202F17803DB007732CCE640F2C0
S31510012FE05452934225D8AB0C03F17D0C03F17C0EA0
S31510012FF04FEACC03B9E5304604F10801019305F017
S31510013000D9F8019BD7F808A01868A9E7029A083AD7
S315100130109044A8EB0A084FF0000B80E740F2545396
S315100130209A420DD84FEA994202F17D03DB007C32B8
S31510013030A2E64FF47E734FF07F0C4FF07E0E94E5AF
S315100130404FF47E737E2297E67B682EE78415002067
S315100130500FB400B5074983B004AB086853F8042BC5
S315100130608168019300F008F803B05DF804EB04B031
S31510013070704700BF000600202DE9F04FDFB01C4657
S3151001308007919146834603F035FE03681993184656
S3151001309003F096FF0822189000212EA80D9403F034
S315100130A09DFDBBF1000F04D0DBF83430002B01F08D
S315100130B08780079B5A6EB3F90C30D10702D49A0553
S315100130C040F1A7869F0407D407994A6E43F400532B
S315100130D022F400528B814A661E0740F1CC80079A72
S315100130E01269002A00F0C78003F01A020A2A00F0BA
S315100130F0D1809FED997B0023CDE93333CDE91B3385
S31510013100CDE91D338DED167B35AA13933292904678
S315100131101A930A93CDF820B04D46089F2E46904B30
S31510013120D3F8E44003F0E0FD03462EA800903246A2
S315100131302AA93846A047002800F0CB80C0F2C180EA
S315100131402A9A252A034601D01E44E8E7771B04462E
S3151001315040F0C28000238DF89F3099460B934FF0B3
S31510013160FF3273780992741C0134A3F120025A2A92
S3151001317000F2F880DFE812F0D002F600F600CC0279
S31510013180F600F600F6006A00F600F6008602A902BD
S31510013190F6009102B202F600AE025B005B005B0024
S315100131A05B005B005B005B005B005B00F600F600FA
S315100131B0F600F600F600F600F6007701F6001102A9
S315100131C02A03770177017701F600F600F600F6007B
S315100131D02603F600F600E202F600F600F6002F02CC
S315100131E0F6001303F600F6001F07F600F600F600C8
S315100131F0F600F600F600F600F6007701F600110269
S3151001320061027701770177019F0261020D02F600D3
S315100132109502F6005503470743030D02F6002F02E8
S315100132207D004207F600F6004B07F6007D00A3F17C
S315100132303002002114F8013B01EB810102EB41013F
S31510013240A3F13002092AF5D90B918EE7089F38466A
S3151001325003F050FD43681D93184603F0B1FE1E900E
S315100132600646384603F046FD83681B93002E40F050
S315100132702986237878E7079D5846294603F060FB8F
S31510013280002841F0AC83B5F90C3003F01A020A2A72
S315100132907FF42FAF0799B1F90E20002AFFF629AF57
S315100132A04A6ED00702D49A0541F1C5810799234682
S315100132B04A46584601F008FD0A900A985FB0BDE8E3
S315100132C0F08F082200212EA803F088FC01231E444A
S315100132D025E7771B044611D0349B3B443493339B2B
S315100132E00133072BC8E90057339313DC08F108089B
S315100132F00A9B3B440A93002C7FF42CAF349BDDF8D8
S3151001330020B0002B41F0DC80079B0022B3F90C3072
S31510013310339212E0DDE9071032AA01F051FD48B9E6
S315100133200DF1D408E4E7BB460C9B1BB10C9958462A
S3151001333004F040FF079BB3F90C30079A526ED4077D
S3151001334040F11D81590601F156830A985FB0BDE817
S31510013350F08F00BFAFF300800000000000000000F6
S3151001336094040020CDE90E34002BC7D000228DF82D
S31510013370143101238DF89F2006930C929B460992D6
S3151001338014921092129245AD19F0020302D00699C9
S315100133900231069119F08407349C05D10B990698D0
S315100133A00E1A002E00F3AA8082B10122C8F8042059
S315100133B0339A013201340DF19F01072A3494339265
S315100133C0C8F8001000F3E38308F1080883B1339BB2
S315100133D028AA01330234C8F80020072B4FF0020245
S315100133E034943393C8F8042000F3DF8308F10808F6
S315100133F0802F00F0C082099BA3EB0B06002E00F371
S31510013400FF8219F4807F40F01B82339BC8F800506D
S3151001341001335C44072BC8F804B03494339300F39A
S315100134204F8308F1080819F0040F05D00B9B069A73
S315100134309D1A002D00F3C583DDE90A3206998A42E9
S31510013440ACBF9B185B180A93002C40F01183002324
S3151001345033930C9B1BB10C99089804F0ABFE0DF13C
S31510013460D4080F9D59E6CDE90E340D9B073323F091
S315100134700703B3EC027B57EC176B0D9327F0004350
S3151001348023938DED227ADDE922ABA84B4FF0FF3263
S31510013490504659468DED167B08F072F9002840F01A
S315100134A02F85A24B4FF0FF325046594608F04AF984
S315100134B0002840F02585002200233046394608F0C1
S315100134C037F9002841F00C819DF89F20984D994BB2
S315100134D029F080090E994729C8BF1D4600230321EB
S315100134E00C9306918B460993149310931293002A09
